{
  "_format": "hh-sol-artifact-1",
  "contractName": "TCO2",
  "sourceName": "contracts/TCO2.sol",
  "abi": [
    {
      "inputs": [
        {
          "internalType": "address",
          "name": "initialOwner",
          "type": "address"
        },
        {
          "internalType": "address",
          "name": "royaltiesAddress",
          "type": "address"
        }
      ],
      "stateMutability": "nonpayable",
      "type": "constructor"
    },
    {
      "inputs": [
        {
          "internalType": "address",
          "name": "sender",
          "type": "address"
        },
        {
          "internalType": "uint256",
          "name": "balance",
          "type": "uint256"
        },
        {
          "internalType": "uint256",
          "name": "needed",
          "type": "uint256"
        },
        {
          "internalType": "uint256",
          "name": "tokenId",
          "type": "uint256"
        }
      ],
      "name": "ERC1155InsufficientBalance",
      "type": "error"
    },
    {
      "inputs": [
        {
          "internalType": "address",
          "name": "approver",
          "type": "address"
        }
      ],
      "name": "ERC1155InvalidApprover",
      "type": "error"
    },
    {
      "inputs": [
        {
          "internalType": "uint256",
          "name": "idsLength",
          "type": "uint256"
        },
        {
          "internalType": "uint256",
          "name": "valuesLength",
          "type": "uint256"
        }
      ],
      "name": "ERC1155InvalidArrayLength",
      "type": "error"
    },
    {
      "inputs": [
        {
          "internalType": "address",
          "name": "operator",
          "type": "address"
        }
      ],
      "name": "ERC1155InvalidOperator",
      "type": "error"
    },
    {
      "inputs": [
        {
          "internalType": "address",
          "name": "receiver",
          "type": "address"
        }
      ],
      "name": "ERC1155InvalidReceiver",
      "type": "error"
    },
    {
      "inputs": [
        {
          "internalType": "address",
          "name": "sender",
          "type": "address"
        }
      ],
      "name": "ERC1155InvalidSender",
      "type": "error"
    },
    {
      "inputs": [
        {
          "internalType": "address",
          "name": "operator",
          "type": "address"
        },
        {
          "internalType": "address",
          "name": "owner",
          "type": "address"
        }
      ],
      "name": "ERC1155MissingApprovalForAll",
      "type": "error"
    },
    {
      "inputs": [
        {
          "internalType": "uint256",
          "name": "numerator",
          "type": "uint256"
        },
        {
          "internalType": "uint256",
          "name": "denominator",
          "type": "uint256"
        }
      ],
      "name": "ERC2981InvalidDefaultRoyalty",
      "type": "error"
    },
    {
      "inputs": [
        {
          "internalType": "address",
          "name": "receiver",
          "type": "address"
        }
      ],
      "name": "ERC2981InvalidDefaultRoyaltyReceiver",
      "type": "error"
    },
    {
      "inputs": [
        {
          "internalType": "uint256",
          "name": "tokenId",
          "type": "uint256"
        },
        {
          "internalType": "uint256",
          "name": "numerator",
          "type": "uint256"
        },
        {
          "internalType": "uint256",
          "name": "denominator",
          "type": "uint256"
        }
      ],
      "name": "ERC2981InvalidTokenRoyalty",
      "type": "error"
    },
    {
      "inputs": [
        {
          "internalType": "uint256",
          "name": "tokenId",
          "type": "uint256"
        },
        {
          "internalType": "address",
          "name": "receiver",
          "type": "address"
        }
      ],
      "name": "ERC2981InvalidTokenRoyaltyReceiver",
      "type": "error"
    },
    {
      "inputs": [],
      "name": "MintAmountZero",
      "type": "error"
    },
    {
      "inputs": [],
      "name": "MintEmptyMetadata",
      "type": "error"
    },
    {
      "inputs": [
        {
          "internalType": "address",
          "name": "owner",
          "type": "address"
        }
      ],
      "name": "OwnableInvalidOwner",
      "type": "error"
    },
    {
      "inputs": [
        {
          "internalType": "address",
          "name": "account",
          "type": "address"
        }
      ],
      "name": "OwnableUnauthorizedAccount",
      "type": "error"
    },
    {
      "inputs": [
        {
          "internalType": "uint256",
          "name": "tokenId",
          "type": "uint256"
        }
      ],
      "name": "TokenMetadataExists",
      "type": "error"
    },
    {
      "anonymous": false,
      "inputs": [
        {
          "indexed": true,
          "internalType": "address",
          "name": "account",
          "type": "address"
        },
        {
          "indexed": true,
          "internalType": "address",
          "name": "operator",
          "type": "address"
        },
        {
          "indexed": false,
          "internalType": "bool",
          "name": "approved",
          "type": "bool"
        }
      ],
      "name": "ApprovalForAll",
      "type": "event"
    },
    {
      "anonymous": false,
      "inputs": [
        {
          "indexed": true,
          "internalType": "address",
          "name": "previousOwner",
          "type": "address"
        },
        {
          "indexed": true,
          "internalType": "address",
          "name": "newOwner",
          "type": "address"
        }
      ],
      "name": "OwnershipTransferred",
      "type": "event"
    },
    {
      "anonymous": false,
      "inputs": [
        {
          "indexed": true,
          "internalType": "address",
          "name": "operator",
          "type": "address"
        },
        {
          "indexed": true,
          "internalType": "address",
          "name": "from",
          "type": "address"
        },
        {
          "indexed": true,
          "internalType": "address",
          "name": "to",
          "type": "address"
        },
        {
          "indexed": false,
          "internalType": "uint256[]",
          "name": "ids",
          "type": "uint256[]"
        },
        {
          "indexed": false,
          "internalType": "uint256[]",
          "name": "values",
          "type": "uint256[]"
        }
      ],
      "name": "TransferBatch",
      "type": "event"
    },
    {
      "anonymous": false,
      "inputs": [
        {
          "indexed": true,
          "internalType": "address",
          "name": "operator",
          "type": "address"
        },
        {
          "indexed": true,
          "internalType": "address",
          "name": "from",
          "type": "address"
        },
        {
          "indexed": true,
          "internalType": "address",
          "name": "to",
          "type": "address"
        },
        {
          "indexed": false,
          "internalType": "uint256",
          "name": "id",
          "type": "uint256"
        },
        {
          "indexed": false,
          "internalType": "uint256",
          "name": "value",
          "type": "uint256"
        }
      ],
      "name": "TransferSingle",
      "type": "event"
    },
    {
      "anonymous": false,
      "inputs": [
        {
          "indexed": false,
          "internalType": "string",
          "name": "value",
          "type": "string"
        },
        {
          "indexed": true,
          "internalType": "uint256",
          "name": "id",
          "type": "uint256"
        }
      ],
      "name": "URI",
      "type": "event"
    },
    {
      "inputs": [
        {
          "internalType": "address",
          "name": "account",
          "type": "address"
        },
        {
          "internalType": "uint256",
          "name": "id",
          "type": "uint256"
        }
      ],
      "name": "balanceOf",
      "outputs": [
        {
          "internalType": "uint256",
          "name": "",
          "type": "uint256"
        }
      ],
      "stateMutability": "view",
      "type": "function"
    },
    {
      "inputs": [
        {
          "internalType": "address[]",
          "name": "accounts",
          "type": "address[]"
        },
        {
          "internalType": "uint256[]",
          "name": "ids",
          "type": "uint256[]"
        }
      ],
      "name": "balanceOfBatch",
      "outputs": [
        {
          "internalType": "uint256[]",
          "name": "",
          "type": "uint256[]"
        }
      ],
      "stateMutability": "view",
      "type": "function"
    },
    {
      "inputs": [
        {
          "internalType": "address",
          "name": "account",
          "type": "address"
        },
        {
          "internalType": "uint256",
          "name": "id",
          "type": "uint256"
        },
        {
          "internalType": "uint256",
          "name": "value",
          "type": "uint256"
        }
      ],
      "name": "burn",
      "outputs": [],
      "stateMutability": "nonpayable",
      "type": "function"
    },
    {
      "inputs": [
        {
          "internalType": "address",
          "name": "account",
          "type": "address"
        },
        {
          "internalType": "uint256",
          "name": "id",
          "type": "uint256"
        }
      ],
      "name": "burnBalanceOf",
      "outputs": [
        {
          "internalType": "uint256",
          "name": "",
          "type": "uint256"
        }
      ],
      "stateMutability": "view",
      "type": "function"
    },
    {
      "inputs": [
        {
          "internalType": "address[]",
          "name": "accounts",
          "type": "address[]"
        },
        {
          "internalType": "uint256[]",
          "name": "ids",
          "type": "uint256[]"
        }
      ],
      "name": "burnBalanceOfBatch",
      "outputs": [
        {
          "internalType": "uint256[]",
          "name": "",
          "type": "uint256[]"
        }
      ],
      "stateMutability": "view",
      "type": "function"
    },
    {
      "inputs": [
        {
          "internalType": "address",
          "name": "account",
          "type": "address"
        },
        {
          "internalType": "uint256[]",
          "name": "ids",
          "type": "uint256[]"
        },
        {
          "internalType": "uint256[]",
          "name": "values",
          "type": "uint256[]"
        }
      ],
      "name": "burnBatch",
      "outputs": [],
      "stateMutability": "nonpayable",
      "type": "function"
    },
    {
      "inputs": [],
      "name": "contractURI",
      "outputs": [
        {
          "internalType": "string",
          "name": "",
          "type": "string"
        }
      ],
      "stateMutability": "pure",
      "type": "function"
    },
    {
      "inputs": [
        {
          "internalType": "uint256",
          "name": "id",
          "type": "uint256"
        }
      ],
      "name": "exists",
      "outputs": [
        {
          "internalType": "bool",
          "name": "",
          "type": "bool"
        }
      ],
      "stateMutability": "view",
      "type": "function"
    },
    {
      "inputs": [
        {
          "internalType": "address",
          "name": "account",
          "type": "address"
        },
        {
          "internalType": "address",
          "name": "operator",
          "type": "address"
        }
      ],
      "name": "isApprovedForAll",
      "outputs": [
        {
          "internalType": "bool",
          "name": "",
          "type": "bool"
        }
      ],
      "stateMutability": "view",
      "type": "function"
    },
    {
      "inputs": [
        {
          "internalType": "address",
          "name": "account",
          "type": "address"
        },
        {
          "internalType": "uint256",
          "name": "id",
          "type": "uint256"
        },
        {
          "internalType": "uint256",
          "name": "amount",
          "type": "uint256"
        },
        {
          "internalType": "string",
          "name": "base64Metadata",
          "type": "string"
        }
      ],
      "name": "mint",
      "outputs": [],
      "stateMutability": "nonpayable",
      "type": "function"
    },
    {
      "inputs": [],
      "name": "owner",
      "outputs": [
        {
          "internalType": "address",
          "name": "",
          "type": "address"
        }
      ],
      "stateMutability": "view",
      "type": "function"
    },
    {
      "inputs": [],
      "name": "renounceOwnership",
      "outputs": [],
      "stateMutability": "nonpayable",
      "type": "function"
    },
    {
      "inputs": [
        {
          "internalType": "uint256",
          "name": "tokenId",
          "type": "uint256"
        },
        {
          "internalType": "uint256",
          "name": "salePrice",
          "type": "uint256"
        }
      ],
      "name": "royaltyInfo",
      "outputs": [
        {
          "internalType": "address",
          "name": "",
          "type": "address"
        },
        {
          "internalType": "uint256",
          "name": "",
          "type": "uint256"
        }
      ],
      "stateMutability": "view",
      "type": "function"
    },
    {
      "inputs": [
        {
          "internalType": "address",
          "name": "from",
          "type": "address"
        },
        {
          "internalType": "address",
          "name": "to",
          "type": "address"
        },
        {
          "internalType": "uint256[]",
          "name": "ids",
          "type": "uint256[]"
        },
        {
          "internalType": "uint256[]",
          "name": "values",
          "type": "uint256[]"
        },
        {
          "internalType": "bytes",
          "name": "data",
          "type": "bytes"
        }
      ],
      "name": "safeBatchTransferFrom",
      "outputs": [],
      "stateMutability": "nonpayable",
      "type": "function"
    },
    {
      "inputs": [
        {
          "internalType": "address",
          "name": "from",
          "type": "address"
        },
        {
          "internalType": "address",
          "name": "to",
          "type": "address"
        },
        {
          "internalType": "uint256",
          "name": "id",
          "type": "uint256"
        },
        {
          "internalType": "uint256",
          "name": "value",
          "type": "uint256"
        },
        {
          "internalType": "bytes",
          "name": "data",
          "type": "bytes"
        }
      ],
      "name": "safeTransferFrom",
      "outputs": [],
      "stateMutability": "nonpayable",
      "type": "function"
    },
    {
      "inputs": [
        {
          "internalType": "address",
          "name": "operator",
          "type": "address"
        },
        {
          "internalType": "bool",
          "name": "approved",
          "type": "bool"
        }
      ],
      "name": "setApprovalForAll",
      "outputs": [],
      "stateMutability": "nonpayable",
      "type": "function"
    },
    {
      "inputs": [
        {
          "internalType": "bytes4",
          "name": "interfaceId",
          "type": "bytes4"
        }
      ],
      "name": "supportsInterface",
      "outputs": [
        {
          "internalType": "bool",
          "name": "",
          "type": "bool"
        }
      ],
      "stateMutability": "view",
      "type": "function"
    },
    {
      "inputs": [
        {
          "internalType": "uint256",
          "name": "id",
          "type": "uint256"
        }
      ],
      "name": "totalBurnSupply",
      "outputs": [
        {
          "internalType": "uint256",
          "name": "",
          "type": "uint256"
        }
      ],
      "stateMutability": "view",
      "type": "function"
    },
    {
      "inputs": [],
      "name": "totalBurnSupply",
      "outputs": [
        {
          "internalType": "uint256",
          "name": "",
          "type": "uint256"
        }
      ],
      "stateMutability": "view",
      "type": "function"
    },
    {
      "inputs": [],
      "name": "totalSupply",
      "outputs": [
        {
          "internalType": "uint256",
          "name": "",
          "type": "uint256"
        }
      ],
      "stateMutability": "view",
      "type": "function"
    },
    {
      "inputs": [
        {
          "internalType": "uint256",
          "name": "id",
          "type": "uint256"
        }
      ],
      "name": "totalSupply",
      "outputs": [
        {
          "internalType": "uint256",
          "name": "",
          "type": "uint256"
        }
      ],
      "stateMutability": "view",
      "type": "function"
    },
    {
      "inputs": [
        {
          "internalType": "address",
          "name": "newOwner",
          "type": "address"
        }
      ],
      "name": "transferOwnership",
      "outputs": [],
      "stateMutability": "nonpayable",
      "type": "function"
    },
    {
      "inputs": [
        {
          "internalType": "uint256",
          "name": "tokenId",
          "type": "uint256"
        }
      ],
      "name": "uri",
      "outputs": [
        {
          "internalType": "string",
          "name": "",
          "type": "string"
        }
      ],
      "stateMutability": "view",
      "type": "function"
    }
  ],
  "bytecode": "0x60806040523480156200001157600080fd5b5060405162004294380380620042948339818101604052810190620000379190620003fc565b81604051806020016040528060008152506200005981620000fd60201b60201c565b50600073ffffffffffffffffffffffffffffffffffffffff168173ffffffffffffffffffffffffffffffffffffffff1603620000cf5760006040517f1e4fbdf7000000000000000000000000000000000000000000000000000000008152600401620000c6919062000454565b60405180910390fd5b620000e0816200011260201b60201c565b50620000f5816101f4620001d860201b60201c565b505062000861565b80600290816200010e9190620006eb565b5050565b6000600760009054906101000a900473ffffffffffffffffffffffffffffffffffffffff16905081600760006101000a81548173ffffffffffffffffffffffffffffffffffffffff021916908373ffffffffffffffffffffffffffffffffffffffff1602179055508173ffffffffffffffffffffffffffffffffffffffff168173ffffffffffffffffffffffffffffffffffffffff167f8be0079c531659141344cd1fd0a4f28419497f9722a3daafe3b4186f6b6457e060405160405180910390a35050565b6000620001ea6200038860201b60201c565b6bffffffffffffffffffffffff16905080826bffffffffffffffffffffffff161115620002525781816040517f6f483d090000000000000000000000000000000000000000000000000000000081526004016200024992919062000834565b60405180910390fd5b600073ffffffffffffffffffffffffffffffffffffffff168373ffffffffffffffffffffffffffffffffffffffff1603620002c75760006040517fb6d9900a000000000000000000000000000000000000000000000000000000008152600401620002be919062000454565b60405180910390fd5b60405180604001604052808473ffffffffffffffffffffffffffffffffffffffff168152602001836bffffffffffffffffffffffff16815250600560008201518160000160006101000a81548173ffffffffffffffffffffffffffffffffffffffff021916908373ffffffffffffffffffffffffffffffffffffffff16021790555060208201518160000160146101000a8154816bffffffffffffffffffffffff02191690836bffffffffffffffffffffffff160217905550905050505050565b6000612710905090565b600080fd5b600073ffffffffffffffffffffffffffffffffffffffff82169050919050565b6000620003c48262000397565b9050919050565b620003d681620003b7565b8114620003e257600080fd5b50565b600081519050620003f681620003cb565b92915050565b6000806040838503121562000416576200041562000392565b5b60006200042685828601620003e5565b92505060206200043985828601620003e5565b9150509250929050565b6200044e81620003b7565b82525050565b60006020820190506200046b600083018462000443565b92915050565b600081519050919050565b7f4e487b7100000000000000000000000000000000000000000000000000000000600052604160045260246000fd5b7f4e487b7100000000000000000000000000000000000000000000000000000000600052602260045260246000fd5b60006002820490506001821680620004f357607f821691505b602082108103620005095762000508620004ab565b5b50919050565b60008190508160005260206000209050919050565b60006020601f8301049050919050565b600082821b905092915050565b600060088302620005737fffffffffffffffffffffffffffffffffffffffffffffffffffffffffffffffff8262000534565b6200057f868362000534565b95508019841693508086168417925050509392505050565b6000819050919050565b6000819050919050565b6000620005cc620005c6620005c08462000597565b620005a1565b62000597565b9050919050565b6000819050919050565b620005e883620005ab565b62000600620005f782620005d3565b84845462000541565b825550505050565b600090565b6200061762000608565b62000624818484620005dd565b505050565b5b818110156200064c57620006406000826200060d565b6001810190506200062a565b5050565b601f8211156200069b5762000665816200050f565b620006708462000524565b8101602085101562000680578190505b620006986200068f8562000524565b83018262000629565b50505b505050565b600082821c905092915050565b6000620006c060001984600802620006a0565b1980831691505092915050565b6000620006db8383620006ad565b9150826002028217905092915050565b620006f68262000471565b67ffffffffffffffff8111156200071257620007116200047c565b5b6200071e8254620004da565b6200072b82828562000650565b600060209050601f8311600181146200076357600084156200074e578287015190505b6200075a8582620006cd565b865550620007ca565b601f19841662000773866200050f565b60005b828110156200079d5784890151825560018201915060208501945060208101905062000776565b86831015620007bd5784890151620007b9601f891682620006ad565b8355505b6001600288020188555050505b505050505050565b60006bffffffffffffffffffffffff82169050919050565b60006200080b62000805620007ff84620007d2565b620005a1565b62000597565b9050919050565b6200081d81620007ea565b82525050565b6200082e8162000597565b82525050565b60006040820190506200084b600083018562000812565b6200085a602083018462000823565b9392505050565b613a2380620008716000396000f3fe608060405234801561001057600080fd5b506004361061014c5760003560e01c80636b20c454116100c3578063bd85b0391161007c578063bd85b039146103d6578063e8a3d48514610406578063e985e9c514610424578063f242432a14610454578063f2fde38b14610470578063f5298aca1461048c5761014c565b80636b20c4541461032a578063715018a6146103465780638294b907146103505780638da5cb5b14610380578063a22cb4651461039e578063bb7fde71146103ba5761014c565b80632a55205a116101155780632a55205a1461022f5780632eb2c2d6146102605780634e1273f41461027c5780634f558e79146102ac578063509d9b5c146102dc578063594f3a1f1461030c5761014c565b8062fdd58e1461015157806301ffc9a714610181578063064ffa5f146101b15780630e89341c146101e157806318160ddd14610211575b600080fd5b61016b600480360381019061016691906123f5565b6104a8565b6040516101789190612444565b60405180910390f35b61019b600480360381019061019691906124b7565b610502565b6040516101a891906124ff565b60405180910390f35b6101cb60048036038101906101c6919061251a565b610514565b6040516101d89190612444565b60405180910390f35b6101fb60048036038101906101f6919061251a565b610531565b60405161020891906125d7565b60405180910390f35b61021961056c565b6040516102269190612444565b60405180910390f35b610249600480360381019061024491906125f9565b610576565b604051610257929190612648565b60405180910390f35b61027a6004803603810190610275919061286e565b610760565b005b61029660048036038101906102919190612a00565b610808565b6040516102a39190612b36565b60405180910390f35b6102c660048036038101906102c1919061251a565b610911565b6040516102d391906124ff565b60405180910390f35b6102f660048036038101906102f19190612a00565b610925565b6040516103039190612b36565b60405180910390f35b610314610a2e565b6040516103219190612444565b60405180910390f35b610344600480360381019061033f9190612b58565b610a38565b005b61034e610ae4565b005b61036a600480360381019061036591906123f5565b610af8565b6040516103779190612444565b60405180910390f35b610388610b53565b6040516103959190612be3565b60405180910390f35b6103b860048036038101906103b39190612c2a565b610b7d565b005b6103d460048036038101906103cf9190612d0b565b610b93565b005b6103f060048036038101906103eb919061251a565b610cd3565b6040516103fd9190612444565b60405180910390f35b61040e610cf0565b60405161041b91906125d7565b60405180910390f35b61043e60048036038101906104399190612d8e565b610d1e565b60405161044b91906124ff565b60405180910390f35b61046e60048036038101906104699190612dce565b610db2565b005b61048a60048036038101906104859190612e65565b610e5a565b005b6104a660048036038101906104a19190612e92565b610ee0565b005b600080600083815260200190815260200160002060008473ffffffffffffffffffffffffffffffffffffffff1673ffffffffffffffffffffffffffffffffffffffff16815260200190815260200160002054905092915050565b600061050d82610f8c565b9050919050565b6000600a6000838152602001908152602001600020549050919050565b6060600b6000838152602001908152602001600020604051602001610556919061300e565b6040516020818303038152906040529050919050565b6000600454905090565b6000806000600660008681526020019081526020016000206040518060400160405290816000820160009054906101000a900473ffffffffffffffffffffffffffffffffffffffff1673ffffffffffffffffffffffffffffffffffffffff1673ffffffffffffffffffffffffffffffffffffffff1681526020016000820160149054906101000a90046bffffffffffffffffffffffff166bffffffffffffffffffffffff166bffffffffffffffffffffffff16815250509050600073ffffffffffffffffffffffffffffffffffffffff16816000015173ffffffffffffffffffffffffffffffffffffffff160361070b5760056040518060400160405290816000820160009054906101000a900473ffffffffffffffffffffffffffffffffffffffff1673ffffffffffffffffffffffffffffffffffffffff1673ffffffffffffffffffffffffffffffffffffffff1681526020016000820160149054906101000a90046bffffffffffffffffffffffff166bffffffffffffffffffffffff166bffffffffffffffffffffffff168152505090505b6000610715611006565b6bffffffffffffffffffffffff1682602001516bffffffffffffffffffffffff16866107419190613063565b61074b91906130d4565b90508160000151819350935050509250929050565b600061076a611010565b90508073ffffffffffffffffffffffffffffffffffffffff168673ffffffffffffffffffffffffffffffffffffffff16141580156107af57506107ad8682610d1e565b155b156107f35780866040517fe237d9220000000000000000000000000000000000000000000000000000000081526004016107ea929190613105565b60405180910390fd5b6108008686868686611018565b505050505050565b6060815183511461085457815183516040517f5b05999100000000000000000000000000000000000000000000000000000000815260040161084b92919061312e565b60405180910390fd5b6000835167ffffffffffffffff81111561087157610870612676565b5b60405190808252806020026020018201604052801561089f5781602001602082028036833780820191505090505b50905060005b8451811015610906576108dc6108c4828761111090919063ffffffff16565b6108d7838761112490919063ffffffff16565b6104a8565b8282815181106108ef576108ee613157565b5b6020026020010181815250508060010190506108a5565b508091505092915050565b60008061091d83610cd3565b119050919050565b6060815183511461097157815183516040517f5b05999100000000000000000000000000000000000000000000000000000000815260040161096892919061312e565b60405180910390fd5b6000835167ffffffffffffffff81111561098e5761098d612676565b5b6040519080825280602002602001820160405280156109bc5781602001602082028036833780820191505090505b50905060005b8451811015610a23576109f96109e1828761111090919063ffffffff16565b6109f4838761112490919063ffffffff16565b610af8565b828281518110610a0c57610a0b613157565b5b6020026020010181815250508060010190506109c2565b508091505092915050565b6000600854905090565b610a40611010565b73ffffffffffffffffffffffffffffffffffffffff168373ffffffffffffffffffffffffffffffffffffffff1614158015610a895750610a8783610a82611010565b610d1e565b155b15610ad457610a96611010565b836040517fe237d922000000000000000000000000000000000000000000000000000000008152600401610acb929190613105565b60405180910390fd5b610adf838383611138565b505050565b610aec6111cc565b610af66000611253565b565b60006009600083815260200190815260200160002060008473ffffffffffffffffffffffffffffffffffffffff1673ffffffffffffffffffffffffffffffffffffffff16815260200190815260200160002054905092915050565b6000600760009054906101000a900473ffffffffffffffffffffffffffffffffffffffff16905090565b610b8f610b88611010565b8383611319565b5050565b610b9b6111cc565b6000610ba684610911565b9050600080835111905060008403610bea576040517f39d7ecde00000000000000000000000000000000000000000000000000000000815260040160405180910390fd5b818015610bf45750805b15610c3657846040517fb8ceb317000000000000000000000000000000000000000000000000000000008152600401610c2d9190612444565b60405180910390fd5b81158015610c415750805b15610c6c5782600b60008781526020019081526020016000209081610c66919061331d565b50610cb0565b81158015610c78575080155b15610caf576040517f2f44b0a500000000000000000000000000000000000000000000000000000000815260040160405180910390fd5b5b610ccb86868660405180602001604052806000815250611489565b505050505050565b600060036000838152602001908152602001600020549050919050565b6060610cfa611522565b604051602001610d0a91906135e8565b604051602081830303815290604052905090565b6000600160008473ffffffffffffffffffffffffffffffffffffffff1673ffffffffffffffffffffffffffffffffffffffff16815260200190815260200160002060008373ffffffffffffffffffffffffffffffffffffffff1673ffffffffffffffffffffffffffffffffffffffff16815260200190815260200160002060009054906101000a900460ff16905092915050565b6000610dbc611010565b90508073ffffffffffffffffffffffffffffffffffffffff168673ffffffffffffffffffffffffffffffffffffffff1614158015610e015750610dff8682610d1e565b155b15610e455780866040517fe237d922000000000000000000000000000000000000000000000000000000008152600401610e3c929190613105565b60405180910390fd5b610e528686868686611545565b505050505050565b610e626111cc565b600073ffffffffffffffffffffffffffffffffffffffff168173ffffffffffffffffffffffffffffffffffffffff1603610ed45760006040517f1e4fbdf7000000000000000000000000000000000000000000000000000000008152600401610ecb9190612be3565b60405180910390fd5b610edd81611253565b50565b610ee8611010565b73ffffffffffffffffffffffffffffffffffffffff168373ffffffffffffffffffffffffffffffffffffffff1614158015610f315750610f2f83610f2a611010565b610d1e565b155b15610f7c57610f3e611010565b836040517fe237d922000000000000000000000000000000000000000000000000000000008152600401610f73929190613105565b60405180910390fd5b610f87838383611650565b505050565b60007f2a55205a000000000000000000000000000000000000000000000000000000007bffffffffffffffffffffffffffffffffffffffffffffffffffffffff1916827bffffffffffffffffffffffffffffffffffffffffffffffffffffffff19161480610fff5750610ffe826116f7565b5b9050919050565b6000612710905090565b600033905090565b600073ffffffffffffffffffffffffffffffffffffffff168473ffffffffffffffffffffffffffffffffffffffff160361108a5760006040517f57f447ce0000000000000000000000000000000000000000000000000000000081526004016110819190612be3565b60405180910390fd5b600073ffffffffffffffffffffffffffffffffffffffff168573ffffffffffffffffffffffffffffffffffffffff16036110fc5760006040517f01a835140000000000000000000000000000000000000000000000000000000081526004016110f39190612be3565b60405180910390fd5b61110985858585856117d9565b5050505050565b600060208202602084010151905092915050565b600060208202602084010151905092915050565b600073ffffffffffffffffffffffffffffffffffffffff168373ffffffffffffffffffffffffffffffffffffffff16036111aa5760006040517f01a835140000000000000000000000000000000000000000000000000000000081526004016111a19190612be3565b60405180910390fd5b6111c78360008484604051806020016040528060008152506117d9565b505050565b6111d4611010565b73ffffffffffffffffffffffffffffffffffffffff166111f2610b53565b73ffffffffffffffffffffffffffffffffffffffff161461125157611215611010565b6040517f118cdaa70000000000000000000000000000000000000000000000000000000081526004016112489190612be3565b60405180910390fd5b565b6000600760009054906101000a900473ffffffffffffffffffffffffffffffffffffffff16905081600760006101000a81548173ffffffffffffffffffffffffffffffffffffffff021916908373ffffffffffffffffffffffffffffffffffffffff1602179055508173ffffffffffffffffffffffffffffffffffffffff168173ffffffffffffffffffffffffffffffffffffffff167f8be0079c531659141344cd1fd0a4f28419497f9722a3daafe3b4186f6b6457e060405160405180910390a35050565b600073ffffffffffffffffffffffffffffffffffffffff168273ffffffffffffffffffffffffffffffffffffffff160361138b5760006040517fced3e1000000000000000000000000000000000000000000000000000000000081526004016113829190612be3565b60405180910390fd5b80600160008573ffffffffffffffffffffffffffffffffffffffff1673ffffffffffffffffffffffffffffffffffffffff16815260200190815260200160002060008473ffffffffffffffffffffffffffffffffffffffff1673ffffffffffffffffffffffffffffffffffffffff16815260200190815260200160002060006101000a81548160ff0219169083151502179055508173ffffffffffffffffffffffffffffffffffffffff168373ffffffffffffffffffffffffffffffffffffffff167f17307eab39ab6107e8899845ad3d59bd9653f200f220920489ca2b5937696c318360405161147c91906124ff565b60405180910390a3505050565b600073ffffffffffffffffffffffffffffffffffffffff168473ffffffffffffffffffffffffffffffffffffffff16036114fb5760006040517f57f447ce0000000000000000000000000000000000000000000000000000000081526004016114f29190612be3565b60405180910390fd5b600080611508858561188b565b9150915061151a6000878484876117d9565b505050505050565b6060604051806101a0016040528061017581526020016138796101759139905090565b600073ffffffffffffffffffffffffffffffffffffffff168473ffffffffffffffffffffffffffffffffffffffff16036115b75760006040517f57f447ce0000000000000000000000000000000000000000000000000000000081526004016115ae9190612be3565b60405180910390fd5b600073ffffffffffffffffffffffffffffffffffffffff168573ffffffffffffffffffffffffffffffffffffffff16036116295760006040517f01a835140000000000000000000000000000000000000000000000000000000081526004016116209190612be3565b60405180910390fd5b600080611636858561188b565b9150915061164787878484876117d9565b50505050505050565b600073ffffffffffffffffffffffffffffffffffffffff168373ffffffffffffffffffffffffffffffffffffffff16036116c25760006040517f01a835140000000000000000000000000000000000000000000000000000000081526004016116b99190612be3565b60405180910390fd5b6000806116cf848461188b565b915091506116f08560008484604051806020016040528060008152506117d9565b5050505050565b60007fd9b67a26000000000000000000000000000000000000000000000000000000007bffffffffffffffffffffffffffffffffffffffffffffffffffffffff1916827bffffffffffffffffffffffffffffffffffffffffffffffffffffffff191614806117c257507f0e89341c000000000000000000000000000000000000000000000000000000007bffffffffffffffffffffffffffffffffffffffffffffffffffffffff1916827bffffffffffffffffffffffffffffffffffffffffffffffffffffffff1916145b806117d257506117d1826118bb565b5b9050919050565b6117e585858585611925565b600073ffffffffffffffffffffffffffffffffffffffff168473ffffffffffffffffffffffffffffffffffffffff1614611884576000611823611010565b9050600184510361187357600061184460008661112490919063ffffffff16565b9050600061185c60008661112490919063ffffffff16565b905061186c838989858589611a92565b5050611882565b611881818787878787611c46565b5b505b5050505050565b60608060405191506001825283602083015260408201905060018152826020820152604081016040529250929050565b60007f01ffc9a7000000000000000000000000000000000000000000000000000000007bffffffffffffffffffffffffffffffffffffffffffffffffffffffff1916827bffffffffffffffffffffffffffffffffffffffffffffffffffffffff1916149050919050565b600073ffffffffffffffffffffffffffffffffffffffff168373ffffffffffffffffffffffffffffffffffffffff1603611a80576000805b8351811015611a6457600083828151811061197b5761197a613157565b5b6020026020010151905080600a600087858151811061199d5761199c613157565b5b6020026020010151815260200190815260200160002060008282546119c2919061366f565b9250508190555080600960008785815181106119e1576119e0613157565b5b6020026020010151815260200190815260200160002060008973ffffffffffffffffffffffffffffffffffffffff1673ffffffffffffffffffffffffffffffffffffffff1681526020019081526020016000206000828254611a43919061366f565b925050819055508083611a56919061366f565b92505080600101905061195d565b508060086000828254611a77919061366f565b92505081905550505b611a8c84848484611dfa565b50505050565b60008473ffffffffffffffffffffffffffffffffffffffff163b1115611c3e578373ffffffffffffffffffffffffffffffffffffffff1663f23a6e6187878686866040518663ffffffff1660e01b8152600401611af39594939291906136f8565b6020604051808303816000875af1925050508015611b2f57506040513d601f19601f82011682018060405250810190611b2c9190613767565b60015b611bb3573d8060008114611b5f576040519150601f19603f3d011682016040523d82523d6000602084013e611b64565b606091505b506000815103611bab57846040517f57f447ce000000000000000000000000000000000000000000000000000000008152600401611ba29190612be3565b60405180910390fd5b805181602001fd5b63f23a6e6160e01b7bffffffffffffffffffffffffffffffffffffffffffffffffffffffff1916817bffffffffffffffffffffffffffffffffffffffffffffffffffffffff191614611c3c57846040517f57f447ce000000000000000000000000000000000000000000000000000000008152600401611c339190612be3565b60405180910390fd5b505b505050505050565b60008473ffffffffffffffffffffffffffffffffffffffff163b1115611df2578373ffffffffffffffffffffffffffffffffffffffff1663bc197c8187878686866040518663ffffffff1660e01b8152600401611ca7959493929190613794565b6020604051808303816000875af1925050508015611ce357506040513d601f19601f82011682018060405250810190611ce09190613767565b60015b611d67573d8060008114611d13576040519150601f19603f3d011682016040523d82523d6000602084013e611d18565b606091505b506000815103611d5f57846040517f57f447ce000000000000000000000000000000000000000000000000000000008152600401611d569190612be3565b60405180910390fd5b805181602001fd5b63bc197c8160e01b7bffffffffffffffffffffffffffffffffffffffffffffffffffffffff1916817bffffffffffffffffffffffffffffffffffffffffffffffffffffffff191614611df057846040517f57f447ce000000000000000000000000000000000000000000000000000000008152600401611de79190612be3565b60405180910390fd5b505b505050505050565b611e0684848484611fa5565b600073ffffffffffffffffffffffffffffffffffffffff168473ffffffffffffffffffffffffffffffffffffffff1603611ee0576000805b8351811015611ec4576000838281518110611e5c57611e5b613157565b5b602002602001015190508060036000878581518110611e7e57611e7d613157565b5b602002602001015181526020019081526020016000206000828254611ea3919061366f565b925050819055508083611eb6919061366f565b925050806001019050611e3e565b508060046000828254611ed7919061366f565b92505081905550505b600073ffffffffffffffffffffffffffffffffffffffff168373ffffffffffffffffffffffffffffffffffffffff1603611f9f576000805b8351811015611f8c576000838281518110611f3657611f35613157565b5b602002602001015190508060036000878581518110611f5857611f57613157565b5b6020026020010151815260200190815260200160002060008282540392505081905550808301925050806001019050611f18565b5080600460008282540392505081905550505b50505050565b8051825114611fef57815181516040517f5b059991000000000000000000000000000000000000000000000000000000008152600401611fe692919061312e565b60405180910390fd5b6000611ff9611010565b905060005b835181101561220857600061201c828661112490919063ffffffff16565b90506000612033838661112490919063ffffffff16565b9050600073ffffffffffffffffffffffffffffffffffffffff168873ffffffffffffffffffffffffffffffffffffffff161461216057600080600084815260200190815260200160002060008a73ffffffffffffffffffffffffffffffffffffffff1673ffffffffffffffffffffffffffffffffffffffff1681526020019081526020016000205490508181101561210857888183856040517f03dee4c50000000000000000000000000000000000000000000000000000000081526004016120ff94939291906137fc565b60405180910390fd5b81810360008085815260200190815260200160002060008b73ffffffffffffffffffffffffffffffffffffffff1673ffffffffffffffffffffffffffffffffffffffff16815260200190815260200160002081905550505b600073ffffffffffffffffffffffffffffffffffffffff168773ffffffffffffffffffffffffffffffffffffffff16146121fb578060008084815260200190815260200160002060008973ffffffffffffffffffffffffffffffffffffffff1673ffffffffffffffffffffffffffffffffffffffff16815260200190815260200160002060008282546121f3919061366f565b925050819055505b5050806001019050611ffe565b5060018351036122c757600061222860008561112490919063ffffffff16565b9050600061224060008561112490919063ffffffff16565b90508573ffffffffffffffffffffffffffffffffffffffff168773ffffffffffffffffffffffffffffffffffffffff168473ffffffffffffffffffffffffffffffffffffffff167fc3d58168c5ae7397731d063d5bbf3d657854427343f4c083240f7aacaa2d0f6285856040516122b892919061312e565b60405180910390a45050612346565b8373ffffffffffffffffffffffffffffffffffffffff168573ffffffffffffffffffffffffffffffffffffffff168273ffffffffffffffffffffffffffffffffffffffff167f4a39dc06d4c0dbc64b70af90fd698a233a518aa5d07e595d983b8c0526c8f7fb868660405161233d929190613841565b60405180910390a45b5050505050565b6000604051905090565b600080fd5b600080fd5b600073ffffffffffffffffffffffffffffffffffffffff82169050919050565b600061238c82612361565b9050919050565b61239c81612381565b81146123a757600080fd5b50565b6000813590506123b981612393565b92915050565b6000819050919050565b6123d2816123bf565b81146123dd57600080fd5b50565b6000813590506123ef816123c9565b92915050565b6000806040838503121561240c5761240b612357565b5b600061241a858286016123aa565b925050602061242b858286016123e0565b9150509250929050565b61243e816123bf565b82525050565b60006020820190506124596000830184612435565b92915050565b60007fffffffff0000000000000000000000000000000000000000000000000000000082169050919050565b6124948161245f565b811461249f57600080fd5b50565b6000813590506124b18161248b565b92915050565b6000602082840312156124cd576124cc612357565b5b60006124db848285016124a2565b91505092915050565b60008115159050919050565b6124f9816124e4565b82525050565b600060208201905061251460008301846124f0565b92915050565b6000602082840312156125305761252f612357565b5b600061253e848285016123e0565b91505092915050565b600081519050919050565b600082825260208201905092915050565b60005b83811015612581578082015181840152602081019050612566565b60008484015250505050565b6000601f19601f8301169050919050565b60006125a982612547565b6125b38185612552565b93506125c3818560208601612563565b6125cc8161258d565b840191505092915050565b600060208201905081810360008301526125f1818461259e565b905092915050565b600080604083850312156126105761260f612357565b5b600061261e858286016123e0565b925050602061262f858286016123e0565b9150509250929050565b61264281612381565b82525050565b600060408201905061265d6000830185612639565b61266a6020830184612435565b9392505050565b600080fd5b7f4e487b7100000000000000000000000000000000000000000000000000000000600052604160045260246000fd5b6126ae8261258d565b810181811067ffffffffffffffff821117156126cd576126cc612676565b5b80604052505050565b60006126e061234d565b90506126ec82826126a5565b919050565b600067ffffffffffffffff82111561270c5761270b612676565b5b602082029050602081019050919050565b600080fd5b6000612735612730846126f1565b6126d6565b905080838252602082019050602084028301858111156127585761275761271d565b5b835b81811015612781578061276d88826123e0565b84526020840193505060208101905061275a565b5050509392505050565b600082601f8301126127a05761279f612671565b5b81356127b0848260208601612722565b91505092915050565b600080fd5b600067ffffffffffffffff8211156127d9576127d8612676565b5b6127e28261258d565b9050602081019050919050565b82818337600083830152505050565b600061281161280c846127be565b6126d6565b90508281526020810184848401111561282d5761282c6127b9565b5b6128388482856127ef565b509392505050565b600082601f83011261285557612854612671565b5b81356128658482602086016127fe565b91505092915050565b600080600080600060a0868803121561288a57612889612357565b5b6000612898888289016123aa565b95505060206128a9888289016123aa565b945050604086013567ffffffffffffffff8111156128ca576128c961235c565b5b6128d68882890161278b565b935050606086013567ffffffffffffffff8111156128f7576128f661235c565b5b6129038882890161278b565b925050608086013567ffffffffffffffff8111156129245761292361235c565b5b61293088828901612840565b9150509295509295909350565b600067ffffffffffffffff82111561295857612957612676565b5b602082029050602081019050919050565b600061297c6129778461293d565b6126d6565b9050808382526020820190506020840283018581111561299f5761299e61271d565b5b835b818110156129c857806129b488826123aa565b8452602084019350506020810190506129a1565b5050509392505050565b600082601f8301126129e7576129e6612671565b5b81356129f7848260208601612969565b91505092915050565b60008060408385031215612a1757612a16612357565b5b600083013567ffffffffffffffff811115612a3557612a3461235c565b5b612a41858286016129d2565b925050602083013567ffffffffffffffff811115612a6257612a6161235c565b5b612a6e8582860161278b565b9150509250929050565b600081519050919050565b600082825260208201905092915050565b6000819050602082019050919050565b612aad816123bf565b82525050565b6000612abf8383612aa4565b60208301905092915050565b6000602082019050919050565b6000612ae382612a78565b612aed8185612a83565b9350612af883612a94565b8060005b83811015612b29578151612b108882612ab3565b9750612b1b83612acb565b925050600181019050612afc565b5085935050505092915050565b60006020820190508181036000830152612b508184612ad8565b905092915050565b600080600060608486031215612b7157612b70612357565b5b6000612b7f868287016123aa565b935050602084013567ffffffffffffffff811115612ba057612b9f61235c565b5b612bac8682870161278b565b925050604084013567ffffffffffffffff811115612bcd57612bcc61235c565b5b612bd98682870161278b565b9150509250925092565b6000602082019050612bf86000830184612639565b92915050565b612c07816124e4565b8114612c1257600080fd5b50565b600081359050612c2481612bfe565b92915050565b60008060408385031215612c4157612c40612357565b5b6000612c4f858286016123aa565b9250506020612c6085828601612c15565b9150509250929050565b600067ffffffffffffffff821115612c8557612c84612676565b5b612c8e8261258d565b9050602081019050919050565b6000612cae612ca984612c6a565b6126d6565b905082815260208101848484011115612cca57612cc96127b9565b5b612cd58482856127ef565b509392505050565b600082601f830112612cf257612cf1612671565b5b8135612d02848260208601612c9b565b91505092915050565b60008060008060808587031215612d2557612d24612357565b5b6000612d33878288016123aa565b9450506020612d44878288016123e0565b9350506040612d55878288016123e0565b925050606085013567ffffffffffffffff811115612d7657612d7561235c565b5b612d8287828801612cdd565b91505092959194509250565b60008060408385031215612da557612da4612357565b5b6000612db3858286016123aa565b9250506020612dc4858286016123aa565b9150509250929050565b600080600080600060a08688031215612dea57612de9612357565b5b6000612df8888289016123aa565b9550506020612e09888289016123aa565b9450506040612e1a888289016123e0565b9350506060612e2b888289016123e0565b925050608086013567ffffffffffffffff811115612e4c57612e4b61235c565b5b612e5888828901612840565b9150509295509295909350565b600060208284031215612e7b57612e7a612357565b5b6000612e89848285016123aa565b91505092915050565b600080600060608486031215612eab57612eaa612357565b5b6000612eb9868287016123aa565b9350506020612eca868287016123e0565b9250506040612edb868287016123e0565b9150509250925092565b7f646174613a6170706c69636174696f6e2f6a736f6e3b6261736536342c000000815250565b7f4e487b7100000000000000000000000000000000000000000000000000000000600052602260045260246000fd5b60006002820490506001821680612f5257607f821691505b602082108103612f6557612f64612f0b565b5b50919050565b600081905092915050565b60008190508160005260206000209050919050565b60008154612f9881612f3a565b612fa28186612f6b565b94506001821660008114612fbd5760018114612fd257613005565b60ff1983168652811515820286019350613005565b612fdb85612f76565b60005b83811015612ffd57815481890152600182019150602081019050612fde565b838801955050505b50505092915050565b600061301982612ee5565b601d820191506130298284612f8b565b915081905092915050565b7f4e487b7100000000000000000000000000000000000000000000000000000000600052601160045260246000fd5b600061306e826123bf565b9150613079836123bf565b9250828202613087816123bf565b9150828204841483151761309e5761309d613034565b5b5092915050565b7f4e487b7100000000000000000000000000000000000000000000000000000000600052601260045260246000fd5b60006130df826123bf565b91506130ea836123bf565b9250826130fa576130f96130a5565b5b828204905092915050565b600060408201905061311a6000830185612639565b6131276020830184612639565b9392505050565b60006040820190506131436000830185612435565b6131506020830184612435565b9392505050565b7f4e487b7100000000000000000000000000000000000000000000000000000000600052603260045260246000fd5b60006020601f8301049050919050565b600082821b905092915050565b6000600883026131d37fffffffffffffffffffffffffffffffffffffffffffffffffffffffffffffffff82613196565b6131dd8683613196565b95508019841693508086168417925050509392505050565b6000819050919050565b600061321a613215613210846123bf565b6131f5565b6123bf565b9050919050565b6000819050919050565b613234836131ff565b61324861324082613221565b8484546131a3565b825550505050565b600090565b61325d613250565b61326881848461322b565b505050565b5b8181101561328c57613281600082613255565b60018101905061326e565b5050565b601f8211156132d1576132a281612f76565b6132ab84613186565b810160208510156132ba578190505b6132ce6132c685613186565b83018261326d565b50505b505050565b600082821c905092915050565b60006132f4600019846008026132d6565b1980831691505092915050565b600061330d83836132e3565b9150826002028217905092915050565b61332682612547565b67ffffffffffffffff81111561333f5761333e612676565b5b6133498254612f3a565b613354828285613290565b600060209050601f8311600181146133875760008415613375578287015190505b61337f8582613301565b8655506133e7565b601f19841661339586612f76565b60005b828110156133bd57848901518255600182019150602085019450602081019050613398565b868310156133da57848901516133d6601f8916826132e3565b8355505b6001600288020188555050505b505050505050565b7f646174613a6170706c69636174696f6e2f6a736f6e3b757466382c0000000000815250565b7f7b00000000000000000000000000000000000000000000000000000000000000815250565b7f226e616d65223a22436172626f6e5468696e6b2054434f32222c000000000000815250565b7f226465736372697074696f6e223a22436172626f6e5468696e6b2054434f322060008201527f746f6b656e7320636f6c6c656374696f6e2e222c000000000000000000000000602082015250565b60006134bd603483612f6b565b91506134c882613461565b603482019050919050565b7f2265787465726e616c5f6c696e6b223a2268747470733a2f2f616c7972612d6360008201527f6172626f6e7468696e6b2e76657263656c2e6170702f222c0000000000000000602082015250565b600061352f603883612f6b565b915061353a826134d3565b603882019050919050565b7f22696d6167655f64617461223a22000000000000000000000000000000000000815250565b600061357682612547565b6135808185612f6b565b9350613590818560208601612563565b80840191505092915050565b7f2200000000000000000000000000000000000000000000000000000000000000815250565b7f7d00000000000000000000000000000000000000000000000000000000000000815250565b60006135f3826133ef565b601b8201915061360282613415565b6001820191506136118261343b565b601a82019150613620826134b0565b915061362b82613522565b915061363682613545565b600e82019150613646828461356b565b91506136518261359c565b600182019150613660826135c2565b60018201915081905092915050565b600061367a826123bf565b9150613685836123bf565b925082820190508082111561369d5761369c613034565b5b92915050565b600081519050919050565b600082825260208201905092915050565b60006136ca826136a3565b6136d481856136ae565b93506136e4818560208601612563565b6136ed8161258d565b840191505092915050565b600060a08201905061370d6000830188612639565b61371a6020830187612639565b6137276040830186612435565b6137346060830185612435565b818103608083015261374681846136bf565b90509695505050505050565b6000815190506137618161248b565b92915050565b60006020828403121561377d5761377c612357565b5b600061378b84828501613752565b91505092915050565b600060a0820190506137a96000830188612639565b6137b66020830187612639565b81810360408301526137c88186612ad8565b905081810360608301526137dc8185612ad8565b905081810360808301526137f081846136bf565b90509695505050505050565b60006080820190506138116000830187612639565b61381e6020830186612435565b61382b6040830185612435565b6138386060830184612435565b95945050505050565b6000604082019050818103600083015261385b8185612ad8565b9050818103602083015261386f8184612ad8565b9050939250505056fe646174613a696d6167652f7376672b786d6c3b757466382c3c73766720786d6c6e733d27687474703a2f2f7777772e77332e6f72672f323030302f737667272077696474683d2735303027206865696768743d27353030272076696577426f783d27302030203234203234272066696c6c3d27677265656e27207374726f6b653d272330303430303027207374726f6b652d77696474683d273227207374726f6b652d6c696e656361703d27726f756e6427207374726f6b652d6c696e656a6f696e3d27726f756e64273e3c7061746820643d274d31312032304137203720302030203120392e3820362e314331352e35203520313720342e3438203139203263312032203220342e313820322038203020352e352d342e37382031302d31302031305a273e3c2f706174683e3c7061746820643d274d3220323163302d3320312e38352d352e333620352e30382d3643392e352031342e3532203132203133203133203132273e3c2f706174683e3c2f7376673ea2646970667358221220f5693c197c6352cf066786dd974048a4baefa03cbddeede1c195fe04651ec74964736f6c63430008180033",
  "linkReferences": {},
  "deployedLinkReferences": {}
}