{
  "_format": "hh-sol-artifact-1",
  "contractName": "ProjectManager",
  "sourceName": "contracts/ProjectManager.sol",
  "abi": [
    {
      "inputs": [
        {
          "internalType": "address",
          "name": "_initialOwner",
          "type": "address"
        },
        {
          "internalType": "address",
          "name": "_securityFund",
          "type": "address"
        },
        {
          "internalType": "address",
          "name": "_tco2Contract",
          "type": "address"
        }
      ],
      "stateMutability": "nonpayable",
      "type": "constructor"
    },
    {
      "inputs": [],
      "name": "AddressZero",
      "type": "error"
    },
    {
      "inputs": [],
      "name": "CannotChangeProjectState",
      "type": "error"
    },
    {
      "inputs": [],
      "name": "CannotMintZeroToken",
      "type": "error"
    },
    {
      "inputs": [],
      "name": "InactiveProject",
      "type": "error"
    },
    {
      "inputs": [],
      "name": "InvalidMetadata",
      "type": "error"
    },
    {
      "inputs": [],
      "name": "MintOnActiveStatusOnly",
      "type": "error"
    },
    {
      "inputs": [
        {
          "internalType": "address",
          "name": "owner",
          "type": "address"
        }
      ],
      "name": "OwnableInvalidOwner",
      "type": "error"
    },
    {
      "inputs": [
        {
          "internalType": "address",
          "name": "account",
          "type": "address"
        }
      ],
      "name": "OwnableUnauthorizedAccount",
      "type": "error"
    },
    {
      "inputs": [],
      "name": "ProjectDoesNotExist",
      "type": "error"
    },
    {
      "inputs": [],
      "name": "SameStatus",
      "type": "error"
    },
    {
      "anonymous": false,
      "inputs": [
        {
          "indexed": true,
          "internalType": "uint256",
          "name": "projectId",
          "type": "uint256"
        },
        {
          "indexed": true,
          "internalType": "address",
          "name": "account",
          "type": "address"
        }
      ],
      "name": "Created",
      "type": "event"
    },
    {
      "anonymous": false,
      "inputs": [
        {
          "indexed": true,
          "internalType": "uint256",
          "name": "projectId",
          "type": "uint256"
        },
        {
          "indexed": false,
          "internalType": "uint256",
          "name": "index",
          "type": "uint256"
        }
      ],
      "name": "DocumentAdded",
      "type": "event"
    },
    {
      "anonymous": false,
      "inputs": [
        {
          "indexed": true,
          "internalType": "uint256",
          "name": "projectId",
          "type": "uint256"
        },
        {
          "indexed": true,
          "internalType": "address",
          "name": "account",
          "type": "address"
        },
        {
          "indexed": false,
          "internalType": "uint256",
          "name": "amount",
          "type": "uint256"
        }
      ],
      "name": "Minted",
      "type": "event"
    },
    {
      "anonymous": false,
      "inputs": [
        {
          "indexed": true,
          "internalType": "address",
          "name": "previousOwner",
          "type": "address"
        },
        {
          "indexed": true,
          "internalType": "address",
          "name": "newOwner",
          "type": "address"
        }
      ],
      "name": "OwnershipTransferred",
      "type": "event"
    },
    {
      "anonymous": false,
      "inputs": [
        {
          "indexed": true,
          "internalType": "uint256",
          "name": "projectId",
          "type": "uint256"
        },
        {
          "indexed": false,
          "internalType": "uint256",
          "name": "index",
          "type": "uint256"
        }
      ],
      "name": "PhotoAdded",
      "type": "event"
    },
    {
      "anonymous": false,
      "inputs": [
        {
          "indexed": true,
          "internalType": "uint256",
          "name": "projectId",
          "type": "uint256"
        },
        {
          "indexed": true,
          "internalType": "enum ProjectManager.Status",
          "name": "status",
          "type": "uint8"
        }
      ],
      "name": "StatusChanged",
      "type": "event"
    },
    {
      "inputs": [
        {
          "internalType": "uint256",
          "name": "projectId",
          "type": "uint256"
        },
        {
          "internalType": "string",
          "name": "documentUrl",
          "type": "string"
        }
      ],
      "name": "addDocument",
      "outputs": [],
      "stateMutability": "nonpayable",
      "type": "function"
    },
    {
      "inputs": [
        {
          "internalType": "uint256",
          "name": "projectId",
          "type": "uint256"
        },
        {
          "internalType": "string",
          "name": "photoUrl",
          "type": "string"
        }
      ],
      "name": "addPhoto",
      "outputs": [],
      "stateMutability": "nonpayable",
      "type": "function"
    },
    {
      "inputs": [
        {
          "components": [
            {
              "internalType": "address",
              "name": "projectHolder",
              "type": "address"
            },
            {
              "internalType": "string",
              "name": "name",
              "type": "string"
            },
            {
              "internalType": "string",
              "name": "description",
              "type": "string"
            },
            {
              "internalType": "string",
              "name": "externalUrl",
              "type": "string"
            },
            {
              "internalType": "string",
              "name": "image",
              "type": "string"
            },
            {
              "components": [
                {
                  "internalType": "uint8",
                  "name": "duration",
                  "type": "uint8"
                },
                {
                  "internalType": "uint64",
                  "name": "ares",
                  "type": "uint64"
                },
                {
                  "internalType": "uint64",
                  "name": "expectedCo2Tons",
                  "type": "uint64"
                },
                {
                  "internalType": "uint64",
                  "name": "startDate",
                  "type": "uint64"
                },
                {
                  "internalType": "string",
                  "name": "continent",
                  "type": "string"
                },
                {
                  "internalType": "string",
                  "name": "country",
                  "type": "string"
                },
                {
                  "internalType": "string",
                  "name": "region",
                  "type": "string"
                },
                {
                  "internalType": "string",
                  "name": "province",
                  "type": "string"
                },
                {
                  "internalType": "string",
                  "name": "city",
                  "type": "string"
                },
                {
                  "internalType": "string",
                  "name": "location",
                  "type": "string"
                },
                {
                  "internalType": "string",
                  "name": "coordinates",
                  "type": "string"
                },
                {
                  "internalType": "string",
                  "name": "plantedSpecies",
                  "type": "string"
                },
                {
                  "internalType": "string",
                  "name": "calculationMethod",
                  "type": "string"
                },
                {
                  "internalType": "uint8[]",
                  "name": "unSDGs",
                  "type": "uint8[]"
                }
              ],
              "internalType": "struct ProjectManager.ProjectData",
              "name": "data",
              "type": "tuple"
            }
          ],
          "internalType": "struct ProjectManager.CreateParams",
          "name": "newProject",
          "type": "tuple"
        }
      ],
      "name": "create",
      "outputs": [],
      "stateMutability": "nonpayable",
      "type": "function"
    },
    {
      "inputs": [
        {
          "internalType": "uint256",
          "name": "projectId",
          "type": "uint256"
        }
      ],
      "name": "get",
      "outputs": [
        {
          "components": [
            {
              "internalType": "bool",
              "name": "isRegistered",
              "type": "bool"
            },
            {
              "internalType": "address",
              "name": "projectHolder",
              "type": "address"
            },
            {
              "internalType": "uint256",
              "name": "id",
              "type": "uint256"
            },
            {
              "internalType": "string",
              "name": "name",
              "type": "string"
            },
            {
              "internalType": "string",
              "name": "description",
              "type": "string"
            },
            {
              "internalType": "string",
              "name": "externalUrl",
              "type": "string"
            },
            {
              "internalType": "string",
              "name": "image",
              "type": "string"
            },
            {
              "internalType": "string[]",
              "name": "photoUrls",
              "type": "string[]"
            },
            {
              "internalType": "string[]",
              "name": "documentUrls",
              "type": "string[]"
            },
            {
              "components": [
                {
                  "internalType": "uint8",
                  "name": "duration",
                  "type": "uint8"
                },
                {
                  "internalType": "uint64",
                  "name": "ares",
                  "type": "uint64"
                },
                {
                  "internalType": "uint64",
                  "name": "expectedCo2Tons",
                  "type": "uint64"
                },
                {
                  "internalType": "uint64",
                  "name": "startDate",
                  "type": "uint64"
                },
                {
                  "internalType": "string",
                  "name": "continent",
                  "type": "string"
                },
                {
                  "internalType": "string",
                  "name": "country",
                  "type": "string"
                },
                {
                  "internalType": "string",
                  "name": "region",
                  "type": "string"
                },
                {
                  "internalType": "string",
                  "name": "province",
                  "type": "string"
                },
                {
                  "internalType": "string",
                  "name": "city",
                  "type": "string"
                },
                {
                  "internalType": "string",
                  "name": "location",
                  "type": "string"
                },
                {
                  "internalType": "string",
                  "name": "coordinates",
                  "type": "string"
                },
                {
                  "internalType": "string",
                  "name": "plantedSpecies",
                  "type": "string"
                },
                {
                  "internalType": "string",
                  "name": "calculationMethod",
                  "type": "string"
                },
                {
                  "internalType": "uint8[]",
                  "name": "unSDGs",
                  "type": "uint8[]"
                }
              ],
              "internalType": "struct ProjectManager.ProjectData",
              "name": "data",
              "type": "tuple"
            },
            {
              "internalType": "enum ProjectManager.Status",
              "name": "status",
              "type": "uint8"
            }
          ],
          "internalType": "struct ProjectManager.Project",
          "name": "",
          "type": "tuple"
        }
      ],
      "stateMutability": "view",
      "type": "function"
    },
    {
      "inputs": [
        {
          "internalType": "uint256",
          "name": "projectId",
          "type": "uint256"
        },
        {
          "internalType": "uint256",
          "name": "amount",
          "type": "uint256"
        },
        {
          "internalType": "string",
          "name": "base64Metadata",
          "type": "string"
        }
      ],
      "name": "mintTokens",
      "outputs": [],
      "stateMutability": "nonpayable",
      "type": "function"
    },
    {
      "inputs": [],
      "name": "owner",
      "outputs": [
        {
          "internalType": "address",
          "name": "",
          "type": "address"
        }
      ],
      "stateMutability": "view",
      "type": "function"
    },
    {
      "inputs": [],
      "name": "renounceOwnership",
      "outputs": [],
      "stateMutability": "nonpayable",
      "type": "function"
    },
    {
      "inputs": [],
      "name": "securityFund",
      "outputs": [
        {
          "internalType": "address",
          "name": "",
          "type": "address"
        }
      ],
      "stateMutability": "view",
      "type": "function"
    },
    {
      "inputs": [
        {
          "internalType": "uint256",
          "name": "projectId",
          "type": "uint256"
        },
        {
          "internalType": "enum ProjectManager.Status",
          "name": "status",
          "type": "uint8"
        }
      ],
      "name": "setStatus",
      "outputs": [],
      "stateMutability": "nonpayable",
      "type": "function"
    },
    {
      "inputs": [],
      "name": "tco2Contract",
      "outputs": [
        {
          "internalType": "contract TCO2",
          "name": "",
          "type": "address"
        }
      ],
      "stateMutability": "view",
      "type": "function"
    },
    {
      "inputs": [],
      "name": "totalProjects",
      "outputs": [
        {
          "internalType": "uint256",
          "name": "",
          "type": "uint256"
        }
      ],
      "stateMutability": "view",
      "type": "function"
    },
    {
      "inputs": [
        {
          "internalType": "address",
          "name": "newOwner",
          "type": "address"
        }
      ],
      "name": "transferOwnership",
      "outputs": [],
      "stateMutability": "nonpayable",
      "type": "function"
    }
  ],
  "bytecode": "0x60c06040523480156200001157600080fd5b5060405162003b0738038062003b078339818101604052810190620000379190620002fe565b82600073ffffffffffffffffffffffffffffffffffffffff168173ffffffffffffffffffffffffffffffffffffffff1603620000ad5760006040517f1e4fbdf7000000000000000000000000000000000000000000000000000000008152600401620000a491906200036b565b60405180910390fd5b620000be81620001d060201b60201c565b50600073ffffffffffffffffffffffffffffffffffffffff168273ffffffffffffffffffffffffffffffffffffffff161480620001275750600073ffffffffffffffffffffffffffffffffffffffff168173ffffffffffffffffffffffffffffffffffffffff16145b156200015f576040517f9fabe1c100000000000000000000000000000000000000000000000000000000815260040160405180910390fd5b8073ffffffffffffffffffffffffffffffffffffffff1660a08173ffffffffffffffffffffffffffffffffffffffff16815250508173ffffffffffffffffffffffffffffffffffffffff1660808173ffffffffffffffffffffffffffffffffffffffff168152505050505062000388565b60008060009054906101000a900473ffffffffffffffffffffffffffffffffffffffff169050816000806101000a81548173ffffffffffffffffffffffffffffffffffffffff021916908373ffffffffffffffffffffffffffffffffffffffff1602179055508173ffffffffffffffffffffffffffffffffffffffff168173ffffffffffffffffffffffffffffffffffffffff167f8be0079c531659141344cd1fd0a4f28419497f9722a3daafe3b4186f6b6457e060405160405180910390a35050565b600080fd5b600073ffffffffffffffffffffffffffffffffffffffff82169050919050565b6000620002c68262000299565b9050919050565b620002d881620002b9565b8114620002e457600080fd5b50565b600081519050620002f881620002cd565b92915050565b6000806000606084860312156200031a576200031962000294565b5b60006200032a86828701620002e7565b93505060206200033d86828701620002e7565b92505060406200035086828701620002e7565b9150509250925092565b6200036581620002b9565b82525050565b60006020820190506200038260008301846200035a565b92915050565b60805160a051613736620003d1600039600081816118a6015281816119ee01528181611bff0152611cb101526000818161167a01528181611b8f0152611ced01526137366000f3fe608060405234801561001057600080fd5b50600436106100b45760003560e01c80639c361e4e116100715780639c361e4e14610165578063d5fa2e8014610183578063d896dd64146101a1578063db0a0ba7146101bd578063f04009b9146101db578063f2fde38b146101f7576100b4565b806303083f92146100b9578063715018a6146100d557806381dac842146100df5780638bfb1d07146100fb5780638da5cb5b146101175780639507d39a14610135575b600080fd5b6100d360048036038101906100ce9190612409565b610213565b005b6100dd6103b7565b005b6100f960048036038101906100f491906129a0565b6103cb565b005b61011560048036038101906101109190612409565b610903565b005b61011f610aa7565b60405161012c91906129f8565b60405180910390f35b61014f600480360381019061014a9190612a13565b610ad0565b60405161015c9190612f84565b60405180910390f35b61016d611672565b60405161017a9190612fb5565b60405180910390f35b61018b611678565b60405161019891906129f8565b60405180910390f35b6101bb60048036038101906101b69190612ff5565b61169c565b005b6101c56118a4565b6040516101d29190613094565b60405180910390f35b6101f560048036038101906101f091906130af565b6118c8565b005b610211600480360381019061020c919061311e565b611d6b565b005b61021b611df1565b816002600082815260200190815260200160002060000160009054906101000a900460ff16610276576040517f38fde52b00000000000000000000000000000000000000000000000000000000815260040160405180910390fd5b8260006002600083815260200190815260200160002060130160009054906101000a900460ff169050600060038111156102b3576102b2612df4565b5b8160038111156102c6576102c5612df4565b5b14806102f557506003808111156102e0576102df612df4565b5b8160038111156102f3576102f2612df4565b5b145b1561032c576040517f2076c6f700000000000000000000000000000000000000000000000000000000815260040160405180910390fd5b600061033786611e78565b9050857f37ddaeaef11383d4103aae327e269ca648a3bde2588b6c86ba50dee8a0e9fb7982600601805490506040516103709190612fb5565b60405180910390a280600601859080600181540180825580915050600190039060005260206000200160009091909190915090816103ae919061334d565b50505050505050565b6103bf611df1565b6103c96000611e94565b565b6103d3611df1565b60008067ffffffffffffffff8111156103ef576103ee6122de565b5b60405190808252806020026020018201604052801561042257816020015b606081526020019060019003908161040d5790505b5090506000604051806101c001604052808460a001516000015160ff1681526020018460a001516020015167ffffffffffffffff1681526020018460a001516040015167ffffffffffffffff1681526020018460a001516060015167ffffffffffffffff1681526020018460a001516080015181526020018460a0015160a0015181526020018460a0015160c0015181526020018460a0015160e0015181526020018460a00151610100015181526020018460a00151610120015181526020018460a00151610140015181526020018460a00151610160015181526020018460a00151610180015181526020018460a001516101a001518152509050604051806101600160405280600115158152602001846000015173ffffffffffffffffffffffffffffffffffffffff168152602001600154815260200184602001518152602001846040015181526020018460600151815260200184608001518152602001838152602001838152602001828152602001600160038111156105a9576105a8612df4565b5b81525060026000600154815260200190815260200160002060008201518160000160006101000a81548160ff02191690831515021790555060208201518160000160016101000a81548173ffffffffffffffffffffffffffffffffffffffff021916908373ffffffffffffffffffffffffffffffffffffffff160217905550604082015181600101556060820151816002019081610647919061334d565b50608082015181600301908161065d919061334d565b5060a0820151816004019081610673919061334d565b5060c0820151816005019081610689919061334d565b5060e08201518160060190805190602001906106a6929190611fde565b506101008201518160070190805190602001906106c4929190611fde565b506101208201518160080160008201518160000160006101000a81548160ff021916908360ff16021790555060208201518160000160016101000a81548167ffffffffffffffff021916908367ffffffffffffffff16021790555060408201518160000160096101000a81548167ffffffffffffffff021916908367ffffffffffffffff16021790555060608201518160000160116101000a81548167ffffffffffffffff021916908367ffffffffffffffff1602179055506080820151816001019081610792919061334d565b5060a08201518160020190816107a8919061334d565b5060c08201518160030190816107be919061334d565b5060e08201518160040190816107d4919061334d565b506101008201518160050190816107eb919061334d565b50610120820151816006019081610802919061334d565b50610140820151816007019081610819919061334d565b50610160820151816008019081610830919061334d565b50610180820151816009019081610847919061334d565b506101a082015181600a019080519060200190610865929190612037565b5050506101408201518160130160006101000a81548160ff0219169083600381111561089457610893612df4565b5b0217905550905050826000015173ffffffffffffffffffffffffffffffffffffffff166001547f7757890bcab34d673dfca6b71df1b57f75a2fe4231d6e8de726caf534ab1fdd660405160405180910390a3600160008154809291906108f99061344e565b9190505550505050565b61090b611df1565b816002600082815260200190815260200160002060000160009054906101000a900460ff16610966576040517f38fde52b00000000000000000000000000000000000000000000000000000000815260040160405180910390fd5b8260006002600083815260200190815260200160002060130160009054906101000a900460ff169050600060038111156109a3576109a2612df4565b5b8160038111156109b6576109b5612df4565b5b14806109e557506003808111156109d0576109cf612df4565b5b8160038111156109e3576109e2612df4565b5b145b15610a1c576040517f2076c6f700000000000000000000000000000000000000000000000000000000815260040160405180910390fd5b6000610a2786611e78565b9050857f97ae81f09ec3c6f5e65c7088d60fdbf0a931ed2f713edf58ea690e9e605c5ba18260070180549050604051610a609190612fb5565b60405180910390a28060070185908060018154018082558091505060019003906000526020600020016000909190919091509081610a9e919061334d565b50505050505050565b60008060009054906101000a900473ffffffffffffffffffffffffffffffffffffffff16905090565b610ad86120de565b816002600082815260200190815260200160002060000160009054906101000a900460ff16610b33576040517f38fde52b00000000000000000000000000000000000000000000000000000000815260040160405180910390fd5b60026000848152602001908152602001600020604051806101600160405290816000820160009054906101000a900460ff161515151581526020016000820160019054906101000a900473ffffffffffffffffffffffffffffffffffffffff1673ffffffffffffffffffffffffffffffffffffffff1673ffffffffffffffffffffffffffffffffffffffff16815260200160018201548152602001600282018054610bdd9061317a565b80601f0160208091040260200160405190810160405280929190818152602001828054610c099061317a565b8015610c565780601f10610c2b57610100808354040283529160200191610c56565b820191906000526020600020905b815481529060010190602001808311610c3957829003601f168201915b50505050508152602001600382018054610c6f9061317a565b80601f0160208091040260200160405190810160405280929190818152602001828054610c9b9061317a565b8015610ce85780601f10610cbd57610100808354040283529160200191610ce8565b820191906000526020600020905b815481529060010190602001808311610ccb57829003601f168201915b50505050508152602001600482018054610d019061317a565b80601f0160208091040260200160405190810160405280929190818152602001828054610d2d9061317a565b8015610d7a5780601f10610d4f57610100808354040283529160200191610d7a565b820191906000526020600020905b815481529060010190602001808311610d5d57829003601f168201915b50505050508152602001600582018054610d939061317a565b80601f0160208091040260200160405190810160405280929190818152602001828054610dbf9061317a565b8015610e0c5780601f10610de157610100808354040283529160200191610e0c565b820191906000526020600020905b815481529060010190602001808311610def57829003601f168201915b5050505050815260200160068201805480602002602001604051908101604052809291908181526020016000905b82821015610ee6578382906000526020600020018054610e599061317a565b80601f0160208091040260200160405190810160405280929190818152602001828054610e859061317a565b8015610ed25780601f10610ea757610100808354040283529160200191610ed2565b820191906000526020600020905b815481529060010190602001808311610eb557829003601f168201915b505050505081526020019060010190610e3a565b50505050815260200160078201805480602002602001604051908101604052809291908181526020016000905b82821015610fbf578382906000526020600020018054610f329061317a565b80601f0160208091040260200160405190810160405280929190818152602001828054610f5e9061317a565b8015610fab5780601f10610f8057610100808354040283529160200191610fab565b820191906000526020600020905b815481529060010190602001808311610f8e57829003601f168201915b505050505081526020019060010190610f13565b50505050815260200160088201604051806101c00160405290816000820160009054906101000a900460ff1660ff1660ff1681526020016000820160019054906101000a900467ffffffffffffffff1667ffffffffffffffff1667ffffffffffffffff1681526020016000820160099054906101000a900467ffffffffffffffff1667ffffffffffffffff1667ffffffffffffffff1681526020016000820160119054906101000a900467ffffffffffffffff1667ffffffffffffffff1667ffffffffffffffff16815260200160018201805461109b9061317a565b80601f01602080910402602001604051908101604052809291908181526020018280546110c79061317a565b80156111145780601f106110e957610100808354040283529160200191611114565b820191906000526020600020905b8154815290600101906020018083116110f757829003601f168201915b5050505050815260200160028201805461112d9061317a565b80601f01602080910402602001604051908101604052809291908181526020018280546111599061317a565b80156111a65780601f1061117b576101008083540402835291602001916111a6565b820191906000526020600020905b81548152906001019060200180831161118957829003601f168201915b505050505081526020016003820180546111bf9061317a565b80601f01602080910402602001604051908101604052809291908181526020018280546111eb9061317a565b80156112385780601f1061120d57610100808354040283529160200191611238565b820191906000526020600020905b81548152906001019060200180831161121b57829003601f168201915b505050505081526020016004820180546112519061317a565b80601f016020809104026020016040519081016040528092919081815260200182805461127d9061317a565b80156112ca5780601f1061129f576101008083540402835291602001916112ca565b820191906000526020600020905b8154815290600101906020018083116112ad57829003601f168201915b505050505081526020016005820180546112e39061317a565b80601f016020809104026020016040519081016040528092919081815260200182805461130f9061317a565b801561135c5780601f106113315761010080835404028352916020019161135c565b820191906000526020600020905b81548152906001019060200180831161133f57829003601f168201915b505050505081526020016006820180546113759061317a565b80601f01602080910402602001604051908101604052809291908181526020018280546113a19061317a565b80156113ee5780601f106113c3576101008083540402835291602001916113ee565b820191906000526020600020905b8154815290600101906020018083116113d157829003601f168201915b505050505081526020016007820180546114079061317a565b80601f01602080910402602001604051908101604052809291908181526020018280546114339061317a565b80156114805780601f1061145557610100808354040283529160200191611480565b820191906000526020600020905b81548152906001019060200180831161146357829003601f168201915b505050505081526020016008820180546114999061317a565b80601f01602080910402602001604051908101604052809291908181526020018280546114c59061317a565b80156115125780601f106114e757610100808354040283529160200191611512565b820191906000526020600020905b8154815290600101906020018083116114f557829003601f168201915b5050505050815260200160098201805461152b9061317a565b80601f01602080910402602001604051908101604052809291908181526020018280546115579061317a565b80156115a45780601f10611579576101008083540402835291602001916115a4565b820191906000526020600020905b81548152906001019060200180831161158757829003601f168201915b50505050508152602001600a820180548060200260200160405190810160405280929190818152602001828054801561162257602002820191906000526020600020906000905b82829054906101000a900460ff1660ff16815260200190600101906020826000010492830192600103820291508084116115eb5790505b50505050508152505081526020016013820160009054906101000a900460ff16600381111561165457611653612df4565b5b600381111561166657611665612df4565b5b81525050915050919050565b60015481565b7f000000000000000000000000000000000000000000000000000000000000000081565b6116a4611df1565b816002600082815260200190815260200160002060000160009054906101000a900460ff166116ff576040517f38fde52b00000000000000000000000000000000000000000000000000000000815260040160405180910390fd5b8260006002600083815260200190815260200160002060130160009054906101000a900460ff1690506000600381111561173c5761173b612df4565b5b81600381111561174f5761174e612df4565b5b148061177e575060038081111561176957611768612df4565b5b81600381111561177c5761177b612df4565b5b145b156117b5576040517f2076c6f700000000000000000000000000000000000000000000000000000000815260040160405180910390fd5b60006117c086611e78565b90508460038111156117d5576117d4612df4565b5b8160130160009054906101000a900460ff1660038111156117f9576117f8612df4565b5b03611830576040517f24904fe500000000000000000000000000000000000000000000000000000000815260040160405180910390fd5b848160130160006101000a81548160ff0219169083600381111561185757611856612df4565b5b021790555084600381111561186f5761186e612df4565b5b867f365a3d0a71be5f440c8224437355d5bd81a703759bf906e441902272bfbafcb360405160405180910390a3505050505050565b7f000000000000000000000000000000000000000000000000000000000000000081565b6118d0611df1565b826002600082815260200190815260200160002060000160009054906101000a900460ff1661192b576040517f38fde52b00000000000000000000000000000000000000000000000000000000815260040160405180910390fd5b60008303611965576040517f6786560c00000000000000000000000000000000000000000000000000000000815260040160405180910390fd5b60006002600086815260200190815260200160002060130160009054906101000a900460ff169050600260038111156119a1576119a0612df4565b5b8160038111156119b4576119b3612df4565b5b146119ea576040517e3f886d00000000000000000000000000000000000000000000000000000000815260040160405180910390fd5b60007f000000000000000000000000000000000000000000000000000000000000000073ffffffffffffffffffffffffffffffffffffffff16634f558e79876040518263ffffffff1660e01b8152600401611a459190612fb5565b602060405180830381865afa158015611a62573d6000803e3d6000fd5b505050506040513d601f19601f82011682018060405250810190611a8691906134c2565b159050808015611a97575060008451145b80611aad575080158015611aac575060008451115b5b15611ae4576040517fbcecb64a00000000000000000000000000000000000000000000000000000000815260040160405180910390fd5b600080611af2876014611f58565b91509150600080821190506000600260008b815260200190815260200160002060000160019054906101000a900473ffffffffffffffffffffffffffffffffffffffff1690508073ffffffffffffffffffffffffffffffffffffffff168a7fc9d0543a84d3510329c0783b91576878ceb484e8699944cb5610c3436b3b8e3986604051611b7f9190612fb5565b60405180910390a38115611bfd577f000000000000000000000000000000000000000000000000000000000000000073ffffffffffffffffffffffffffffffffffffffff168a7fc9d0543a84d3510329c0783b91576878ceb484e8699944cb5610c3436b3b8e3985604051611bf49190612fb5565b60405180910390a35b7f000000000000000000000000000000000000000000000000000000000000000073ffffffffffffffffffffffffffffffffffffffff1663bb7fde71828c8789611c565760405180602001604052806000815250611c58565b8c5b6040518563ffffffff1660e01b8152600401611c779493929190613539565b600060405180830381600087803b158015611c9157600080fd5b505af1158015611ca5573d6000803e3d6000fd5b505050508115611d5f577f000000000000000000000000000000000000000000000000000000000000000073ffffffffffffffffffffffffffffffffffffffff1663bb7fde717f00000000000000000000000000000000000000000000000000000000000000008c866040518463ffffffff1660e01b8152600401611d2c939291906135ab565b600060405180830381600087803b158015611d4657600080fd5b505af1158015611d5a573d6000803e3d6000fd5b505050505b50505050505050505050565b611d73611df1565b600073ffffffffffffffffffffffffffffffffffffffff168173ffffffffffffffffffffffffffffffffffffffff1603611de55760006040517f1e4fbdf7000000000000000000000000000000000000000000000000000000008152600401611ddc91906129f8565b60405180910390fd5b611dee81611e94565b50565b611df9611fd6565b73ffffffffffffffffffffffffffffffffffffffff16611e17610aa7565b73ffffffffffffffffffffffffffffffffffffffff1614611e7657611e3a611fd6565b6040517f118cdaa7000000000000000000000000000000000000000000000000000000008152600401611e6d91906129f8565b60405180910390fd5b565b6000600260008381526020019081526020016000209050919050565b60008060009054906101000a900473ffffffffffffffffffffffffffffffffffffffff169050816000806101000a81548173ffffffffffffffffffffffffffffffffffffffff021916908373ffffffffffffffffffffffffffffffffffffffff1602179055508173ffffffffffffffffffffffffffffffffffffffff168173ffffffffffffffffffffffffffffffffffffffff167f8be0079c531659141344cd1fd0a4f28419497f9722a3daafe3b4186f6b6457e060405160405180910390a35050565b60008060006064846064611f6c91906135f5565b60ff1686611f7a919061362a565b611f84919061369b565b9050600060648560ff1687611f99919061362a565b611fa3919061369b565b90508082611fb191906136cc565b861115611fc7578180611fc39061344e565b9250505b81819350935050509250929050565b600033905090565b828054828255906000526020600020908101928215612026579160200282015b82811115612025578251829081612015919061334d565b5091602001919060010190611ffe565b5b5090506120339190612168565b5090565b82805482825590600052602060002090601f016020900481019282156120cd5791602002820160005b8382111561209e57835183826101000a81548160ff021916908360ff1602179055509260200192600101602081600001049283019260010302612060565b80156120cb5782816101000a81549060ff021916905560010160208160000104928301926001030261209e565b505b5090506120da919061218c565b5090565b604051806101600160405280600015158152602001600073ffffffffffffffffffffffffffffffffffffffff168152602001600081526020016060815260200160608152602001606081526020016060815260200160608152602001606081526020016121496121a9565b81526020016000600381111561216257612161612df4565b5b81525090565b5b80821115612188576000818161217f9190612239565b50600101612169565b5090565b5b808211156121a557600081600090555060010161218d565b5090565b604051806101c00160405280600060ff168152602001600067ffffffffffffffff168152602001600067ffffffffffffffff168152602001600067ffffffffffffffff168152602001606081526020016060815260200160608152602001606081526020016060815260200160608152602001606081526020016060815260200160608152602001606081525090565b5080546122459061317a565b6000825580601f106122575750612276565b601f016020900490600052602060002090810190612275919061218c565b5b50565b6000604051905090565b600080fd5b600080fd5b6000819050919050565b6122a08161228d565b81146122ab57600080fd5b50565b6000813590506122bd81612297565b92915050565b600080fd5b600080fd5b6000601f19601f8301169050919050565b7f4e487b7100000000000000000000000000000000000000000000000000000000600052604160045260246000fd5b612316826122cd565b810181811067ffffffffffffffff82111715612335576123346122de565b5b80604052505050565b6000612348612279565b9050612354828261230d565b919050565b600067ffffffffffffffff821115612374576123736122de565b5b61237d826122cd565b9050602081019050919050565b82818337600083830152505050565b60006123ac6123a784612359565b61233e565b9050828152602081018484840111156123c8576123c76122c8565b5b6123d384828561238a565b509392505050565b600082601f8301126123f0576123ef6122c3565b5b8135612400848260208601612399565b91505092915050565b600080604083850312156124205761241f612283565b5b600061242e858286016122ae565b925050602083013567ffffffffffffffff81111561244f5761244e612288565b5b61245b858286016123db565b9150509250929050565b600080fd5b600080fd5b600073ffffffffffffffffffffffffffffffffffffffff82169050919050565b600061249a8261246f565b9050919050565b6124aa8161248f565b81146124b557600080fd5b50565b6000813590506124c7816124a1565b92915050565b600060ff82169050919050565b6124e3816124cd565b81146124ee57600080fd5b50565b600081359050612500816124da565b92915050565b600067ffffffffffffffff82169050919050565b61252381612506565b811461252e57600080fd5b50565b6000813590506125408161251a565b92915050565b600067ffffffffffffffff821115612561576125606122de565b5b602082029050602081019050919050565b600080fd5b600061258a61258584612546565b61233e565b905080838252602082019050602084028301858111156125ad576125ac612572565b5b835b818110156125d657806125c288826124f1565b8452602084019350506020810190506125af565b5050509392505050565b600082601f8301126125f5576125f46122c3565b5b8135612605848260208601612577565b91505092915050565b60006101c0828403121561262557612624612465565b5b6126306101c061233e565b90506000612640848285016124f1565b600083015250602061265484828501612531565b602083015250604061266884828501612531565b604083015250606061267c84828501612531565b606083015250608082013567ffffffffffffffff8111156126a05761269f61246a565b5b6126ac848285016123db565b60808301525060a082013567ffffffffffffffff8111156126d0576126cf61246a565b5b6126dc848285016123db565b60a08301525060c082013567ffffffffffffffff811115612700576126ff61246a565b5b61270c848285016123db565b60c08301525060e082013567ffffffffffffffff8111156127305761272f61246a565b5b61273c848285016123db565b60e08301525061010082013567ffffffffffffffff8111156127615761276061246a565b5b61276d848285016123db565b6101008301525061012082013567ffffffffffffffff8111156127935761279261246a565b5b61279f848285016123db565b6101208301525061014082013567ffffffffffffffff8111156127c5576127c461246a565b5b6127d1848285016123db565b6101408301525061016082013567ffffffffffffffff8111156127f7576127f661246a565b5b612803848285016123db565b6101608301525061018082013567ffffffffffffffff8111156128295761282861246a565b5b612835848285016123db565b610180830152506101a082013567ffffffffffffffff81111561285b5761285a61246a565b5b612867848285016125e0565b6101a08301525092915050565b600060c0828403121561288a57612889612465565b5b61289460c061233e565b905060006128a4848285016124b8565b600083015250602082013567ffffffffffffffff8111156128c8576128c761246a565b5b6128d4848285016123db565b602083015250604082013567ffffffffffffffff8111156128f8576128f761246a565b5b612904848285016123db565b604083015250606082013567ffffffffffffffff8111156129285761292761246a565b5b612934848285016123db565b606083015250608082013567ffffffffffffffff8111156129585761295761246a565b5b612964848285016123db565b60808301525060a082013567ffffffffffffffff8111156129885761298761246a565b5b6129948482850161260e565b60a08301525092915050565b6000602082840312156129b6576129b5612283565b5b600082013567ffffffffffffffff8111156129d4576129d3612288565b5b6129e084828501612874565b91505092915050565b6129f28161248f565b82525050565b6000602082019050612a0d60008301846129e9565b92915050565b600060208284031215612a2957612a28612283565b5b6000612a37848285016122ae565b91505092915050565b60008115159050919050565b612a5581612a40565b82525050565b612a648161248f565b82525050565b612a738161228d565b82525050565b600081519050919050565b600082825260208201905092915050565b60005b83811015612ab3578082015181840152602081019050612a98565b60008484015250505050565b6000612aca82612a79565b612ad48185612a84565b9350612ae4818560208601612a95565b612aed816122cd565b840191505092915050565b600081519050919050565b600082825260208201905092915050565b6000819050602082019050919050565b6000612b308383612abf565b905092915050565b6000602082019050919050565b6000612b5082612af8565b612b5a8185612b03565b935083602082028501612b6c85612b14565b8060005b85811015612ba85784840389528151612b898582612b24565b9450612b9483612b38565b925060208a01995050600181019050612b70565b50829750879550505050505092915050565b612bc3816124cd565b82525050565b612bd281612506565b82525050565b600081519050919050565b600082825260208201905092915050565b6000819050602082019050919050565b6000612c108383612bba565b60208301905092915050565b6000602082019050919050565b6000612c3482612bd8565b612c3e8185612be3565b9350612c4983612bf4565b8060005b83811015612c7a578151612c618882612c04565b9750612c6c83612c1c565b925050600181019050612c4d565b5085935050505092915050565b60006101c083016000830151612ca06000860182612bba565b506020830151612cb36020860182612bc9565b506040830151612cc66040860182612bc9565b506060830151612cd96060860182612bc9565b5060808301518482036080860152612cf18282612abf565b91505060a083015184820360a0860152612d0b8282612abf565b91505060c083015184820360c0860152612d258282612abf565b91505060e083015184820360e0860152612d3f8282612abf565b915050610100830151848203610100860152612d5b8282612abf565b915050610120830151848203610120860152612d778282612abf565b915050610140830151848203610140860152612d938282612abf565b915050610160830151848203610160860152612daf8282612abf565b915050610180830151848203610180860152612dcb8282612abf565b9150506101a08301518482036101a0860152612de78282612c29565b9150508091505092915050565b7f4e487b7100000000000000000000000000000000000000000000000000000000600052602160045260246000fd5b60048110612e3457612e33612df4565b5b50565b6000819050612e4582612e23565b919050565b6000612e5582612e37565b9050919050565b612e6581612e4a565b82525050565b600061016083016000830151612e846000860182612a4c565b506020830151612e976020860182612a5b565b506040830151612eaa6040860182612a6a565b5060608301518482036060860152612ec28282612abf565b91505060808301518482036080860152612edc8282612abf565b91505060a083015184820360a0860152612ef68282612abf565b91505060c083015184820360c0860152612f108282612abf565b91505060e083015184820360e0860152612f2a8282612b45565b915050610100830151848203610100860152612f468282612b45565b915050610120830151848203610120860152612f628282612c87565b915050610140830151612f79610140860182612e5c565b508091505092915050565b60006020820190508181036000830152612f9e8184612e6b565b905092915050565b612faf8161228d565b82525050565b6000602082019050612fca6000830184612fa6565b92915050565b60048110612fdd57600080fd5b50565b600081359050612fef81612fd0565b92915050565b6000806040838503121561300c5761300b612283565b5b600061301a858286016122ae565b925050602061302b85828601612fe0565b9150509250929050565b6000819050919050565b600061305a6130556130508461246f565b613035565b61246f565b9050919050565b600061306c8261303f565b9050919050565b600061307e82613061565b9050919050565b61308e81613073565b82525050565b60006020820190506130a96000830184613085565b92915050565b6000806000606084860312156130c8576130c7612283565b5b60006130d6868287016122ae565b93505060206130e7868287016122ae565b925050604084013567ffffffffffffffff81111561310857613107612288565b5b613114868287016123db565b9150509250925092565b60006020828403121561313457613133612283565b5b6000613142848285016124b8565b91505092915050565b7f4e487b7100000000000000000000000000000000000000000000000000000000600052602260045260246000fd5b6000600282049050600182168061319257607f821691505b6020821081036131a5576131a461314b565b5b50919050565b60008190508160005260206000209050919050565b60006020601f8301049050919050565b600082821b905092915050565b60006008830261320d7fffffffffffffffffffffffffffffffffffffffffffffffffffffffffffffffff826131d0565b61321786836131d0565b95508019841693508086168417925050509392505050565b600061324a6132456132408461228d565b613035565b61228d565b9050919050565b6000819050919050565b6132648361322f565b61327861327082613251565b8484546131dd565b825550505050565b600090565b61328d613280565b61329881848461325b565b505050565b5b818110156132bc576132b1600082613285565b60018101905061329e565b5050565b601f821115613301576132d2816131ab565b6132db846131c0565b810160208510156132ea578190505b6132fe6132f6856131c0565b83018261329d565b50505b505050565b600082821c905092915050565b600061332460001984600802613306565b1980831691505092915050565b600061333d8383613313565b9150826002028217905092915050565b61335682612a79565b67ffffffffffffffff81111561336f5761336e6122de565b5b613379825461317a565b6133848282856132c0565b600060209050601f8311600181146133b757600084156133a5578287015190505b6133af8582613331565b865550613417565b601f1984166133c5866131ab565b60005b828110156133ed578489015182556001820191506020850194506020810190506133c8565b8683101561340a5784890151613406601f891682613313565b8355505b6001600288020188555050505b505050505050565b7f4e487b7100000000000000000000000000000000000000000000000000000000600052601160045260246000fd5b60006134598261228d565b91507fffffffffffffffffffffffffffffffffffffffffffffffffffffffffffffffff820361348b5761348a61341f565b5b600182019050919050565b61349f81612a40565b81146134aa57600080fd5b50565b6000815190506134bc81613496565b92915050565b6000602082840312156134d8576134d7612283565b5b60006134e6848285016134ad565b91505092915050565b600082825260208201905092915050565b600061350b82612a79565b61351581856134ef565b9350613525818560208601612a95565b61352e816122cd565b840191505092915050565b600060808201905061354e60008301876129e9565b61355b6020830186612fa6565b6135686040830185612fa6565b818103606083015261357a8184613500565b905095945050505050565b50565b60006135956000836134ef565b91506135a082613585565b600082019050919050565b60006080820190506135c060008301866129e9565b6135cd6020830185612fa6565b6135da6040830184612fa6565b81810360608301526135eb81613588565b9050949350505050565b6000613600826124cd565b915061360b836124cd565b9250828203905060ff8111156136245761362361341f565b5b92915050565b60006136358261228d565b91506136408361228d565b925082820261364e8161228d565b915082820484148315176136655761366461341f565b5b5092915050565b7f4e487b7100000000000000000000000000000000000000000000000000000000600052601260045260246000fd5b60006136a68261228d565b91506136b18361228d565b9250826136c1576136c061366c565b5b828204905092915050565b60006136d78261228d565b91506136e28361228d565b92508282019050808211156136fa576136f961341f565b5b9291505056fea264697066735822122050cf8e7b78b8409d2691b990c7f61c65fcb01c5a985b1420e061c365bbce4e0864736f6c63430008180033",
  "linkReferences": {},
  "deployedLinkReferences": {}
}