{
  "_format": "hh-sol-artifact-1",
  "contractName": "TCO2",
  "sourceName": "contracts/TCO2.sol",
  "abi": [
    {
      "inputs": [
        {
          "internalType": "address",
          "name": "initialOwner",
          "type": "address"
        },
        {
          "internalType": "address",
          "name": "royaltiesAddress",
          "type": "address"
        }
      ],
      "stateMutability": "nonpayable",
      "type": "constructor"
    },
    {
      "inputs": [
        {
          "internalType": "address",
          "name": "sender",
          "type": "address"
        },
        {
          "internalType": "uint256",
          "name": "balance",
          "type": "uint256"
        },
        {
          "internalType": "uint256",
          "name": "needed",
          "type": "uint256"
        },
        {
          "internalType": "uint256",
          "name": "tokenId",
          "type": "uint256"
        }
      ],
      "name": "ERC1155InsufficientBalance",
      "type": "error"
    },
    {
      "inputs": [
        {
          "internalType": "address",
          "name": "approver",
          "type": "address"
        }
      ],
      "name": "ERC1155InvalidApprover",
      "type": "error"
    },
    {
      "inputs": [
        {
          "internalType": "uint256",
          "name": "idsLength",
          "type": "uint256"
        },
        {
          "internalType": "uint256",
          "name": "valuesLength",
          "type": "uint256"
        }
      ],
      "name": "ERC1155InvalidArrayLength",
      "type": "error"
    },
    {
      "inputs": [
        {
          "internalType": "address",
          "name": "operator",
          "type": "address"
        }
      ],
      "name": "ERC1155InvalidOperator",
      "type": "error"
    },
    {
      "inputs": [
        {
          "internalType": "address",
          "name": "receiver",
          "type": "address"
        }
      ],
      "name": "ERC1155InvalidReceiver",
      "type": "error"
    },
    {
      "inputs": [
        {
          "internalType": "address",
          "name": "sender",
          "type": "address"
        }
      ],
      "name": "ERC1155InvalidSender",
      "type": "error"
    },
    {
      "inputs": [
        {
          "internalType": "address",
          "name": "operator",
          "type": "address"
        },
        {
          "internalType": "address",
          "name": "owner",
          "type": "address"
        }
      ],
      "name": "ERC1155MissingApprovalForAll",
      "type": "error"
    },
    {
      "inputs": [
        {
          "internalType": "uint256",
          "name": "numerator",
          "type": "uint256"
        },
        {
          "internalType": "uint256",
          "name": "denominator",
          "type": "uint256"
        }
      ],
      "name": "ERC2981InvalidDefaultRoyalty",
      "type": "error"
    },
    {
      "inputs": [
        {
          "internalType": "address",
          "name": "receiver",
          "type": "address"
        }
      ],
      "name": "ERC2981InvalidDefaultRoyaltyReceiver",
      "type": "error"
    },
    {
      "inputs": [
        {
          "internalType": "uint256",
          "name": "tokenId",
          "type": "uint256"
        },
        {
          "internalType": "uint256",
          "name": "numerator",
          "type": "uint256"
        },
        {
          "internalType": "uint256",
          "name": "denominator",
          "type": "uint256"
        }
      ],
      "name": "ERC2981InvalidTokenRoyalty",
      "type": "error"
    },
    {
      "inputs": [
        {
          "internalType": "uint256",
          "name": "tokenId",
          "type": "uint256"
        },
        {
          "internalType": "address",
          "name": "receiver",
          "type": "address"
        }
      ],
      "name": "ERC2981InvalidTokenRoyaltyReceiver",
      "type": "error"
    },
    {
      "inputs": [],
      "name": "MintAmountZero",
      "type": "error"
    },
    {
      "inputs": [],
      "name": "MintEmptyMetadata",
      "type": "error"
    },
    {
      "inputs": [
        {
          "internalType": "address",
          "name": "owner",
          "type": "address"
        }
      ],
      "name": "OwnableInvalidOwner",
      "type": "error"
    },
    {
      "inputs": [
        {
          "internalType": "address",
          "name": "account",
          "type": "address"
        }
      ],
      "name": "OwnableUnauthorizedAccount",
      "type": "error"
    },
    {
      "inputs": [
        {
          "internalType": "uint256",
          "name": "tokenId",
          "type": "uint256"
        }
      ],
      "name": "TokenMetadataExists",
      "type": "error"
    },
    {
      "anonymous": false,
      "inputs": [
        {
          "indexed": true,
          "internalType": "address",
          "name": "account",
          "type": "address"
        },
        {
          "indexed": true,
          "internalType": "address",
          "name": "operator",
          "type": "address"
        },
        {
          "indexed": false,
          "internalType": "bool",
          "name": "approved",
          "type": "bool"
        }
      ],
      "name": "ApprovalForAll",
      "type": "event"
    },
    {
      "anonymous": false,
      "inputs": [
        {
          "indexed": true,
          "internalType": "address",
          "name": "previousOwner",
          "type": "address"
        },
        {
          "indexed": true,
          "internalType": "address",
          "name": "newOwner",
          "type": "address"
        }
      ],
      "name": "OwnershipTransferred",
      "type": "event"
    },
    {
      "anonymous": false,
      "inputs": [
        {
          "indexed": true,
          "internalType": "address",
          "name": "operator",
          "type": "address"
        },
        {
          "indexed": true,
          "internalType": "address",
          "name": "from",
          "type": "address"
        },
        {
          "indexed": true,
          "internalType": "address",
          "name": "to",
          "type": "address"
        },
        {
          "indexed": false,
          "internalType": "uint256[]",
          "name": "ids",
          "type": "uint256[]"
        },
        {
          "indexed": false,
          "internalType": "uint256[]",
          "name": "values",
          "type": "uint256[]"
        }
      ],
      "name": "TransferBatch",
      "type": "event"
    },
    {
      "anonymous": false,
      "inputs": [
        {
          "indexed": true,
          "internalType": "address",
          "name": "operator",
          "type": "address"
        },
        {
          "indexed": true,
          "internalType": "address",
          "name": "from",
          "type": "address"
        },
        {
          "indexed": true,
          "internalType": "address",
          "name": "to",
          "type": "address"
        },
        {
          "indexed": false,
          "internalType": "uint256",
          "name": "id",
          "type": "uint256"
        },
        {
          "indexed": false,
          "internalType": "uint256",
          "name": "value",
          "type": "uint256"
        }
      ],
      "name": "TransferSingle",
      "type": "event"
    },
    {
      "anonymous": false,
      "inputs": [
        {
          "indexed": false,
          "internalType": "string",
          "name": "value",
          "type": "string"
        },
        {
          "indexed": true,
          "internalType": "uint256",
          "name": "id",
          "type": "uint256"
        }
      ],
      "name": "URI",
      "type": "event"
    },
    {
      "inputs": [
        {
          "internalType": "address",
          "name": "account",
          "type": "address"
        },
        {
          "internalType": "uint256",
          "name": "id",
          "type": "uint256"
        }
      ],
      "name": "balanceOf",
      "outputs": [
        {
          "internalType": "uint256",
          "name": "",
          "type": "uint256"
        }
      ],
      "stateMutability": "view",
      "type": "function"
    },
    {
      "inputs": [
        {
          "internalType": "address[]",
          "name": "accounts",
          "type": "address[]"
        },
        {
          "internalType": "uint256[]",
          "name": "ids",
          "type": "uint256[]"
        }
      ],
      "name": "balanceOfBatch",
      "outputs": [
        {
          "internalType": "uint256[]",
          "name": "",
          "type": "uint256[]"
        }
      ],
      "stateMutability": "view",
      "type": "function"
    },
    {
      "inputs": [
        {
          "internalType": "address",
          "name": "account",
          "type": "address"
        },
        {
          "internalType": "uint256",
          "name": "id",
          "type": "uint256"
        },
        {
          "internalType": "uint256",
          "name": "value",
          "type": "uint256"
        }
      ],
      "name": "burn",
      "outputs": [],
      "stateMutability": "nonpayable",
      "type": "function"
    },
    {
      "inputs": [
        {
          "internalType": "address",
          "name": "account",
          "type": "address"
        },
        {
          "internalType": "uint256[]",
          "name": "ids",
          "type": "uint256[]"
        },
        {
          "internalType": "uint256[]",
          "name": "values",
          "type": "uint256[]"
        }
      ],
      "name": "burnBatch",
      "outputs": [],
      "stateMutability": "nonpayable",
      "type": "function"
    },
    {
      "inputs": [],
      "name": "contractURI",
      "outputs": [
        {
          "internalType": "string",
          "name": "",
          "type": "string"
        }
      ],
      "stateMutability": "pure",
      "type": "function"
    },
    {
      "inputs": [
        {
          "internalType": "uint256",
          "name": "id",
          "type": "uint256"
        }
      ],
      "name": "exists",
      "outputs": [
        {
          "internalType": "bool",
          "name": "",
          "type": "bool"
        }
      ],
      "stateMutability": "view",
      "type": "function"
    },
    {
      "inputs": [
        {
          "internalType": "address",
          "name": "account",
          "type": "address"
        },
        {
          "internalType": "address",
          "name": "operator",
          "type": "address"
        }
      ],
      "name": "isApprovedForAll",
      "outputs": [
        {
          "internalType": "bool",
          "name": "",
          "type": "bool"
        }
      ],
      "stateMutability": "view",
      "type": "function"
    },
    {
      "inputs": [
        {
          "internalType": "address",
          "name": "account",
          "type": "address"
        },
        {
          "internalType": "uint256",
          "name": "id",
          "type": "uint256"
        },
        {
          "internalType": "uint256",
          "name": "amount",
          "type": "uint256"
        },
        {
          "internalType": "string",
          "name": "base64Metadata",
          "type": "string"
        }
      ],
      "name": "mint",
      "outputs": [],
      "stateMutability": "nonpayable",
      "type": "function"
    },
    {
      "inputs": [],
      "name": "owner",
      "outputs": [
        {
          "internalType": "address",
          "name": "",
          "type": "address"
        }
      ],
      "stateMutability": "view",
      "type": "function"
    },
    {
      "inputs": [],
      "name": "renounceOwnership",
      "outputs": [],
      "stateMutability": "nonpayable",
      "type": "function"
    },
    {
      "inputs": [
        {
          "internalType": "uint256",
          "name": "tokenId",
          "type": "uint256"
        },
        {
          "internalType": "uint256",
          "name": "salePrice",
          "type": "uint256"
        }
      ],
      "name": "royaltyInfo",
      "outputs": [
        {
          "internalType": "address",
          "name": "",
          "type": "address"
        },
        {
          "internalType": "uint256",
          "name": "",
          "type": "uint256"
        }
      ],
      "stateMutability": "view",
      "type": "function"
    },
    {
      "inputs": [
        {
          "internalType": "address",
          "name": "from",
          "type": "address"
        },
        {
          "internalType": "address",
          "name": "to",
          "type": "address"
        },
        {
          "internalType": "uint256[]",
          "name": "ids",
          "type": "uint256[]"
        },
        {
          "internalType": "uint256[]",
          "name": "values",
          "type": "uint256[]"
        },
        {
          "internalType": "bytes",
          "name": "data",
          "type": "bytes"
        }
      ],
      "name": "safeBatchTransferFrom",
      "outputs": [],
      "stateMutability": "nonpayable",
      "type": "function"
    },
    {
      "inputs": [
        {
          "internalType": "address",
          "name": "from",
          "type": "address"
        },
        {
          "internalType": "address",
          "name": "to",
          "type": "address"
        },
        {
          "internalType": "uint256",
          "name": "id",
          "type": "uint256"
        },
        {
          "internalType": "uint256",
          "name": "value",
          "type": "uint256"
        },
        {
          "internalType": "bytes",
          "name": "data",
          "type": "bytes"
        }
      ],
      "name": "safeTransferFrom",
      "outputs": [],
      "stateMutability": "nonpayable",
      "type": "function"
    },
    {
      "inputs": [
        {
          "internalType": "address",
          "name": "operator",
          "type": "address"
        },
        {
          "internalType": "bool",
          "name": "approved",
          "type": "bool"
        }
      ],
      "name": "setApprovalForAll",
      "outputs": [],
      "stateMutability": "nonpayable",
      "type": "function"
    },
    {
      "inputs": [
        {
          "internalType": "bytes4",
          "name": "interfaceId",
          "type": "bytes4"
        }
      ],
      "name": "supportsInterface",
      "outputs": [
        {
          "internalType": "bool",
          "name": "",
          "type": "bool"
        }
      ],
      "stateMutability": "view",
      "type": "function"
    },
    {
      "inputs": [],
      "name": "totalSupply",
      "outputs": [
        {
          "internalType": "uint256",
          "name": "",
          "type": "uint256"
        }
      ],
      "stateMutability": "view",
      "type": "function"
    },
    {
      "inputs": [
        {
          "internalType": "uint256",
          "name": "id",
          "type": "uint256"
        }
      ],
      "name": "totalSupply",
      "outputs": [
        {
          "internalType": "uint256",
          "name": "",
          "type": "uint256"
        }
      ],
      "stateMutability": "view",
      "type": "function"
    },
    {
      "inputs": [
        {
          "internalType": "address",
          "name": "newOwner",
          "type": "address"
        }
      ],
      "name": "transferOwnership",
      "outputs": [],
      "stateMutability": "nonpayable",
      "type": "function"
    },
    {
      "inputs": [
        {
          "internalType": "uint256",
          "name": "tokenId",
          "type": "uint256"
        }
      ],
      "name": "uri",
      "outputs": [
        {
          "internalType": "string",
          "name": "",
          "type": "string"
        }
      ],
      "stateMutability": "view",
      "type": "function"
    }
  ],
  "bytecode": "0x60806040523480156200001157600080fd5b5060405162003ed438038062003ed48339818101604052810190620000379190620003fc565b81604051806020016040528060008152506200005981620000fd60201b60201c565b50600073ffffffffffffffffffffffffffffffffffffffff168173ffffffffffffffffffffffffffffffffffffffff1603620000cf5760006040517f1e4fbdf7000000000000000000000000000000000000000000000000000000008152600401620000c6919062000454565b60405180910390fd5b620000e0816200011260201b60201c565b50620000f5816101f4620001d860201b60201c565b505062000861565b80600290816200010e9190620006eb565b5050565b6000600760009054906101000a900473ffffffffffffffffffffffffffffffffffffffff16905081600760006101000a81548173ffffffffffffffffffffffffffffffffffffffff021916908373ffffffffffffffffffffffffffffffffffffffff1602179055508173ffffffffffffffffffffffffffffffffffffffff168173ffffffffffffffffffffffffffffffffffffffff167f8be0079c531659141344cd1fd0a4f28419497f9722a3daafe3b4186f6b6457e060405160405180910390a35050565b6000620001ea6200038860201b60201c565b6bffffffffffffffffffffffff16905080826bffffffffffffffffffffffff161115620002525781816040517f6f483d090000000000000000000000000000000000000000000000000000000081526004016200024992919062000834565b60405180910390fd5b600073ffffffffffffffffffffffffffffffffffffffff168373ffffffffffffffffffffffffffffffffffffffff1603620002c75760006040517fb6d9900a000000000000000000000000000000000000000000000000000000008152600401620002be919062000454565b60405180910390fd5b60405180604001604052808473ffffffffffffffffffffffffffffffffffffffff168152602001836bffffffffffffffffffffffff16815250600560008201518160000160006101000a81548173ffffffffffffffffffffffffffffffffffffffff021916908373ffffffffffffffffffffffffffffffffffffffff16021790555060208201518160000160146101000a8154816bffffffffffffffffffffffff02191690836bffffffffffffffffffffffff160217905550905050505050565b6000612710905090565b600080fd5b600073ffffffffffffffffffffffffffffffffffffffff82169050919050565b6000620003c48262000397565b9050919050565b620003d681620003b7565b8114620003e257600080fd5b50565b600081519050620003f681620003cb565b92915050565b6000806040838503121562000416576200041562000392565b5b60006200042685828601620003e5565b92505060206200043985828601620003e5565b9150509250929050565b6200044e81620003b7565b82525050565b60006020820190506200046b600083018462000443565b92915050565b600081519050919050565b7f4e487b7100000000000000000000000000000000000000000000000000000000600052604160045260246000fd5b7f4e487b7100000000000000000000000000000000000000000000000000000000600052602260045260246000fd5b60006002820490506001821680620004f357607f821691505b602082108103620005095762000508620004ab565b5b50919050565b60008190508160005260206000209050919050565b60006020601f8301049050919050565b600082821b905092915050565b600060088302620005737fffffffffffffffffffffffffffffffffffffffffffffffffffffffffffffffff8262000534565b6200057f868362000534565b95508019841693508086168417925050509392505050565b6000819050919050565b6000819050919050565b6000620005cc620005c6620005c08462000597565b620005a1565b62000597565b9050919050565b6000819050919050565b620005e883620005ab565b62000600620005f782620005d3565b84845462000541565b825550505050565b600090565b6200061762000608565b62000624818484620005dd565b505050565b5b818110156200064c57620006406000826200060d565b6001810190506200062a565b5050565b601f8211156200069b5762000665816200050f565b620006708462000524565b8101602085101562000680578190505b620006986200068f8562000524565b83018262000629565b50505b505050565b600082821c905092915050565b6000620006c060001984600802620006a0565b1980831691505092915050565b6000620006db8383620006ad565b9150826002028217905092915050565b620006f68262000471565b67ffffffffffffffff8111156200071257620007116200047c565b5b6200071e8254620004da565b6200072b82828562000650565b600060209050601f8311600181146200076357600084156200074e578287015190505b6200075a8582620006cd565b865550620007ca565b601f19841662000773866200050f565b60005b828110156200079d5784890151825560018201915060208501945060208101905062000776565b86831015620007bd5784890151620007b9601f891682620006ad565b8355505b6001600288020188555050505b505050505050565b60006bffffffffffffffffffffffff82169050919050565b60006200080b62000805620007ff84620007d2565b620005a1565b62000597565b9050919050565b6200081d81620007ea565b82525050565b6200082e8162000597565b82525050565b60006040820190506200084b600083018562000812565b6200085a602083018462000823565b9392505050565b61366380620008716000396000f3fe608060405234801561001057600080fd5b50600436106101205760003560e01c8063715018a6116100ad578063e8a3d48511610071578063e8a3d4851461032c578063e985e9c51461034a578063f242432a1461037a578063f2fde38b14610396578063f5298aca146103b257610120565b8063715018a61461029c5780638da5cb5b146102a6578063a22cb465146102c4578063bb7fde71146102e0578063bd85b039146102fc57610120565b80632a55205a116100f45780632a55205a146101d35780632eb2c2d6146102045780634e1273f4146102205780634f558e79146102505780636b20c4541461028057610120565b8062fdd58e1461012557806301ffc9a7146101555780630e89341c1461018557806318160ddd146101b5575b600080fd5b61013f600480360381019061013a9190612035565b6103ce565b60405161014c9190612084565b60405180910390f35b61016f600480360381019061016a91906120f7565b610428565b60405161017c919061213f565b60405180910390f35b61019f600480360381019061019a919061215a565b61043a565b6040516101ac9190612217565b60405180910390f35b6101bd610475565b6040516101ca9190612084565b60405180910390f35b6101ed60048036038101906101e89190612239565b61047f565b6040516101fb929190612288565b60405180910390f35b61021e600480360381019061021991906124ae565b610669565b005b61023a60048036038101906102359190612640565b610711565b6040516102479190612776565b60405180910390f35b61026a6004803603810190610265919061215a565b61081a565b604051610277919061213f565b60405180910390f35b61029a60048036038101906102959190612798565b61082e565b005b6102a46108da565b005b6102ae6108ee565b6040516102bb9190612823565b60405180910390f35b6102de60048036038101906102d9919061286a565b610918565b005b6102fa60048036038101906102f5919061294b565b61092e565b005b6103166004803603810190610311919061215a565b610a6e565b6040516103239190612084565b60405180910390f35b610334610a8b565b6040516103419190612217565b60405180910390f35b610364600480360381019061035f91906129ce565b610ab9565b604051610371919061213f565b60405180910390f35b610394600480360381019061038f9190612a0e565b610b4d565b005b6103b060048036038101906103ab9190612aa5565b610bf5565b005b6103cc60048036038101906103c79190612ad2565b610c7b565b005b600080600083815260200190815260200160002060008473ffffffffffffffffffffffffffffffffffffffff1673ffffffffffffffffffffffffffffffffffffffff16815260200190815260200160002054905092915050565b600061043382610d27565b9050919050565b60606008600083815260200190815260200160002060405160200161045f9190612c4e565b6040516020818303038152906040529050919050565b6000600454905090565b6000806000600660008681526020019081526020016000206040518060400160405290816000820160009054906101000a900473ffffffffffffffffffffffffffffffffffffffff1673ffffffffffffffffffffffffffffffffffffffff1673ffffffffffffffffffffffffffffffffffffffff1681526020016000820160149054906101000a90046bffffffffffffffffffffffff166bffffffffffffffffffffffff166bffffffffffffffffffffffff16815250509050600073ffffffffffffffffffffffffffffffffffffffff16816000015173ffffffffffffffffffffffffffffffffffffffff16036106145760056040518060400160405290816000820160009054906101000a900473ffffffffffffffffffffffffffffffffffffffff1673ffffffffffffffffffffffffffffffffffffffff1673ffffffffffffffffffffffffffffffffffffffff1681526020016000820160149054906101000a90046bffffffffffffffffffffffff166bffffffffffffffffffffffff166bffffffffffffffffffffffff168152505090505b600061061e610da1565b6bffffffffffffffffffffffff1682602001516bffffffffffffffffffffffff168661064a9190612ca3565b6106549190612d14565b90508160000151819350935050509250929050565b6000610673610dab565b90508073ffffffffffffffffffffffffffffffffffffffff168673ffffffffffffffffffffffffffffffffffffffff16141580156106b857506106b68682610ab9565b155b156106fc5780866040517fe237d9220000000000000000000000000000000000000000000000000000000081526004016106f3929190612d45565b60405180910390fd5b6107098686868686610db3565b505050505050565b6060815183511461075d57815183516040517f5b059991000000000000000000000000000000000000000000000000000000008152600401610754929190612d6e565b60405180910390fd5b6000835167ffffffffffffffff81111561077a576107796122b6565b5b6040519080825280602002602001820160405280156107a85781602001602082028036833780820191505090505b50905060005b845181101561080f576107e56107cd8287610eab90919063ffffffff16565b6107e08387610ebf90919063ffffffff16565b6103ce565b8282815181106107f8576107f7612d97565b5b6020026020010181815250508060010190506107ae565b508091505092915050565b60008061082683610a6e565b119050919050565b610836610dab565b73ffffffffffffffffffffffffffffffffffffffff168373ffffffffffffffffffffffffffffffffffffffff161415801561087f575061087d83610878610dab565b610ab9565b155b156108ca5761088c610dab565b836040517fe237d9220000000000000000000000000000000000000000000000000000000081526004016108c1929190612d45565b60405180910390fd5b6108d5838383610ed3565b505050565b6108e2610f67565b6108ec6000610fee565b565b6000600760009054906101000a900473ffffffffffffffffffffffffffffffffffffffff16905090565b61092a610923610dab565b83836110b4565b5050565b610936610f67565b60006109418461081a565b9050600080835111905060008403610985576040517f39d7ecde00000000000000000000000000000000000000000000000000000000815260040160405180910390fd5b81801561098f5750805b156109d157846040517fb8ceb3170000000000000000000000000000000000000000000000000000000081526004016109c89190612084565b60405180910390fd5b811580156109dc5750805b15610a075782600860008781526020019081526020016000209081610a019190612f5d565b50610a4b565b81158015610a13575080155b15610a4a576040517f2f44b0a500000000000000000000000000000000000000000000000000000000815260040160405180910390fd5b5b610a6686868660405180602001604052806000815250611224565b505050505050565b600060036000838152602001908152602001600020549050919050565b6060610a956112bd565b604051602001610aa59190613228565b604051602081830303815290604052905090565b6000600160008473ffffffffffffffffffffffffffffffffffffffff1673ffffffffffffffffffffffffffffffffffffffff16815260200190815260200160002060008373ffffffffffffffffffffffffffffffffffffffff1673ffffffffffffffffffffffffffffffffffffffff16815260200190815260200160002060009054906101000a900460ff16905092915050565b6000610b57610dab565b90508073ffffffffffffffffffffffffffffffffffffffff168673ffffffffffffffffffffffffffffffffffffffff1614158015610b9c5750610b9a8682610ab9565b155b15610be05780866040517fe237d922000000000000000000000000000000000000000000000000000000008152600401610bd7929190612d45565b60405180910390fd5b610bed86868686866112e0565b505050505050565b610bfd610f67565b600073ffffffffffffffffffffffffffffffffffffffff168173ffffffffffffffffffffffffffffffffffffffff1603610c6f5760006040517f1e4fbdf7000000000000000000000000000000000000000000000000000000008152600401610c669190612823565b60405180910390fd5b610c7881610fee565b50565b610c83610dab565b73ffffffffffffffffffffffffffffffffffffffff168373ffffffffffffffffffffffffffffffffffffffff1614158015610ccc5750610cca83610cc5610dab565b610ab9565b155b15610d1757610cd9610dab565b836040517fe237d922000000000000000000000000000000000000000000000000000000008152600401610d0e929190612d45565b60405180910390fd5b610d228383836113eb565b505050565b60007f2a55205a000000000000000000000000000000000000000000000000000000007bffffffffffffffffffffffffffffffffffffffffffffffffffffffff1916827bffffffffffffffffffffffffffffffffffffffffffffffffffffffff19161480610d9a5750610d9982611492565b5b9050919050565b6000612710905090565b600033905090565b600073ffffffffffffffffffffffffffffffffffffffff168473ffffffffffffffffffffffffffffffffffffffff1603610e255760006040517f57f447ce000000000000000000000000000000000000000000000000000000008152600401610e1c9190612823565b60405180910390fd5b600073ffffffffffffffffffffffffffffffffffffffff168573ffffffffffffffffffffffffffffffffffffffff1603610e975760006040517f01a83514000000000000000000000000000000000000000000000000000000008152600401610e8e9190612823565b60405180910390fd5b610ea48585858585611574565b5050505050565b600060208202602084010151905092915050565b600060208202602084010151905092915050565b600073ffffffffffffffffffffffffffffffffffffffff168373ffffffffffffffffffffffffffffffffffffffff1603610f455760006040517f01a83514000000000000000000000000000000000000000000000000000000008152600401610f3c9190612823565b60405180910390fd5b610f62836000848460405180602001604052806000815250611574565b505050565b610f6f610dab565b73ffffffffffffffffffffffffffffffffffffffff16610f8d6108ee565b73ffffffffffffffffffffffffffffffffffffffff1614610fec57610fb0610dab565b6040517f118cdaa7000000000000000000000000000000000000000000000000000000008152600401610fe39190612823565b60405180910390fd5b565b6000600760009054906101000a900473ffffffffffffffffffffffffffffffffffffffff16905081600760006101000a81548173ffffffffffffffffffffffffffffffffffffffff021916908373ffffffffffffffffffffffffffffffffffffffff1602179055508173ffffffffffffffffffffffffffffffffffffffff168173ffffffffffffffffffffffffffffffffffffffff167f8be0079c531659141344cd1fd0a4f28419497f9722a3daafe3b4186f6b6457e060405160405180910390a35050565b600073ffffffffffffffffffffffffffffffffffffffff168273ffffffffffffffffffffffffffffffffffffffff16036111265760006040517fced3e10000000000000000000000000000000000000000000000000000000000815260040161111d9190612823565b60405180910390fd5b80600160008573ffffffffffffffffffffffffffffffffffffffff1673ffffffffffffffffffffffffffffffffffffffff16815260200190815260200160002060008473ffffffffffffffffffffffffffffffffffffffff1673ffffffffffffffffffffffffffffffffffffffff16815260200190815260200160002060006101000a81548160ff0219169083151502179055508173ffffffffffffffffffffffffffffffffffffffff168373ffffffffffffffffffffffffffffffffffffffff167f17307eab39ab6107e8899845ad3d59bd9653f200f220920489ca2b5937696c3183604051611217919061213f565b60405180910390a3505050565b600073ffffffffffffffffffffffffffffffffffffffff168473ffffffffffffffffffffffffffffffffffffffff16036112965760006040517f57f447ce00000000000000000000000000000000000000000000000000000000815260040161128d9190612823565b60405180910390fd5b6000806112a38585611626565b915091506112b5600087848487611574565b505050505050565b6060604051806101a0016040528061017581526020016134b96101759139905090565b600073ffffffffffffffffffffffffffffffffffffffff168473ffffffffffffffffffffffffffffffffffffffff16036113525760006040517f57f447ce0000000000000000000000000000000000000000000000000000000081526004016113499190612823565b60405180910390fd5b600073ffffffffffffffffffffffffffffffffffffffff168573ffffffffffffffffffffffffffffffffffffffff16036113c45760006040517f01a835140000000000000000000000000000000000000000000000000000000081526004016113bb9190612823565b60405180910390fd5b6000806113d18585611626565b915091506113e28787848487611574565b50505050505050565b600073ffffffffffffffffffffffffffffffffffffffff168373ffffffffffffffffffffffffffffffffffffffff160361145d5760006040517f01a835140000000000000000000000000000000000000000000000000000000081526004016114549190612823565b60405180910390fd5b60008061146a8484611626565b9150915061148b856000848460405180602001604052806000815250611574565b5050505050565b60007fd9b67a26000000000000000000000000000000000000000000000000000000007bffffffffffffffffffffffffffffffffffffffffffffffffffffffff1916827bffffffffffffffffffffffffffffffffffffffffffffffffffffffff1916148061155d57507f0e89341c000000000000000000000000000000000000000000000000000000007bffffffffffffffffffffffffffffffffffffffffffffffffffffffff1916827bffffffffffffffffffffffffffffffffffffffffffffffffffffffff1916145b8061156d575061156c82611656565b5b9050919050565b611580858585856116c0565b600073ffffffffffffffffffffffffffffffffffffffff168473ffffffffffffffffffffffffffffffffffffffff161461161f5760006115be610dab565b9050600184510361160e5760006115df600086610ebf90919063ffffffff16565b905060006115f7600086610ebf90919063ffffffff16565b90506116078389898585896116d2565b505061161d565b61161c818787878787611886565b5b505b5050505050565b60608060405191506001825283602083015260408201905060018152826020820152604081016040529250929050565b60007f01ffc9a7000000000000000000000000000000000000000000000000000000007bffffffffffffffffffffffffffffffffffffffffffffffffffffffff1916827bffffffffffffffffffffffffffffffffffffffffffffffffffffffff1916149050919050565b6116cc84848484611a3a565b50505050565b60008473ffffffffffffffffffffffffffffffffffffffff163b111561187e578373ffffffffffffffffffffffffffffffffffffffff1663f23a6e6187878686866040518663ffffffff1660e01b8152600401611733959493929190613304565b6020604051808303816000875af192505050801561176f57506040513d601f19601f8201168201806040525081019061176c9190613373565b60015b6117f3573d806000811461179f576040519150601f19603f3d011682016040523d82523d6000602084013e6117a4565b606091505b5060008151036117eb57846040517f57f447ce0000000000000000000000000000000000000000000000000000000081526004016117e29190612823565b60405180910390fd5b805181602001fd5b63f23a6e6160e01b7bffffffffffffffffffffffffffffffffffffffffffffffffffffffff1916817bffffffffffffffffffffffffffffffffffffffffffffffffffffffff19161461187c57846040517f57f447ce0000000000000000000000000000000000000000000000000000000081526004016118739190612823565b60405180910390fd5b505b505050505050565b60008473ffffffffffffffffffffffffffffffffffffffff163b1115611a32578373ffffffffffffffffffffffffffffffffffffffff1663bc197c8187878686866040518663ffffffff1660e01b81526004016118e79594939291906133a0565b6020604051808303816000875af192505050801561192357506040513d601f19601f820116820180604052508101906119209190613373565b60015b6119a7573d8060008114611953576040519150601f19603f3d011682016040523d82523d6000602084013e611958565b606091505b50600081510361199f57846040517f57f447ce0000000000000000000000000000000000000000000000000000000081526004016119969190612823565b60405180910390fd5b805181602001fd5b63bc197c8160e01b7bffffffffffffffffffffffffffffffffffffffffffffffffffffffff1916817bffffffffffffffffffffffffffffffffffffffffffffffffffffffff191614611a3057846040517f57f447ce000000000000000000000000000000000000000000000000000000008152600401611a279190612823565b60405180910390fd5b505b505050505050565b611a4684848484611be5565b600073ffffffffffffffffffffffffffffffffffffffff168473ffffffffffffffffffffffffffffffffffffffff1603611b20576000805b8351811015611b04576000838281518110611a9c57611a9b612d97565b5b602002602001015190508060036000878581518110611abe57611abd612d97565b5b602002602001015181526020019081526020016000206000828254611ae39190613408565b925050819055508083611af69190613408565b925050806001019050611a7e565b508060046000828254611b179190613408565b92505081905550505b600073ffffffffffffffffffffffffffffffffffffffff168373ffffffffffffffffffffffffffffffffffffffff1603611bdf576000805b8351811015611bcc576000838281518110611b7657611b75612d97565b5b602002602001015190508060036000878581518110611b9857611b97612d97565b5b6020026020010151815260200190815260200160002060008282540392505081905550808301925050806001019050611b58565b5080600460008282540392505081905550505b50505050565b8051825114611c2f57815181516040517f5b059991000000000000000000000000000000000000000000000000000000008152600401611c26929190612d6e565b60405180910390fd5b6000611c39610dab565b905060005b8351811015611e48576000611c5c8286610ebf90919063ffffffff16565b90506000611c738386610ebf90919063ffffffff16565b9050600073ffffffffffffffffffffffffffffffffffffffff168873ffffffffffffffffffffffffffffffffffffffff1614611da057600080600084815260200190815260200160002060008a73ffffffffffffffffffffffffffffffffffffffff1673ffffffffffffffffffffffffffffffffffffffff16815260200190815260200160002054905081811015611d4857888183856040517f03dee4c5000000000000000000000000000000000000000000000000000000008152600401611d3f949392919061343c565b60405180910390fd5b81810360008085815260200190815260200160002060008b73ffffffffffffffffffffffffffffffffffffffff1673ffffffffffffffffffffffffffffffffffffffff16815260200190815260200160002081905550505b600073ffffffffffffffffffffffffffffffffffffffff168773ffffffffffffffffffffffffffffffffffffffff1614611e3b578060008084815260200190815260200160002060008973ffffffffffffffffffffffffffffffffffffffff1673ffffffffffffffffffffffffffffffffffffffff1681526020019081526020016000206000828254611e339190613408565b925050819055505b5050806001019050611c3e565b506001835103611f07576000611e68600085610ebf90919063ffffffff16565b90506000611e80600085610ebf90919063ffffffff16565b90508573ffffffffffffffffffffffffffffffffffffffff168773ffffffffffffffffffffffffffffffffffffffff168473ffffffffffffffffffffffffffffffffffffffff167fc3d58168c5ae7397731d063d5bbf3d657854427343f4c083240f7aacaa2d0f628585604051611ef8929190612d6e565b60405180910390a45050611f86565b8373ffffffffffffffffffffffffffffffffffffffff168573ffffffffffffffffffffffffffffffffffffffff168273ffffffffffffffffffffffffffffffffffffffff167f4a39dc06d4c0dbc64b70af90fd698a233a518aa5d07e595d983b8c0526c8f7fb8686604051611f7d929190613481565b60405180910390a45b5050505050565b6000604051905090565b600080fd5b600080fd5b600073ffffffffffffffffffffffffffffffffffffffff82169050919050565b6000611fcc82611fa1565b9050919050565b611fdc81611fc1565b8114611fe757600080fd5b50565b600081359050611ff981611fd3565b92915050565b6000819050919050565b61201281611fff565b811461201d57600080fd5b50565b60008135905061202f81612009565b92915050565b6000806040838503121561204c5761204b611f97565b5b600061205a85828601611fea565b925050602061206b85828601612020565b9150509250929050565b61207e81611fff565b82525050565b60006020820190506120996000830184612075565b92915050565b60007fffffffff0000000000000000000000000000000000000000000000000000000082169050919050565b6120d48161209f565b81146120df57600080fd5b50565b6000813590506120f1816120cb565b92915050565b60006020828403121561210d5761210c611f97565b5b600061211b848285016120e2565b91505092915050565b60008115159050919050565b61213981612124565b82525050565b60006020820190506121546000830184612130565b92915050565b6000602082840312156121705761216f611f97565b5b600061217e84828501612020565b91505092915050565b600081519050919050565b600082825260208201905092915050565b60005b838110156121c15780820151818401526020810190506121a6565b60008484015250505050565b6000601f19601f8301169050919050565b60006121e982612187565b6121f38185612192565b93506122038185602086016121a3565b61220c816121cd565b840191505092915050565b6000602082019050818103600083015261223181846121de565b905092915050565b600080604083850312156122505761224f611f97565b5b600061225e85828601612020565b925050602061226f85828601612020565b9150509250929050565b61228281611fc1565b82525050565b600060408201905061229d6000830185612279565b6122aa6020830184612075565b9392505050565b600080fd5b7f4e487b7100000000000000000000000000000000000000000000000000000000600052604160045260246000fd5b6122ee826121cd565b810181811067ffffffffffffffff8211171561230d5761230c6122b6565b5b80604052505050565b6000612320611f8d565b905061232c82826122e5565b919050565b600067ffffffffffffffff82111561234c5761234b6122b6565b5b602082029050602081019050919050565b600080fd5b600061237561237084612331565b612316565b905080838252602082019050602084028301858111156123985761239761235d565b5b835b818110156123c157806123ad8882612020565b84526020840193505060208101905061239a565b5050509392505050565b600082601f8301126123e0576123df6122b1565b5b81356123f0848260208601612362565b91505092915050565b600080fd5b600067ffffffffffffffff821115612419576124186122b6565b5b612422826121cd565b9050602081019050919050565b82818337600083830152505050565b600061245161244c846123fe565b612316565b90508281526020810184848401111561246d5761246c6123f9565b5b61247884828561242f565b509392505050565b600082601f830112612495576124946122b1565b5b81356124a584826020860161243e565b91505092915050565b600080600080600060a086880312156124ca576124c9611f97565b5b60006124d888828901611fea565b95505060206124e988828901611fea565b945050604086013567ffffffffffffffff81111561250a57612509611f9c565b5b612516888289016123cb565b935050606086013567ffffffffffffffff81111561253757612536611f9c565b5b612543888289016123cb565b925050608086013567ffffffffffffffff81111561256457612563611f9c565b5b61257088828901612480565b9150509295509295909350565b600067ffffffffffffffff821115612598576125976122b6565b5b602082029050602081019050919050565b60006125bc6125b78461257d565b612316565b905080838252602082019050602084028301858111156125df576125de61235d565b5b835b8181101561260857806125f48882611fea565b8452602084019350506020810190506125e1565b5050509392505050565b600082601f830112612627576126266122b1565b5b81356126378482602086016125a9565b91505092915050565b6000806040838503121561265757612656611f97565b5b600083013567ffffffffffffffff81111561267557612674611f9c565b5b61268185828601612612565b925050602083013567ffffffffffffffff8111156126a2576126a1611f9c565b5b6126ae858286016123cb565b9150509250929050565b600081519050919050565b600082825260208201905092915050565b6000819050602082019050919050565b6126ed81611fff565b82525050565b60006126ff83836126e4565b60208301905092915050565b6000602082019050919050565b6000612723826126b8565b61272d81856126c3565b9350612738836126d4565b8060005b8381101561276957815161275088826126f3565b975061275b8361270b565b92505060018101905061273c565b5085935050505092915050565b600060208201905081810360008301526127908184612718565b905092915050565b6000806000606084860312156127b1576127b0611f97565b5b60006127bf86828701611fea565b935050602084013567ffffffffffffffff8111156127e0576127df611f9c565b5b6127ec868287016123cb565b925050604084013567ffffffffffffffff81111561280d5761280c611f9c565b5b612819868287016123cb565b9150509250925092565b60006020820190506128386000830184612279565b92915050565b61284781612124565b811461285257600080fd5b50565b6000813590506128648161283e565b92915050565b6000806040838503121561288157612880611f97565b5b600061288f85828601611fea565b92505060206128a085828601612855565b9150509250929050565b600067ffffffffffffffff8211156128c5576128c46122b6565b5b6128ce826121cd565b9050602081019050919050565b60006128ee6128e9846128aa565b612316565b90508281526020810184848401111561290a576129096123f9565b5b61291584828561242f565b509392505050565b600082601f830112612932576129316122b1565b5b81356129428482602086016128db565b91505092915050565b6000806000806080858703121561296557612964611f97565b5b600061297387828801611fea565b945050602061298487828801612020565b935050604061299587828801612020565b925050606085013567ffffffffffffffff8111156129b6576129b5611f9c565b5b6129c28782880161291d565b91505092959194509250565b600080604083850312156129e5576129e4611f97565b5b60006129f385828601611fea565b9250506020612a0485828601611fea565b9150509250929050565b600080600080600060a08688031215612a2a57612a29611f97565b5b6000612a3888828901611fea565b9550506020612a4988828901611fea565b9450506040612a5a88828901612020565b9350506060612a6b88828901612020565b925050608086013567ffffffffffffffff811115612a8c57612a8b611f9c565b5b612a9888828901612480565b9150509295509295909350565b600060208284031215612abb57612aba611f97565b5b6000612ac984828501611fea565b91505092915050565b600080600060608486031215612aeb57612aea611f97565b5b6000612af986828701611fea565b9350506020612b0a86828701612020565b9250506040612b1b86828701612020565b9150509250925092565b7f646174613a6170706c69636174696f6e2f6a736f6e3b6261736536342c000000815250565b7f4e487b7100000000000000000000000000000000000000000000000000000000600052602260045260246000fd5b60006002820490506001821680612b9257607f821691505b602082108103612ba557612ba4612b4b565b5b50919050565b600081905092915050565b60008190508160005260206000209050919050565b60008154612bd881612b7a565b612be28186612bab565b94506001821660008114612bfd5760018114612c1257612c45565b60ff1983168652811515820286019350612c45565b612c1b85612bb6565b60005b83811015612c3d57815481890152600182019150602081019050612c1e565b838801955050505b50505092915050565b6000612c5982612b25565b601d82019150612c698284612bcb565b915081905092915050565b7f4e487b7100000000000000000000000000000000000000000000000000000000600052601160045260246000fd5b6000612cae82611fff565b9150612cb983611fff565b9250828202612cc781611fff565b91508282048414831517612cde57612cdd612c74565b5b5092915050565b7f4e487b7100000000000000000000000000000000000000000000000000000000600052601260045260246000fd5b6000612d1f82611fff565b9150612d2a83611fff565b925082612d3a57612d39612ce5565b5b828204905092915050565b6000604082019050612d5a6000830185612279565b612d676020830184612279565b9392505050565b6000604082019050612d836000830185612075565b612d906020830184612075565b9392505050565b7f4e487b7100000000000000000000000000000000000000000000000000000000600052603260045260246000fd5b60006020601f8301049050919050565b600082821b905092915050565b600060088302612e137fffffffffffffffffffffffffffffffffffffffffffffffffffffffffffffffff82612dd6565b612e1d8683612dd6565b95508019841693508086168417925050509392505050565b6000819050919050565b6000612e5a612e55612e5084611fff565b612e35565b611fff565b9050919050565b6000819050919050565b612e7483612e3f565b612e88612e8082612e61565b848454612de3565b825550505050565b600090565b612e9d612e90565b612ea8818484612e6b565b505050565b5b81811015612ecc57612ec1600082612e95565b600181019050612eae565b5050565b601f821115612f1157612ee281612bb6565b612eeb84612dc6565b81016020851015612efa578190505b612f0e612f0685612dc6565b830182612ead565b50505b505050565b600082821c905092915050565b6000612f3460001984600802612f16565b1980831691505092915050565b6000612f4d8383612f23565b9150826002028217905092915050565b612f6682612187565b67ffffffffffffffff811115612f7f57612f7e6122b6565b5b612f898254612b7a565b612f94828285612ed0565b600060209050601f831160018114612fc75760008415612fb5578287015190505b612fbf8582612f41565b865550613027565b601f198416612fd586612bb6565b60005b82811015612ffd57848901518255600182019150602085019450602081019050612fd8565b8683101561301a5784890151613016601f891682612f23565b8355505b6001600288020188555050505b505050505050565b7f646174613a6170706c69636174696f6e2f6a736f6e3b757466382c0000000000815250565b7f7b00000000000000000000000000000000000000000000000000000000000000815250565b7f226e616d65223a22436172626f6e5468696e6b2054434f32222c000000000000815250565b7f226465736372697074696f6e223a22436172626f6e5468696e6b2054434f322060008201527f746f6b656e7320636f6c6c656374696f6e2e222c000000000000000000000000602082015250565b60006130fd603483612bab565b9150613108826130a1565b603482019050919050565b7f2265787465726e616c5f6c696e6b223a2268747470733a2f2f616c7972612d6360008201527f6172626f6e7468696e6b2e76657263656c2e6170702f222c0000000000000000602082015250565b600061316f603883612bab565b915061317a82613113565b603882019050919050565b7f22696d6167655f64617461223a22000000000000000000000000000000000000815250565b60006131b682612187565b6131c08185612bab565b93506131d08185602086016121a3565b80840191505092915050565b7f2200000000000000000000000000000000000000000000000000000000000000815250565b7f7d00000000000000000000000000000000000000000000000000000000000000815250565b60006132338261302f565b601b8201915061324282613055565b6001820191506132518261307b565b601a82019150613260826130f0565b915061326b82613162565b915061327682613185565b600e8201915061328682846131ab565b9150613291826131dc565b6001820191506132a082613202565b60018201915081905092915050565b600081519050919050565b600082825260208201905092915050565b60006132d6826132af565b6132e081856132ba565b93506132f08185602086016121a3565b6132f9816121cd565b840191505092915050565b600060a0820190506133196000830188612279565b6133266020830187612279565b6133336040830186612075565b6133406060830185612075565b818103608083015261335281846132cb565b90509695505050505050565b60008151905061336d816120cb565b92915050565b60006020828403121561338957613388611f97565b5b60006133978482850161335e565b91505092915050565b600060a0820190506133b56000830188612279565b6133c26020830187612279565b81810360408301526133d48186612718565b905081810360608301526133e88185612718565b905081810360808301526133fc81846132cb565b90509695505050505050565b600061341382611fff565b915061341e83611fff565b925082820190508082111561343657613435612c74565b5b92915050565b60006080820190506134516000830187612279565b61345e6020830186612075565b61346b6040830185612075565b6134786060830184612075565b95945050505050565b6000604082019050818103600083015261349b8185612718565b905081810360208301526134af8184612718565b9050939250505056fe646174613a696d6167652f7376672b786d6c3b757466382c3c73766720786d6c6e733d27687474703a2f2f7777772e77332e6f72672f323030302f737667272077696474683d2735303027206865696768743d27353030272076696577426f783d27302030203234203234272066696c6c3d27677265656e27207374726f6b653d272330303430303027207374726f6b652d77696474683d273227207374726f6b652d6c696e656361703d27726f756e6427207374726f6b652d6c696e656a6f696e3d27726f756e64273e3c7061746820643d274d31312032304137203720302030203120392e3820362e314331352e35203520313720342e3438203139203263312032203220342e313820322038203020352e352d342e37382031302d31302031305a273e3c2f706174683e3c7061746820643d274d3220323163302d3320312e38352d352e333620352e30382d3643392e352031342e3532203132203133203133203132273e3c2f706174683e3c2f7376673ea26469706673582212209c367d352d4c78b8d762f047987c41654a6094e2380e7d1a1843cda3d436d3b864736f6c63430008180033",
  "linkReferences": {},
  "deployedLinkReferences": {}
}