{
  "_format": "hh-sol-artifact-1",
  "contractName": "ProjectManager",
  "sourceName": "contracts/ProjectManager.sol",
  "abi": [
    {
      "inputs": [
        {
          "internalType": "address",
          "name": "_initialOwner",
          "type": "address"
        },
        {
          "internalType": "address",
          "name": "_securityFund",
          "type": "address"
        },
        {
          "internalType": "address",
          "name": "_tco2Contract",
          "type": "address"
        }
      ],
      "stateMutability": "nonpayable",
      "type": "constructor"
    },
    {
      "inputs": [],
      "name": "AddressZero",
      "type": "error"
    },
    {
      "inputs": [],
      "name": "CannotChangeProjectState",
      "type": "error"
    },
    {
      "inputs": [],
      "name": "CannotMintZeroToken",
      "type": "error"
    },
    {
      "inputs": [],
      "name": "InactiveProject",
      "type": "error"
    },
    {
      "inputs": [],
      "name": "InvalidMetadata",
      "type": "error"
    },
    {
      "inputs": [
        {
          "internalType": "address",
          "name": "owner",
          "type": "address"
        }
      ],
      "name": "OwnableInvalidOwner",
      "type": "error"
    },
    {
      "inputs": [
        {
          "internalType": "address",
          "name": "account",
          "type": "address"
        }
      ],
      "name": "OwnableUnauthorizedAccount",
      "type": "error"
    },
    {
      "inputs": [],
      "name": "ProjectDoesNotExist",
      "type": "error"
    },
    {
      "inputs": [],
      "name": "SameStatus",
      "type": "error"
    },
    {
      "anonymous": false,
      "inputs": [
        {
          "indexed": true,
          "internalType": "uint256",
          "name": "projectId",
          "type": "uint256"
        },
        {
          "indexed": true,
          "internalType": "address",
          "name": "account",
          "type": "address"
        }
      ],
      "name": "Created",
      "type": "event"
    },
    {
      "anonymous": false,
      "inputs": [
        {
          "indexed": true,
          "internalType": "uint256",
          "name": "projectId",
          "type": "uint256"
        },
        {
          "indexed": false,
          "internalType": "uint256",
          "name": "index",
          "type": "uint256"
        }
      ],
      "name": "DocumentAdded",
      "type": "event"
    },
    {
      "anonymous": false,
      "inputs": [
        {
          "indexed": true,
          "internalType": "uint256",
          "name": "projectId",
          "type": "uint256"
        },
        {
          "indexed": true,
          "internalType": "address",
          "name": "account",
          "type": "address"
        },
        {
          "indexed": false,
          "internalType": "uint256",
          "name": "amount",
          "type": "uint256"
        }
      ],
      "name": "Minted",
      "type": "event"
    },
    {
      "anonymous": false,
      "inputs": [
        {
          "indexed": true,
          "internalType": "address",
          "name": "previousOwner",
          "type": "address"
        },
        {
          "indexed": true,
          "internalType": "address",
          "name": "newOwner",
          "type": "address"
        }
      ],
      "name": "OwnershipTransferred",
      "type": "event"
    },
    {
      "anonymous": false,
      "inputs": [
        {
          "indexed": true,
          "internalType": "uint256",
          "name": "projectId",
          "type": "uint256"
        },
        {
          "indexed": false,
          "internalType": "uint256",
          "name": "index",
          "type": "uint256"
        }
      ],
      "name": "PhotoAdded",
      "type": "event"
    },
    {
      "anonymous": false,
      "inputs": [
        {
          "indexed": true,
          "internalType": "uint256",
          "name": "projectId",
          "type": "uint256"
        },
        {
          "indexed": true,
          "internalType": "enum ProjectManager.Status",
          "name": "status",
          "type": "uint8"
        }
      ],
      "name": "StatusChanged",
      "type": "event"
    },
    {
      "inputs": [
        {
          "internalType": "uint256",
          "name": "projectId",
          "type": "uint256"
        },
        {
          "internalType": "string",
          "name": "documentUrl",
          "type": "string"
        }
      ],
      "name": "addDocument",
      "outputs": [],
      "stateMutability": "nonpayable",
      "type": "function"
    },
    {
      "inputs": [
        {
          "internalType": "uint256",
          "name": "projectId",
          "type": "uint256"
        },
        {
          "internalType": "string",
          "name": "photoUrl",
          "type": "string"
        }
      ],
      "name": "addPhoto",
      "outputs": [],
      "stateMutability": "nonpayable",
      "type": "function"
    },
    {
      "inputs": [
        {
          "components": [
            {
              "internalType": "address",
              "name": "projectHolder",
              "type": "address"
            },
            {
              "internalType": "string",
              "name": "name",
              "type": "string"
            },
            {
              "internalType": "string",
              "name": "description",
              "type": "string"
            },
            {
              "internalType": "string",
              "name": "externalUrl",
              "type": "string"
            },
            {
              "internalType": "string",
              "name": "image",
              "type": "string"
            },
            {
              "components": [
                {
                  "internalType": "uint8",
                  "name": "duration",
                  "type": "uint8"
                },
                {
                  "internalType": "uint64",
                  "name": "ares",
                  "type": "uint64"
                },
                {
                  "internalType": "uint64",
                  "name": "expectedCo2Tons",
                  "type": "uint64"
                },
                {
                  "internalType": "uint64",
                  "name": "startDate",
                  "type": "uint64"
                },
                {
                  "internalType": "string",
                  "name": "continent",
                  "type": "string"
                },
                {
                  "internalType": "string",
                  "name": "country",
                  "type": "string"
                },
                {
                  "internalType": "string",
                  "name": "region",
                  "type": "string"
                },
                {
                  "internalType": "string",
                  "name": "province",
                  "type": "string"
                },
                {
                  "internalType": "string",
                  "name": "city",
                  "type": "string"
                },
                {
                  "internalType": "string",
                  "name": "location",
                  "type": "string"
                },
                {
                  "internalType": "string",
                  "name": "coordinates",
                  "type": "string"
                },
                {
                  "internalType": "string",
                  "name": "plantedSpecies",
                  "type": "string"
                },
                {
                  "internalType": "string",
                  "name": "calculationMethod",
                  "type": "string"
                },
                {
                  "internalType": "uint8[]",
                  "name": "unSDGs",
                  "type": "uint8[]"
                }
              ],
              "internalType": "struct ProjectManager.ProjectData",
              "name": "data",
              "type": "tuple"
            }
          ],
          "internalType": "struct ProjectManager.CreateParams",
          "name": "newProject",
          "type": "tuple"
        }
      ],
      "name": "create",
      "outputs": [],
      "stateMutability": "nonpayable",
      "type": "function"
    },
    {
      "inputs": [
        {
          "internalType": "uint256",
          "name": "projectId",
          "type": "uint256"
        }
      ],
      "name": "get",
      "outputs": [
        {
          "components": [
            {
              "internalType": "bool",
              "name": "isRegistered",
              "type": "bool"
            },
            {
              "internalType": "address",
              "name": "projectHolder",
              "type": "address"
            },
            {
              "internalType": "uint256",
              "name": "id",
              "type": "uint256"
            },
            {
              "internalType": "string",
              "name": "name",
              "type": "string"
            },
            {
              "internalType": "string",
              "name": "description",
              "type": "string"
            },
            {
              "internalType": "string",
              "name": "externalUrl",
              "type": "string"
            },
            {
              "internalType": "string",
              "name": "image",
              "type": "string"
            },
            {
              "internalType": "string[]",
              "name": "photoUrls",
              "type": "string[]"
            },
            {
              "internalType": "string[]",
              "name": "documentUrls",
              "type": "string[]"
            },
            {
              "components": [
                {
                  "internalType": "uint8",
                  "name": "duration",
                  "type": "uint8"
                },
                {
                  "internalType": "uint64",
                  "name": "ares",
                  "type": "uint64"
                },
                {
                  "internalType": "uint64",
                  "name": "expectedCo2Tons",
                  "type": "uint64"
                },
                {
                  "internalType": "uint64",
                  "name": "startDate",
                  "type": "uint64"
                },
                {
                  "internalType": "string",
                  "name": "continent",
                  "type": "string"
                },
                {
                  "internalType": "string",
                  "name": "country",
                  "type": "string"
                },
                {
                  "internalType": "string",
                  "name": "region",
                  "type": "string"
                },
                {
                  "internalType": "string",
                  "name": "province",
                  "type": "string"
                },
                {
                  "internalType": "string",
                  "name": "city",
                  "type": "string"
                },
                {
                  "internalType": "string",
                  "name": "location",
                  "type": "string"
                },
                {
                  "internalType": "string",
                  "name": "coordinates",
                  "type": "string"
                },
                {
                  "internalType": "string",
                  "name": "plantedSpecies",
                  "type": "string"
                },
                {
                  "internalType": "string",
                  "name": "calculationMethod",
                  "type": "string"
                },
                {
                  "internalType": "uint8[]",
                  "name": "unSDGs",
                  "type": "uint8[]"
                }
              ],
              "internalType": "struct ProjectManager.ProjectData",
              "name": "data",
              "type": "tuple"
            },
            {
              "internalType": "enum ProjectManager.Status",
              "name": "status",
              "type": "uint8"
            }
          ],
          "internalType": "struct ProjectManager.Project",
          "name": "",
          "type": "tuple"
        }
      ],
      "stateMutability": "view",
      "type": "function"
    },
    {
      "inputs": [
        {
          "internalType": "uint256",
          "name": "projectId",
          "type": "uint256"
        },
        {
          "internalType": "uint256",
          "name": "amount",
          "type": "uint256"
        },
        {
          "internalType": "string",
          "name": "base64Metadata",
          "type": "string"
        }
      ],
      "name": "mintTokens",
      "outputs": [],
      "stateMutability": "nonpayable",
      "type": "function"
    },
    {
      "inputs": [],
      "name": "owner",
      "outputs": [
        {
          "internalType": "address",
          "name": "",
          "type": "address"
        }
      ],
      "stateMutability": "view",
      "type": "function"
    },
    {
      "inputs": [],
      "name": "renounceOwnership",
      "outputs": [],
      "stateMutability": "nonpayable",
      "type": "function"
    },
    {
      "inputs": [],
      "name": "securityFund",
      "outputs": [
        {
          "internalType": "address",
          "name": "",
          "type": "address"
        }
      ],
      "stateMutability": "view",
      "type": "function"
    },
    {
      "inputs": [
        {
          "internalType": "uint256",
          "name": "projectId",
          "type": "uint256"
        },
        {
          "internalType": "enum ProjectManager.Status",
          "name": "status",
          "type": "uint8"
        }
      ],
      "name": "setStatus",
      "outputs": [],
      "stateMutability": "nonpayable",
      "type": "function"
    },
    {
      "inputs": [],
      "name": "tco2Contract",
      "outputs": [
        {
          "internalType": "contract TCO2",
          "name": "",
          "type": "address"
        }
      ],
      "stateMutability": "view",
      "type": "function"
    },
    {
      "inputs": [],
      "name": "totalProjects",
      "outputs": [
        {
          "internalType": "uint256",
          "name": "",
          "type": "uint256"
        }
      ],
      "stateMutability": "view",
      "type": "function"
    },
    {
      "inputs": [
        {
          "internalType": "address",
          "name": "newOwner",
          "type": "address"
        }
      ],
      "name": "transferOwnership",
      "outputs": [],
      "stateMutability": "nonpayable",
      "type": "function"
    }
  ],
  "bytecode": "0x60c06040523480156200001157600080fd5b5060405162003b3938038062003b398339818101604052810190620000379190620002fe565b82600073ffffffffffffffffffffffffffffffffffffffff168173ffffffffffffffffffffffffffffffffffffffff1603620000ad5760006040517f1e4fbdf7000000000000000000000000000000000000000000000000000000008152600401620000a491906200036b565b60405180910390fd5b620000be81620001d060201b60201c565b50600073ffffffffffffffffffffffffffffffffffffffff168273ffffffffffffffffffffffffffffffffffffffff161480620001275750600073ffffffffffffffffffffffffffffffffffffffff168173ffffffffffffffffffffffffffffffffffffffff16145b156200015f576040517f9fabe1c100000000000000000000000000000000000000000000000000000000815260040160405180910390fd5b8073ffffffffffffffffffffffffffffffffffffffff1660a08173ffffffffffffffffffffffffffffffffffffffff16815250508173ffffffffffffffffffffffffffffffffffffffff1660808173ffffffffffffffffffffffffffffffffffffffff168152505050505062000388565b60008060009054906101000a900473ffffffffffffffffffffffffffffffffffffffff169050816000806101000a81548173ffffffffffffffffffffffffffffffffffffffff021916908373ffffffffffffffffffffffffffffffffffffffff1602179055508173ffffffffffffffffffffffffffffffffffffffff168173ffffffffffffffffffffffffffffffffffffffff167f8be0079c531659141344cd1fd0a4f28419497f9722a3daafe3b4186f6b6457e060405160405180910390a35050565b600080fd5b600073ffffffffffffffffffffffffffffffffffffffff82169050919050565b6000620002c68262000299565b9050919050565b620002d881620002b9565b8114620002e457600080fd5b50565b600081519050620002f881620002cd565b92915050565b6000806000606084860312156200031a576200031962000294565b5b60006200032a86828701620002e7565b93505060206200033d86828701620002e7565b92505060406200035086828701620002e7565b9150509250925092565b6200036581620002b9565b82525050565b60006020820190506200038260008301846200035a565b92915050565b60805160a051613768620003d1600039600081816118a601528181611a1f01528181611c300152611ce201526000818161167a01528181611bc00152611d1e01526137686000f3fe608060405234801561001057600080fd5b50600436106100b45760003560e01c80639c361e4e116100715780639c361e4e14610165578063d5fa2e8014610183578063d896dd64146101a1578063db0a0ba7146101bd578063f04009b9146101db578063f2fde38b146101f7576100b4565b806303083f92146100b9578063715018a6146100d557806381dac842146100df5780638bfb1d07146100fb5780638da5cb5b146101175780639507d39a14610135575b600080fd5b6100d360048036038101906100ce919061243b565b610213565b005b6100dd6103b7565b005b6100f960048036038101906100f491906129d2565b6103cb565b005b6101156004803603810190610110919061243b565b610903565b005b61011f610aa7565b60405161012c9190612a2a565b60405180910390f35b61014f600480360381019061014a9190612a45565b610ad0565b60405161015c9190612fb6565b60405180910390f35b61016d611672565b60405161017a9190612fe7565b60405180910390f35b61018b611678565b6040516101989190612a2a565b60405180910390f35b6101bb60048036038101906101b69190613027565b61169c565b005b6101c56118a4565b6040516101d291906130c6565b60405180910390f35b6101f560048036038101906101f091906130e1565b6118c8565b005b610211600480360381019061020c9190613150565b611d9d565b005b61021b611e23565b816002600082815260200190815260200160002060000160009054906101000a900460ff16610276576040517f38fde52b00000000000000000000000000000000000000000000000000000000815260040160405180910390fd5b8260006002600083815260200190815260200160002060130160009054906101000a900460ff169050600060038111156102b3576102b2612e26565b5b8160038111156102c6576102c5612e26565b5b14806102f557506003808111156102e0576102df612e26565b5b8160038111156102f3576102f2612e26565b5b145b1561032c576040517f2076c6f700000000000000000000000000000000000000000000000000000000815260040160405180910390fd5b600061033786611eaa565b9050857f37ddaeaef11383d4103aae327e269ca648a3bde2588b6c86ba50dee8a0e9fb7982600601805490506040516103709190612fe7565b60405180910390a280600601859080600181540180825580915050600190039060005260206000200160009091909190915090816103ae919061337f565b50505050505050565b6103bf611e23565b6103c96000611ec6565b565b6103d3611e23565b60008067ffffffffffffffff8111156103ef576103ee612310565b5b60405190808252806020026020018201604052801561042257816020015b606081526020019060019003908161040d5790505b5090506000604051806101c001604052808460a001516000015160ff1681526020018460a001516020015167ffffffffffffffff1681526020018460a001516040015167ffffffffffffffff1681526020018460a001516060015167ffffffffffffffff1681526020018460a001516080015181526020018460a0015160a0015181526020018460a0015160c0015181526020018460a0015160e0015181526020018460a00151610100015181526020018460a00151610120015181526020018460a00151610140015181526020018460a00151610160015181526020018460a00151610180015181526020018460a001516101a001518152509050604051806101600160405280600115158152602001846000015173ffffffffffffffffffffffffffffffffffffffff168152602001600154815260200184602001518152602001846040015181526020018460600151815260200184608001518152602001838152602001838152602001828152602001600160038111156105a9576105a8612e26565b5b81525060026000600154815260200190815260200160002060008201518160000160006101000a81548160ff02191690831515021790555060208201518160000160016101000a81548173ffffffffffffffffffffffffffffffffffffffff021916908373ffffffffffffffffffffffffffffffffffffffff160217905550604082015181600101556060820151816002019081610647919061337f565b50608082015181600301908161065d919061337f565b5060a0820151816004019081610673919061337f565b5060c0820151816005019081610689919061337f565b5060e08201518160060190805190602001906106a6929190612010565b506101008201518160070190805190602001906106c4929190612010565b506101208201518160080160008201518160000160006101000a81548160ff021916908360ff16021790555060208201518160000160016101000a81548167ffffffffffffffff021916908367ffffffffffffffff16021790555060408201518160000160096101000a81548167ffffffffffffffff021916908367ffffffffffffffff16021790555060608201518160000160116101000a81548167ffffffffffffffff021916908367ffffffffffffffff1602179055506080820151816001019081610792919061337f565b5060a08201518160020190816107a8919061337f565b5060c08201518160030190816107be919061337f565b5060e08201518160040190816107d4919061337f565b506101008201518160050190816107eb919061337f565b50610120820151816006019081610802919061337f565b50610140820151816007019081610819919061337f565b50610160820151816008019081610830919061337f565b50610180820151816009019081610847919061337f565b506101a082015181600a019080519060200190610865929190612069565b5050506101408201518160130160006101000a81548160ff0219169083600381111561089457610893612e26565b5b0217905550905050826000015173ffffffffffffffffffffffffffffffffffffffff166001547f7757890bcab34d673dfca6b71df1b57f75a2fe4231d6e8de726caf534ab1fdd660405160405180910390a3600160008154809291906108f990613480565b9190505550505050565b61090b611e23565b816002600082815260200190815260200160002060000160009054906101000a900460ff16610966576040517f38fde52b00000000000000000000000000000000000000000000000000000000815260040160405180910390fd5b8260006002600083815260200190815260200160002060130160009054906101000a900460ff169050600060038111156109a3576109a2612e26565b5b8160038111156109b6576109b5612e26565b5b14806109e557506003808111156109d0576109cf612e26565b5b8160038111156109e3576109e2612e26565b5b145b15610a1c576040517f2076c6f700000000000000000000000000000000000000000000000000000000815260040160405180910390fd5b6000610a2786611eaa565b9050857f97ae81f09ec3c6f5e65c7088d60fdbf0a931ed2f713edf58ea690e9e605c5ba18260070180549050604051610a609190612fe7565b60405180910390a28060070185908060018154018082558091505060019003906000526020600020016000909190919091509081610a9e919061337f565b50505050505050565b60008060009054906101000a900473ffffffffffffffffffffffffffffffffffffffff16905090565b610ad8612110565b816002600082815260200190815260200160002060000160009054906101000a900460ff16610b33576040517f38fde52b00000000000000000000000000000000000000000000000000000000815260040160405180910390fd5b60026000848152602001908152602001600020604051806101600160405290816000820160009054906101000a900460ff161515151581526020016000820160019054906101000a900473ffffffffffffffffffffffffffffffffffffffff1673ffffffffffffffffffffffffffffffffffffffff1673ffffffffffffffffffffffffffffffffffffffff16815260200160018201548152602001600282018054610bdd906131ac565b80601f0160208091040260200160405190810160405280929190818152602001828054610c09906131ac565b8015610c565780601f10610c2b57610100808354040283529160200191610c56565b820191906000526020600020905b815481529060010190602001808311610c3957829003601f168201915b50505050508152602001600382018054610c6f906131ac565b80601f0160208091040260200160405190810160405280929190818152602001828054610c9b906131ac565b8015610ce85780601f10610cbd57610100808354040283529160200191610ce8565b820191906000526020600020905b815481529060010190602001808311610ccb57829003601f168201915b50505050508152602001600482018054610d01906131ac565b80601f0160208091040260200160405190810160405280929190818152602001828054610d2d906131ac565b8015610d7a5780601f10610d4f57610100808354040283529160200191610d7a565b820191906000526020600020905b815481529060010190602001808311610d5d57829003601f168201915b50505050508152602001600582018054610d93906131ac565b80601f0160208091040260200160405190810160405280929190818152602001828054610dbf906131ac565b8015610e0c5780601f10610de157610100808354040283529160200191610e0c565b820191906000526020600020905b815481529060010190602001808311610def57829003601f168201915b5050505050815260200160068201805480602002602001604051908101604052809291908181526020016000905b82821015610ee6578382906000526020600020018054610e59906131ac565b80601f0160208091040260200160405190810160405280929190818152602001828054610e85906131ac565b8015610ed25780601f10610ea757610100808354040283529160200191610ed2565b820191906000526020600020905b815481529060010190602001808311610eb557829003601f168201915b505050505081526020019060010190610e3a565b50505050815260200160078201805480602002602001604051908101604052809291908181526020016000905b82821015610fbf578382906000526020600020018054610f32906131ac565b80601f0160208091040260200160405190810160405280929190818152602001828054610f5e906131ac565b8015610fab5780601f10610f8057610100808354040283529160200191610fab565b820191906000526020600020905b815481529060010190602001808311610f8e57829003601f168201915b505050505081526020019060010190610f13565b50505050815260200160088201604051806101c00160405290816000820160009054906101000a900460ff1660ff1660ff1681526020016000820160019054906101000a900467ffffffffffffffff1667ffffffffffffffff1667ffffffffffffffff1681526020016000820160099054906101000a900467ffffffffffffffff1667ffffffffffffffff1667ffffffffffffffff1681526020016000820160119054906101000a900467ffffffffffffffff1667ffffffffffffffff1667ffffffffffffffff16815260200160018201805461109b906131ac565b80601f01602080910402602001604051908101604052809291908181526020018280546110c7906131ac565b80156111145780601f106110e957610100808354040283529160200191611114565b820191906000526020600020905b8154815290600101906020018083116110f757829003601f168201915b5050505050815260200160028201805461112d906131ac565b80601f0160208091040260200160405190810160405280929190818152602001828054611159906131ac565b80156111a65780601f1061117b576101008083540402835291602001916111a6565b820191906000526020600020905b81548152906001019060200180831161118957829003601f168201915b505050505081526020016003820180546111bf906131ac565b80601f01602080910402602001604051908101604052809291908181526020018280546111eb906131ac565b80156112385780601f1061120d57610100808354040283529160200191611238565b820191906000526020600020905b81548152906001019060200180831161121b57829003601f168201915b50505050508152602001600482018054611251906131ac565b80601f016020809104026020016040519081016040528092919081815260200182805461127d906131ac565b80156112ca5780601f1061129f576101008083540402835291602001916112ca565b820191906000526020600020905b8154815290600101906020018083116112ad57829003601f168201915b505050505081526020016005820180546112e3906131ac565b80601f016020809104026020016040519081016040528092919081815260200182805461130f906131ac565b801561135c5780601f106113315761010080835404028352916020019161135c565b820191906000526020600020905b81548152906001019060200180831161133f57829003601f168201915b50505050508152602001600682018054611375906131ac565b80601f01602080910402602001604051908101604052809291908181526020018280546113a1906131ac565b80156113ee5780601f106113c3576101008083540402835291602001916113ee565b820191906000526020600020905b8154815290600101906020018083116113d157829003601f168201915b50505050508152602001600782018054611407906131ac565b80601f0160208091040260200160405190810160405280929190818152602001828054611433906131ac565b80156114805780601f1061145557610100808354040283529160200191611480565b820191906000526020600020905b81548152906001019060200180831161146357829003601f168201915b50505050508152602001600882018054611499906131ac565b80601f01602080910402602001604051908101604052809291908181526020018280546114c5906131ac565b80156115125780601f106114e757610100808354040283529160200191611512565b820191906000526020600020905b8154815290600101906020018083116114f557829003601f168201915b5050505050815260200160098201805461152b906131ac565b80601f0160208091040260200160405190810160405280929190818152602001828054611557906131ac565b80156115a45780601f10611579576101008083540402835291602001916115a4565b820191906000526020600020905b81548152906001019060200180831161158757829003601f168201915b50505050508152602001600a820180548060200260200160405190810160405280929190818152602001828054801561162257602002820191906000526020600020906000905b82829054906101000a900460ff1660ff16815260200190600101906020826000010492830192600103820291508084116115eb5790505b50505050508152505081526020016013820160009054906101000a900460ff16600381111561165457611653612e26565b5b600381111561166657611665612e26565b5b81525050915050919050565b60015481565b7f000000000000000000000000000000000000000000000000000000000000000081565b6116a4611e23565b816002600082815260200190815260200160002060000160009054906101000a900460ff166116ff576040517f38fde52b00000000000000000000000000000000000000000000000000000000815260040160405180910390fd5b8260006002600083815260200190815260200160002060130160009054906101000a900460ff1690506000600381111561173c5761173b612e26565b5b81600381111561174f5761174e612e26565b5b148061177e575060038081111561176957611768612e26565b5b81600381111561177c5761177b612e26565b5b145b156117b5576040517f2076c6f700000000000000000000000000000000000000000000000000000000815260040160405180910390fd5b60006117c086611eaa565b90508460038111156117d5576117d4612e26565b5b8160130160009054906101000a900460ff1660038111156117f9576117f8612e26565b5b03611830576040517f24904fe500000000000000000000000000000000000000000000000000000000815260040160405180910390fd5b848160130160006101000a81548160ff0219169083600381111561185757611856612e26565b5b021790555084600381111561186f5761186e612e26565b5b867f365a3d0a71be5f440c8224437355d5bd81a703759bf906e441902272bfbafcb360405160405180910390a3505050505050565b7f000000000000000000000000000000000000000000000000000000000000000081565b6118d0611e23565b826002600082815260200190815260200160002060000160009054906101000a900460ff1661192b576040517f38fde52b00000000000000000000000000000000000000000000000000000000815260040160405180910390fd5b8360006002600083815260200190815260200160002060130160009054906101000a900460ff1690506000600381111561196857611967612e26565b5b81600381111561197b5761197a612e26565b5b14806119aa575060038081111561199557611994612e26565b5b8160038111156119a8576119a7612e26565b5b145b156119e1576040517f2076c6f700000000000000000000000000000000000000000000000000000000815260040160405180910390fd5b60008503611a1b576040517f6786560c00000000000000000000000000000000000000000000000000000000815260040160405180910390fd5b60007f000000000000000000000000000000000000000000000000000000000000000073ffffffffffffffffffffffffffffffffffffffff16634f558e79886040518263ffffffff1660e01b8152600401611a769190612fe7565b602060405180830381865afa158015611a93573d6000803e3d6000fd5b505050506040513d601f19601f82011682018060405250810190611ab791906134f4565b159050808015611ac8575060008551145b80611ade575080158015611add575060008551115b5b15611b15576040517fbcecb64a00000000000000000000000000000000000000000000000000000000815260040160405180910390fd5b600080611b23886014611f8a565b91509150600080821190506000600260008c815260200190815260200160002060000160019054906101000a900473ffffffffffffffffffffffffffffffffffffffff1690508073ffffffffffffffffffffffffffffffffffffffff168b7fc9d0543a84d3510329c0783b91576878ceb484e8699944cb5610c3436b3b8e3986604051611bb09190612fe7565b60405180910390a38115611c2e577f000000000000000000000000000000000000000000000000000000000000000073ffffffffffffffffffffffffffffffffffffffff168b7fc9d0543a84d3510329c0783b91576878ceb484e8699944cb5610c3436b3b8e3985604051611c259190612fe7565b60405180910390a35b7f000000000000000000000000000000000000000000000000000000000000000073ffffffffffffffffffffffffffffffffffffffff1663bb7fde71828d8789611c875760405180602001604052806000815250611c89565b8d5b6040518563ffffffff1660e01b8152600401611ca8949392919061356b565b600060405180830381600087803b158015611cc257600080fd5b505af1158015611cd6573d6000803e3d6000fd5b505050508115611d90577f000000000000000000000000000000000000000000000000000000000000000073ffffffffffffffffffffffffffffffffffffffff1663bb7fde717f00000000000000000000000000000000000000000000000000000000000000008d866040518463ffffffff1660e01b8152600401611d5d939291906135dd565b600060405180830381600087803b158015611d7757600080fd5b505af1158015611d8b573d6000803e3d6000fd5b505050505b5050505050505050505050565b611da5611e23565b600073ffffffffffffffffffffffffffffffffffffffff168173ffffffffffffffffffffffffffffffffffffffff1603611e175760006040517f1e4fbdf7000000000000000000000000000000000000000000000000000000008152600401611e0e9190612a2a565b60405180910390fd5b611e2081611ec6565b50565b611e2b612008565b73ffffffffffffffffffffffffffffffffffffffff16611e49610aa7565b73ffffffffffffffffffffffffffffffffffffffff1614611ea857611e6c612008565b6040517f118cdaa7000000000000000000000000000000000000000000000000000000008152600401611e9f9190612a2a565b60405180910390fd5b565b6000600260008381526020019081526020016000209050919050565b60008060009054906101000a900473ffffffffffffffffffffffffffffffffffffffff169050816000806101000a81548173ffffffffffffffffffffffffffffffffffffffff021916908373ffffffffffffffffffffffffffffffffffffffff1602179055508173ffffffffffffffffffffffffffffffffffffffff168173ffffffffffffffffffffffffffffffffffffffff167f8be0079c531659141344cd1fd0a4f28419497f9722a3daafe3b4186f6b6457e060405160405180910390a35050565b60008060006064846064611f9e9190613627565b60ff1686611fac919061365c565b611fb691906136cd565b9050600060648560ff1687611fcb919061365c565b611fd591906136cd565b90508082611fe391906136fe565b861115611ff9578180611ff590613480565b9250505b81819350935050509250929050565b600033905090565b828054828255906000526020600020908101928215612058579160200282015b82811115612057578251829081612047919061337f565b5091602001919060010190612030565b5b509050612065919061219a565b5090565b82805482825590600052602060002090601f016020900481019282156120ff5791602002820160005b838211156120d057835183826101000a81548160ff021916908360ff1602179055509260200192600101602081600001049283019260010302612092565b80156120fd5782816101000a81549060ff02191690556001016020816000010492830192600103026120d0565b505b50905061210c91906121be565b5090565b604051806101600160405280600015158152602001600073ffffffffffffffffffffffffffffffffffffffff1681526020016000815260200160608152602001606081526020016060815260200160608152602001606081526020016060815260200161217b6121db565b81526020016000600381111561219457612193612e26565b5b81525090565b5b808211156121ba57600081816121b1919061226b565b5060010161219b565b5090565b5b808211156121d75760008160009055506001016121bf565b5090565b604051806101c00160405280600060ff168152602001600067ffffffffffffffff168152602001600067ffffffffffffffff168152602001600067ffffffffffffffff168152602001606081526020016060815260200160608152602001606081526020016060815260200160608152602001606081526020016060815260200160608152602001606081525090565b508054612277906131ac565b6000825580601f1061228957506122a8565b601f0160209004906000526020600020908101906122a791906121be565b5b50565b6000604051905090565b600080fd5b600080fd5b6000819050919050565b6122d2816122bf565b81146122dd57600080fd5b50565b6000813590506122ef816122c9565b92915050565b600080fd5b600080fd5b6000601f19601f8301169050919050565b7f4e487b7100000000000000000000000000000000000000000000000000000000600052604160045260246000fd5b612348826122ff565b810181811067ffffffffffffffff8211171561236757612366612310565b5b80604052505050565b600061237a6122ab565b9050612386828261233f565b919050565b600067ffffffffffffffff8211156123a6576123a5612310565b5b6123af826122ff565b9050602081019050919050565b82818337600083830152505050565b60006123de6123d98461238b565b612370565b9050828152602081018484840111156123fa576123f96122fa565b5b6124058482856123bc565b509392505050565b600082601f830112612422576124216122f5565b5b81356124328482602086016123cb565b91505092915050565b60008060408385031215612452576124516122b5565b5b6000612460858286016122e0565b925050602083013567ffffffffffffffff811115612481576124806122ba565b5b61248d8582860161240d565b9150509250929050565b600080fd5b600080fd5b600073ffffffffffffffffffffffffffffffffffffffff82169050919050565b60006124cc826124a1565b9050919050565b6124dc816124c1565b81146124e757600080fd5b50565b6000813590506124f9816124d3565b92915050565b600060ff82169050919050565b612515816124ff565b811461252057600080fd5b50565b6000813590506125328161250c565b92915050565b600067ffffffffffffffff82169050919050565b61255581612538565b811461256057600080fd5b50565b6000813590506125728161254c565b92915050565b600067ffffffffffffffff82111561259357612592612310565b5b602082029050602081019050919050565b600080fd5b60006125bc6125b784612578565b612370565b905080838252602082019050602084028301858111156125df576125de6125a4565b5b835b8181101561260857806125f48882612523565b8452602084019350506020810190506125e1565b5050509392505050565b600082601f830112612627576126266122f5565b5b81356126378482602086016125a9565b91505092915050565b60006101c0828403121561265757612656612497565b5b6126626101c0612370565b9050600061267284828501612523565b600083015250602061268684828501612563565b602083015250604061269a84828501612563565b60408301525060606126ae84828501612563565b606083015250608082013567ffffffffffffffff8111156126d2576126d161249c565b5b6126de8482850161240d565b60808301525060a082013567ffffffffffffffff8111156127025761270161249c565b5b61270e8482850161240d565b60a08301525060c082013567ffffffffffffffff8111156127325761273161249c565b5b61273e8482850161240d565b60c08301525060e082013567ffffffffffffffff8111156127625761276161249c565b5b61276e8482850161240d565b60e08301525061010082013567ffffffffffffffff8111156127935761279261249c565b5b61279f8482850161240d565b6101008301525061012082013567ffffffffffffffff8111156127c5576127c461249c565b5b6127d18482850161240d565b6101208301525061014082013567ffffffffffffffff8111156127f7576127f661249c565b5b6128038482850161240d565b6101408301525061016082013567ffffffffffffffff8111156128295761282861249c565b5b6128358482850161240d565b6101608301525061018082013567ffffffffffffffff81111561285b5761285a61249c565b5b6128678482850161240d565b610180830152506101a082013567ffffffffffffffff81111561288d5761288c61249c565b5b61289984828501612612565b6101a08301525092915050565b600060c082840312156128bc576128bb612497565b5b6128c660c0612370565b905060006128d6848285016124ea565b600083015250602082013567ffffffffffffffff8111156128fa576128f961249c565b5b6129068482850161240d565b602083015250604082013567ffffffffffffffff81111561292a5761292961249c565b5b6129368482850161240d565b604083015250606082013567ffffffffffffffff81111561295a5761295961249c565b5b6129668482850161240d565b606083015250608082013567ffffffffffffffff81111561298a5761298961249c565b5b6129968482850161240d565b60808301525060a082013567ffffffffffffffff8111156129ba576129b961249c565b5b6129c684828501612640565b60a08301525092915050565b6000602082840312156129e8576129e76122b5565b5b600082013567ffffffffffffffff811115612a0657612a056122ba565b5b612a12848285016128a6565b91505092915050565b612a24816124c1565b82525050565b6000602082019050612a3f6000830184612a1b565b92915050565b600060208284031215612a5b57612a5a6122b5565b5b6000612a69848285016122e0565b91505092915050565b60008115159050919050565b612a8781612a72565b82525050565b612a96816124c1565b82525050565b612aa5816122bf565b82525050565b600081519050919050565b600082825260208201905092915050565b60005b83811015612ae5578082015181840152602081019050612aca565b60008484015250505050565b6000612afc82612aab565b612b068185612ab6565b9350612b16818560208601612ac7565b612b1f816122ff565b840191505092915050565b600081519050919050565b600082825260208201905092915050565b6000819050602082019050919050565b6000612b628383612af1565b905092915050565b6000602082019050919050565b6000612b8282612b2a565b612b8c8185612b35565b935083602082028501612b9e85612b46565b8060005b85811015612bda5784840389528151612bbb8582612b56565b9450612bc683612b6a565b925060208a01995050600181019050612ba2565b50829750879550505050505092915050565b612bf5816124ff565b82525050565b612c0481612538565b82525050565b600081519050919050565b600082825260208201905092915050565b6000819050602082019050919050565b6000612c428383612bec565b60208301905092915050565b6000602082019050919050565b6000612c6682612c0a565b612c708185612c15565b9350612c7b83612c26565b8060005b83811015612cac578151612c938882612c36565b9750612c9e83612c4e565b925050600181019050612c7f565b5085935050505092915050565b60006101c083016000830151612cd26000860182612bec565b506020830151612ce56020860182612bfb565b506040830151612cf86040860182612bfb565b506060830151612d0b6060860182612bfb565b5060808301518482036080860152612d238282612af1565b91505060a083015184820360a0860152612d3d8282612af1565b91505060c083015184820360c0860152612d578282612af1565b91505060e083015184820360e0860152612d718282612af1565b915050610100830151848203610100860152612d8d8282612af1565b915050610120830151848203610120860152612da98282612af1565b915050610140830151848203610140860152612dc58282612af1565b915050610160830151848203610160860152612de18282612af1565b915050610180830151848203610180860152612dfd8282612af1565b9150506101a08301518482036101a0860152612e198282612c5b565b9150508091505092915050565b7f4e487b7100000000000000000000000000000000000000000000000000000000600052602160045260246000fd5b60048110612e6657612e65612e26565b5b50565b6000819050612e7782612e55565b919050565b6000612e8782612e69565b9050919050565b612e9781612e7c565b82525050565b600061016083016000830151612eb66000860182612a7e565b506020830151612ec96020860182612a8d565b506040830151612edc6040860182612a9c565b5060608301518482036060860152612ef48282612af1565b91505060808301518482036080860152612f0e8282612af1565b91505060a083015184820360a0860152612f288282612af1565b91505060c083015184820360c0860152612f428282612af1565b91505060e083015184820360e0860152612f5c8282612b77565b915050610100830151848203610100860152612f788282612b77565b915050610120830151848203610120860152612f948282612cb9565b915050610140830151612fab610140860182612e8e565b508091505092915050565b60006020820190508181036000830152612fd08184612e9d565b905092915050565b612fe1816122bf565b82525050565b6000602082019050612ffc6000830184612fd8565b92915050565b6004811061300f57600080fd5b50565b60008135905061302181613002565b92915050565b6000806040838503121561303e5761303d6122b5565b5b600061304c858286016122e0565b925050602061305d85828601613012565b9150509250929050565b6000819050919050565b600061308c613087613082846124a1565b613067565b6124a1565b9050919050565b600061309e82613071565b9050919050565b60006130b082613093565b9050919050565b6130c0816130a5565b82525050565b60006020820190506130db60008301846130b7565b92915050565b6000806000606084860312156130fa576130f96122b5565b5b6000613108868287016122e0565b9350506020613119868287016122e0565b925050604084013567ffffffffffffffff81111561313a576131396122ba565b5b6131468682870161240d565b9150509250925092565b600060208284031215613166576131656122b5565b5b6000613174848285016124ea565b91505092915050565b7f4e487b7100000000000000000000000000000000000000000000000000000000600052602260045260246000fd5b600060028204905060018216806131c457607f821691505b6020821081036131d7576131d661317d565b5b50919050565b60008190508160005260206000209050919050565b60006020601f8301049050919050565b600082821b905092915050565b60006008830261323f7fffffffffffffffffffffffffffffffffffffffffffffffffffffffffffffffff82613202565b6132498683613202565b95508019841693508086168417925050509392505050565b600061327c613277613272846122bf565b613067565b6122bf565b9050919050565b6000819050919050565b61329683613261565b6132aa6132a282613283565b84845461320f565b825550505050565b600090565b6132bf6132b2565b6132ca81848461328d565b505050565b5b818110156132ee576132e36000826132b7565b6001810190506132d0565b5050565b601f82111561333357613304816131dd565b61330d846131f2565b8101602085101561331c578190505b613330613328856131f2565b8301826132cf565b50505b505050565b600082821c905092915050565b600061335660001984600802613338565b1980831691505092915050565b600061336f8383613345565b9150826002028217905092915050565b61338882612aab565b67ffffffffffffffff8111156133a1576133a0612310565b5b6133ab82546131ac565b6133b68282856132f2565b600060209050601f8311600181146133e957600084156133d7578287015190505b6133e18582613363565b865550613449565b601f1984166133f7866131dd565b60005b8281101561341f578489015182556001820191506020850194506020810190506133fa565b8683101561343c5784890151613438601f891682613345565b8355505b6001600288020188555050505b505050505050565b7f4e487b7100000000000000000000000000000000000000000000000000000000600052601160045260246000fd5b600061348b826122bf565b91507fffffffffffffffffffffffffffffffffffffffffffffffffffffffffffffffff82036134bd576134bc613451565b5b600182019050919050565b6134d181612a72565b81146134dc57600080fd5b50565b6000815190506134ee816134c8565b92915050565b60006020828403121561350a576135096122b5565b5b6000613518848285016134df565b91505092915050565b600082825260208201905092915050565b600061353d82612aab565b6135478185613521565b9350613557818560208601612ac7565b613560816122ff565b840191505092915050565b60006080820190506135806000830187612a1b565b61358d6020830186612fd8565b61359a6040830185612fd8565b81810360608301526135ac8184613532565b905095945050505050565b50565b60006135c7600083613521565b91506135d2826135b7565b600082019050919050565b60006080820190506135f26000830186612a1b565b6135ff6020830185612fd8565b61360c6040830184612fd8565b818103606083015261361d816135ba565b9050949350505050565b6000613632826124ff565b915061363d836124ff565b9250828203905060ff81111561365657613655613451565b5b92915050565b6000613667826122bf565b9150613672836122bf565b9250828202613680816122bf565b9150828204841483151761369757613696613451565b5b5092915050565b7f4e487b7100000000000000000000000000000000000000000000000000000000600052601260045260246000fd5b60006136d8826122bf565b91506136e3836122bf565b9250826136f3576136f261369e565b5b828204905092915050565b6000613709826122bf565b9150613714836122bf565b925082820190508082111561372c5761372b613451565b5b9291505056fea2646970667358221220ddf15b8fff2a6a21d226762423a52d06f26dfe69ef4ad09f58095d1199ab317a64736f6c63430008180033",
  "linkReferences": {},
  "deployedLinkReferences": {}
}