{
  "_format": "hh-sol-artifact-1",
  "contractName": "TCO2",
  "sourceName": "contracts/TCO2.sol",
  "abi": [
    {
      "inputs": [
        {
          "internalType": "address",
          "name": "initialOwner",
          "type": "address"
        }
      ],
      "stateMutability": "nonpayable",
      "type": "constructor"
    },
    {
      "inputs": [
        {
          "internalType": "address",
          "name": "sender",
          "type": "address"
        },
        {
          "internalType": "uint256",
          "name": "balance",
          "type": "uint256"
        },
        {
          "internalType": "uint256",
          "name": "needed",
          "type": "uint256"
        },
        {
          "internalType": "uint256",
          "name": "tokenId",
          "type": "uint256"
        }
      ],
      "name": "ERC1155InsufficientBalance",
      "type": "error"
    },
    {
      "inputs": [
        {
          "internalType": "address",
          "name": "approver",
          "type": "address"
        }
      ],
      "name": "ERC1155InvalidApprover",
      "type": "error"
    },
    {
      "inputs": [
        {
          "internalType": "uint256",
          "name": "idsLength",
          "type": "uint256"
        },
        {
          "internalType": "uint256",
          "name": "valuesLength",
          "type": "uint256"
        }
      ],
      "name": "ERC1155InvalidArrayLength",
      "type": "error"
    },
    {
      "inputs": [
        {
          "internalType": "address",
          "name": "operator",
          "type": "address"
        }
      ],
      "name": "ERC1155InvalidOperator",
      "type": "error"
    },
    {
      "inputs": [
        {
          "internalType": "address",
          "name": "receiver",
          "type": "address"
        }
      ],
      "name": "ERC1155InvalidReceiver",
      "type": "error"
    },
    {
      "inputs": [
        {
          "internalType": "address",
          "name": "sender",
          "type": "address"
        }
      ],
      "name": "ERC1155InvalidSender",
      "type": "error"
    },
    {
      "inputs": [
        {
          "internalType": "address",
          "name": "operator",
          "type": "address"
        },
        {
          "internalType": "address",
          "name": "owner",
          "type": "address"
        }
      ],
      "name": "ERC1155MissingApprovalForAll",
      "type": "error"
    },
    {
      "inputs": [],
      "name": "EmptyMetadata",
      "type": "error"
    },
    {
      "inputs": [
        {
          "internalType": "address",
          "name": "owner",
          "type": "address"
        }
      ],
      "name": "OwnableInvalidOwner",
      "type": "error"
    },
    {
      "inputs": [
        {
          "internalType": "address",
          "name": "account",
          "type": "address"
        }
      ],
      "name": "OwnableUnauthorizedAccount",
      "type": "error"
    },
    {
      "anonymous": false,
      "inputs": [
        {
          "indexed": true,
          "internalType": "address",
          "name": "account",
          "type": "address"
        },
        {
          "indexed": true,
          "internalType": "address",
          "name": "operator",
          "type": "address"
        },
        {
          "indexed": false,
          "internalType": "bool",
          "name": "approved",
          "type": "bool"
        }
      ],
      "name": "ApprovalForAll",
      "type": "event"
    },
    {
      "anonymous": false,
      "inputs": [
        {
          "indexed": true,
          "internalType": "address",
          "name": "previousOwner",
          "type": "address"
        },
        {
          "indexed": true,
          "internalType": "address",
          "name": "newOwner",
          "type": "address"
        }
      ],
      "name": "OwnershipTransferred",
      "type": "event"
    },
    {
      "anonymous": false,
      "inputs": [
        {
          "indexed": true,
          "internalType": "address",
          "name": "operator",
          "type": "address"
        },
        {
          "indexed": true,
          "internalType": "address",
          "name": "from",
          "type": "address"
        },
        {
          "indexed": true,
          "internalType": "address",
          "name": "to",
          "type": "address"
        },
        {
          "indexed": false,
          "internalType": "uint256[]",
          "name": "ids",
          "type": "uint256[]"
        },
        {
          "indexed": false,
          "internalType": "uint256[]",
          "name": "values",
          "type": "uint256[]"
        }
      ],
      "name": "TransferBatch",
      "type": "event"
    },
    {
      "anonymous": false,
      "inputs": [
        {
          "indexed": true,
          "internalType": "address",
          "name": "operator",
          "type": "address"
        },
        {
          "indexed": true,
          "internalType": "address",
          "name": "from",
          "type": "address"
        },
        {
          "indexed": true,
          "internalType": "address",
          "name": "to",
          "type": "address"
        },
        {
          "indexed": false,
          "internalType": "uint256",
          "name": "id",
          "type": "uint256"
        },
        {
          "indexed": false,
          "internalType": "uint256",
          "name": "value",
          "type": "uint256"
        }
      ],
      "name": "TransferSingle",
      "type": "event"
    },
    {
      "anonymous": false,
      "inputs": [
        {
          "indexed": false,
          "internalType": "string",
          "name": "value",
          "type": "string"
        },
        {
          "indexed": true,
          "internalType": "uint256",
          "name": "id",
          "type": "uint256"
        }
      ],
      "name": "URI",
      "type": "event"
    },
    {
      "inputs": [
        {
          "internalType": "address",
          "name": "account",
          "type": "address"
        },
        {
          "internalType": "uint256",
          "name": "id",
          "type": "uint256"
        }
      ],
      "name": "balanceOf",
      "outputs": [
        {
          "internalType": "uint256",
          "name": "",
          "type": "uint256"
        }
      ],
      "stateMutability": "view",
      "type": "function"
    },
    {
      "inputs": [
        {
          "internalType": "address[]",
          "name": "accounts",
          "type": "address[]"
        },
        {
          "internalType": "uint256[]",
          "name": "ids",
          "type": "uint256[]"
        }
      ],
      "name": "balanceOfBatch",
      "outputs": [
        {
          "internalType": "uint256[]",
          "name": "",
          "type": "uint256[]"
        }
      ],
      "stateMutability": "view",
      "type": "function"
    },
    {
      "inputs": [
        {
          "internalType": "address",
          "name": "account",
          "type": "address"
        },
        {
          "internalType": "uint256",
          "name": "id",
          "type": "uint256"
        },
        {
          "internalType": "uint256",
          "name": "value",
          "type": "uint256"
        }
      ],
      "name": "burn",
      "outputs": [],
      "stateMutability": "nonpayable",
      "type": "function"
    },
    {
      "inputs": [
        {
          "internalType": "address",
          "name": "account",
          "type": "address"
        },
        {
          "internalType": "uint256[]",
          "name": "ids",
          "type": "uint256[]"
        },
        {
          "internalType": "uint256[]",
          "name": "values",
          "type": "uint256[]"
        }
      ],
      "name": "burnBatch",
      "outputs": [],
      "stateMutability": "nonpayable",
      "type": "function"
    },
    {
      "inputs": [],
      "name": "contractURI",
      "outputs": [
        {
          "internalType": "string",
          "name": "",
          "type": "string"
        }
      ],
      "stateMutability": "pure",
      "type": "function"
    },
    {
      "inputs": [
        {
          "internalType": "uint256",
          "name": "id",
          "type": "uint256"
        }
      ],
      "name": "exists",
      "outputs": [
        {
          "internalType": "bool",
          "name": "",
          "type": "bool"
        }
      ],
      "stateMutability": "view",
      "type": "function"
    },
    {
      "inputs": [
        {
          "internalType": "address",
          "name": "account",
          "type": "address"
        },
        {
          "internalType": "address",
          "name": "operator",
          "type": "address"
        }
      ],
      "name": "isApprovedForAll",
      "outputs": [
        {
          "internalType": "bool",
          "name": "",
          "type": "bool"
        }
      ],
      "stateMutability": "view",
      "type": "function"
    },
    {
      "inputs": [
        {
          "internalType": "address",
          "name": "account",
          "type": "address"
        },
        {
          "internalType": "uint256",
          "name": "id",
          "type": "uint256"
        },
        {
          "internalType": "uint256",
          "name": "amount",
          "type": "uint256"
        },
        {
          "internalType": "string",
          "name": "base64Metadata",
          "type": "string"
        }
      ],
      "name": "mint",
      "outputs": [],
      "stateMutability": "nonpayable",
      "type": "function"
    },
    {
      "inputs": [],
      "name": "owner",
      "outputs": [
        {
          "internalType": "address",
          "name": "",
          "type": "address"
        }
      ],
      "stateMutability": "view",
      "type": "function"
    },
    {
      "inputs": [],
      "name": "renounceOwnership",
      "outputs": [],
      "stateMutability": "nonpayable",
      "type": "function"
    },
    {
      "inputs": [
        {
          "internalType": "address",
          "name": "from",
          "type": "address"
        },
        {
          "internalType": "address",
          "name": "to",
          "type": "address"
        },
        {
          "internalType": "uint256[]",
          "name": "ids",
          "type": "uint256[]"
        },
        {
          "internalType": "uint256[]",
          "name": "values",
          "type": "uint256[]"
        },
        {
          "internalType": "bytes",
          "name": "data",
          "type": "bytes"
        }
      ],
      "name": "safeBatchTransferFrom",
      "outputs": [],
      "stateMutability": "nonpayable",
      "type": "function"
    },
    {
      "inputs": [
        {
          "internalType": "address",
          "name": "from",
          "type": "address"
        },
        {
          "internalType": "address",
          "name": "to",
          "type": "address"
        },
        {
          "internalType": "uint256",
          "name": "id",
          "type": "uint256"
        },
        {
          "internalType": "uint256",
          "name": "value",
          "type": "uint256"
        },
        {
          "internalType": "bytes",
          "name": "data",
          "type": "bytes"
        }
      ],
      "name": "safeTransferFrom",
      "outputs": [],
      "stateMutability": "nonpayable",
      "type": "function"
    },
    {
      "inputs": [
        {
          "internalType": "address",
          "name": "operator",
          "type": "address"
        },
        {
          "internalType": "bool",
          "name": "approved",
          "type": "bool"
        }
      ],
      "name": "setApprovalForAll",
      "outputs": [],
      "stateMutability": "nonpayable",
      "type": "function"
    },
    {
      "inputs": [
        {
          "internalType": "bytes4",
          "name": "interfaceId",
          "type": "bytes4"
        }
      ],
      "name": "supportsInterface",
      "outputs": [
        {
          "internalType": "bool",
          "name": "",
          "type": "bool"
        }
      ],
      "stateMutability": "view",
      "type": "function"
    },
    {
      "inputs": [],
      "name": "totalSupply",
      "outputs": [
        {
          "internalType": "uint256",
          "name": "",
          "type": "uint256"
        }
      ],
      "stateMutability": "view",
      "type": "function"
    },
    {
      "inputs": [
        {
          "internalType": "uint256",
          "name": "id",
          "type": "uint256"
        }
      ],
      "name": "totalSupply",
      "outputs": [
        {
          "internalType": "uint256",
          "name": "",
          "type": "uint256"
        }
      ],
      "stateMutability": "view",
      "type": "function"
    },
    {
      "inputs": [
        {
          "internalType": "address",
          "name": "newOwner",
          "type": "address"
        }
      ],
      "name": "transferOwnership",
      "outputs": [],
      "stateMutability": "nonpayable",
      "type": "function"
    },
    {
      "inputs": [
        {
          "internalType": "uint256",
          "name": "tokenId",
          "type": "uint256"
        }
      ],
      "name": "uri",
      "outputs": [
        {
          "internalType": "string",
          "name": "",
          "type": "string"
        }
      ],
      "stateMutability": "view",
      "type": "function"
    }
  ],
  "bytecode": "0x60806040523480156200001157600080fd5b50604051620037fa380380620037fa83398181016040528101906200003791906200022d565b80604051806020016040528060008152506200005981620000e860201b60201c565b50600073ffffffffffffffffffffffffffffffffffffffff168173ffffffffffffffffffffffffffffffffffffffff1603620000cf5760006040517f1e4fbdf7000000000000000000000000000000000000000000000000000000008152600401620000c6919062000270565b60405180910390fd5b620000e081620000fd60201b60201c565b5050620005ee565b8060029081620000f9919062000507565b5050565b6000600560009054906101000a900473ffffffffffffffffffffffffffffffffffffffff16905081600560006101000a81548173ffffffffffffffffffffffffffffffffffffffff021916908373ffffffffffffffffffffffffffffffffffffffff1602179055508173ffffffffffffffffffffffffffffffffffffffff168173ffffffffffffffffffffffffffffffffffffffff167f8be0079c531659141344cd1fd0a4f28419497f9722a3daafe3b4186f6b6457e060405160405180910390a35050565b600080fd5b600073ffffffffffffffffffffffffffffffffffffffff82169050919050565b6000620001f582620001c8565b9050919050565b6200020781620001e8565b81146200021357600080fd5b50565b6000815190506200022781620001fc565b92915050565b600060208284031215620002465762000245620001c3565b5b6000620002568482850162000216565b91505092915050565b6200026a81620001e8565b82525050565b60006020820190506200028760008301846200025f565b92915050565b600081519050919050565b7f4e487b7100000000000000000000000000000000000000000000000000000000600052604160045260246000fd5b7f4e487b7100000000000000000000000000000000000000000000000000000000600052602260045260246000fd5b600060028204905060018216806200030f57607f821691505b602082108103620003255762000324620002c7565b5b50919050565b60008190508160005260206000209050919050565b60006020601f8301049050919050565b600082821b905092915050565b6000600883026200038f7fffffffffffffffffffffffffffffffffffffffffffffffffffffffffffffffff8262000350565b6200039b868362000350565b95508019841693508086168417925050509392505050565b6000819050919050565b6000819050919050565b6000620003e8620003e2620003dc84620003b3565b620003bd565b620003b3565b9050919050565b6000819050919050565b6200040483620003c7565b6200041c6200041382620003ef565b8484546200035d565b825550505050565b600090565b6200043362000424565b62000440818484620003f9565b505050565b5b8181101562000468576200045c60008262000429565b60018101905062000446565b5050565b601f821115620004b75762000481816200032b565b6200048c8462000340565b810160208510156200049c578190505b620004b4620004ab8562000340565b83018262000445565b50505b505050565b600082821c905092915050565b6000620004dc60001984600802620004bc565b1980831691505092915050565b6000620004f78383620004c9565b9150826002028217905092915050565b62000512826200028d565b67ffffffffffffffff8111156200052e576200052d62000298565b5b6200053a8254620002f6565b620005478282856200046c565b600060209050601f8311600181146200057f57600084156200056a578287015190505b620005768582620004e9565b865550620005e6565b601f1984166200058f866200032b565b60005b82811015620005b95784890151825560018201915060208501945060208101905062000592565b86831015620005d95784890151620005d5601f891682620004c9565b8355505b6001600288020188555050505b505050505050565b6131fc80620005fe6000396000f3fe608060405234801561001057600080fd5b50600436106101155760003560e01c80638da5cb5b116100a2578063e8a3d48511610071578063e8a3d485146102f0578063e985e9c51461030e578063f242432a1461033e578063f2fde38b1461035a578063f5298aca1461037657610115565b80638da5cb5b1461026a578063a22cb46514610288578063bb7fde71146102a4578063bd85b039146102c057610115565b80632eb2c2d6116100e95780632eb2c2d6146101c85780634e1273f4146101e45780634f558e79146102145780636b20c45414610244578063715018a61461026057610115565b8062fdd58e1461011a57806301ffc9a71461014a5780630e89341c1461017a57806318160ddd146101aa575b600080fd5b610134600480360381019061012f9190611d5f565b610392565b6040516101419190611dae565b60405180910390f35b610164600480360381019061015f9190611e21565b6103ec565b6040516101719190611e69565b60405180910390f35b610194600480360381019061018f9190611e84565b6104ce565b6040516101a19190611f41565b60405180910390f35b6101b26105ba565b6040516101bf9190611dae565b60405180910390f35b6101e260048036038101906101dd9190612160565b6105c4565b005b6101fe60048036038101906101f991906122f2565b61066c565b60405161020b9190612428565b60405180910390f35b61022e60048036038101906102299190611e84565b610775565b60405161023b9190611e69565b60405180910390f35b61025e6004803603810190610259919061244a565b610789565b005b610268610835565b005b610272610849565b60405161027f91906124e4565b60405180910390f35b6102a2600480360381019061029d919061252b565b610873565b005b6102be60048036038101906102b9919061260c565b610889565b005b6102da60048036038101906102d59190611e84565b6108ca565b6040516102e79190611dae565b60405180910390f35b6102f86108e7565b6040516103059190611f41565b60405180910390f35b6103286004803603810190610323919061268f565b61090c565b6040516103359190611e69565b60405180910390f35b610358600480360381019061035391906126cf565b6109a0565b005b610374600480360381019061036f9190612766565b610a48565b005b610390600480360381019061038b9190612793565b610ace565b005b600080600083815260200190815260200160002060008473ffffffffffffffffffffffffffffffffffffffff1673ffffffffffffffffffffffffffffffffffffffff16815260200190815260200160002054905092915050565b60007fd9b67a26000000000000000000000000000000000000000000000000000000007bffffffffffffffffffffffffffffffffffffffffffffffffffffffff1916827bffffffffffffffffffffffffffffffffffffffffffffffffffffffff191614806104b757507f0e89341c000000000000000000000000000000000000000000000000000000007bffffffffffffffffffffffffffffffffffffffffffffffffffffffff1916827bffffffffffffffffffffffffffffffffffffffffffffffffffffffff1916145b806104c757506104c682610b7a565b5b9050919050565b606060006006600084815260200190815260200160002080546104f090612815565b80601f016020809104026020016040519081016040528092919081815260200182805461051c90612815565b80156105695780601f1061053e57610100808354040283529160200191610569565b820191906000526020600020905b81548152906001019060200180831161054c57829003601f168201915b50505050509050600081510361059157604051806020016040528060008152509150506105b5565b806040516020016105a291906128a8565b6040516020818303038152906040529150505b919050565b6000600454905090565b60006105ce610be4565b90508073ffffffffffffffffffffffffffffffffffffffff168673ffffffffffffffffffffffffffffffffffffffff16141580156106135750610611868261090c565b155b156106575780866040517fe237d92200000000000000000000000000000000000000000000000000000000815260040161064e9291906128ce565b60405180910390fd5b6106648686868686610bec565b505050505050565b606081518351146106b857815183516040517f5b0599910000000000000000000000000000000000000000000000000000000081526004016106af9291906128f7565b60405180910390fd5b6000835167ffffffffffffffff8111156106d5576106d4611f68565b5b6040519080825280602002602001820160405280156107035781602001602082028036833780820191505090505b50905060005b845181101561076a576107406107288287610ce490919063ffffffff16565b61073b8387610cf890919063ffffffff16565b610392565b82828151811061075357610752612920565b5b602002602001018181525050806001019050610709565b508091505092915050565b600080610781836108ca565b119050919050565b610791610be4565b73ffffffffffffffffffffffffffffffffffffffff168373ffffffffffffffffffffffffffffffffffffffff16141580156107da57506107d8836107d3610be4565b61090c565b155b15610825576107e7610be4565b836040517fe237d92200000000000000000000000000000000000000000000000000000000815260040161081c9291906128ce565b60405180910390fd5b610830838383610d0c565b505050565b61083d610da0565b6108476000610e27565b565b6000600560009054906101000a900473ffffffffffffffffffffffffffffffffffffffff16905090565b61088561087e610be4565b8383610eed565b5050565b610891610da0565b61089a83610775565b6108a9576108a8838261105d565b5b6108c4848484604051806020016040528060008152506110bd565b50505050565b600060036000838152602001908152602001600020549050919050565b60606040516020016108f890612c93565b604051602081830303815290604052905090565b6000600160008473ffffffffffffffffffffffffffffffffffffffff1673ffffffffffffffffffffffffffffffffffffffff16815260200190815260200160002060008373ffffffffffffffffffffffffffffffffffffffff1673ffffffffffffffffffffffffffffffffffffffff16815260200190815260200160002060009054906101000a900460ff16905092915050565b60006109aa610be4565b90508073ffffffffffffffffffffffffffffffffffffffff168673ffffffffffffffffffffffffffffffffffffffff16141580156109ef57506109ed868261090c565b155b15610a335780866040517fe237d922000000000000000000000000000000000000000000000000000000008152600401610a2a9291906128ce565b60405180910390fd5b610a408686868686611156565b505050505050565b610a50610da0565b600073ffffffffffffffffffffffffffffffffffffffff168173ffffffffffffffffffffffffffffffffffffffff1603610ac25760006040517f1e4fbdf7000000000000000000000000000000000000000000000000000000008152600401610ab991906124e4565b60405180910390fd5b610acb81610e27565b50565b610ad6610be4565b73ffffffffffffffffffffffffffffffffffffffff168373ffffffffffffffffffffffffffffffffffffffff1614158015610b1f5750610b1d83610b18610be4565b61090c565b155b15610b6a57610b2c610be4565b836040517fe237d922000000000000000000000000000000000000000000000000000000008152600401610b619291906128ce565b60405180910390fd5b610b75838383611261565b505050565b60007f01ffc9a7000000000000000000000000000000000000000000000000000000007bffffffffffffffffffffffffffffffffffffffffffffffffffffffff1916827bffffffffffffffffffffffffffffffffffffffffffffffffffffffff1916149050919050565b600033905090565b600073ffffffffffffffffffffffffffffffffffffffff168473ffffffffffffffffffffffffffffffffffffffff1603610c5e5760006040517f57f447ce000000000000000000000000000000000000000000000000000000008152600401610c5591906124e4565b60405180910390fd5b600073ffffffffffffffffffffffffffffffffffffffff168573ffffffffffffffffffffffffffffffffffffffff1603610cd05760006040517f01a83514000000000000000000000000000000000000000000000000000000008152600401610cc791906124e4565b60405180910390fd5b610cdd8585858585611308565b5050505050565b600060208202602084010151905092915050565b600060208202602084010151905092915050565b600073ffffffffffffffffffffffffffffffffffffffff168373ffffffffffffffffffffffffffffffffffffffff1603610d7e5760006040517f01a83514000000000000000000000000000000000000000000000000000000008152600401610d7591906124e4565b60405180910390fd5b610d9b836000848460405180602001604052806000815250611308565b505050565b610da8610be4565b73ffffffffffffffffffffffffffffffffffffffff16610dc6610849565b73ffffffffffffffffffffffffffffffffffffffff1614610e2557610de9610be4565b6040517f118cdaa7000000000000000000000000000000000000000000000000000000008152600401610e1c91906124e4565b60405180910390fd5b565b6000600560009054906101000a900473ffffffffffffffffffffffffffffffffffffffff16905081600560006101000a81548173ffffffffffffffffffffffffffffffffffffffff021916908373ffffffffffffffffffffffffffffffffffffffff1602179055508173ffffffffffffffffffffffffffffffffffffffff168173ffffffffffffffffffffffffffffffffffffffff167f8be0079c531659141344cd1fd0a4f28419497f9722a3daafe3b4186f6b6457e060405160405180910390a35050565b600073ffffffffffffffffffffffffffffffffffffffff168273ffffffffffffffffffffffffffffffffffffffff1603610f5f5760006040517fced3e100000000000000000000000000000000000000000000000000000000008152600401610f5691906124e4565b60405180910390fd5b80600160008573ffffffffffffffffffffffffffffffffffffffff1673ffffffffffffffffffffffffffffffffffffffff16815260200190815260200160002060008473ffffffffffffffffffffffffffffffffffffffff1673ffffffffffffffffffffffffffffffffffffffff16815260200190815260200160002060006101000a81548160ff0219169083151502179055508173ffffffffffffffffffffffffffffffffffffffff168373ffffffffffffffffffffffffffffffffffffffff167f17307eab39ab6107e8899845ad3d59bd9653f200f220920489ca2b5937696c31836040516110509190611e69565b60405180910390a3505050565b6000815103611098576040517fae92135700000000000000000000000000000000000000000000000000000000815260040160405180910390fd5b806006600084815260200190815260200160002090816110b89190612ebc565b505050565b600073ffffffffffffffffffffffffffffffffffffffff168473ffffffffffffffffffffffffffffffffffffffff160361112f5760006040517f57f447ce00000000000000000000000000000000000000000000000000000000815260040161112691906124e4565b60405180910390fd5b60008061113c85856113ba565b9150915061114e600087848487611308565b505050505050565b600073ffffffffffffffffffffffffffffffffffffffff168473ffffffffffffffffffffffffffffffffffffffff16036111c85760006040517f57f447ce0000000000000000000000000000000000000000000000000000000081526004016111bf91906124e4565b60405180910390fd5b600073ffffffffffffffffffffffffffffffffffffffff168573ffffffffffffffffffffffffffffffffffffffff160361123a5760006040517f01a8351400000000000000000000000000000000000000000000000000000000815260040161123191906124e4565b60405180910390fd5b60008061124785856113ba565b915091506112588787848487611308565b50505050505050565b600073ffffffffffffffffffffffffffffffffffffffff168373ffffffffffffffffffffffffffffffffffffffff16036112d35760006040517f01a835140000000000000000000000000000000000000000000000000000000081526004016112ca91906124e4565b60405180910390fd5b6000806112e084846113ba565b91509150611301856000848460405180602001604052806000815250611308565b5050505050565b611314858585856113ea565b600073ffffffffffffffffffffffffffffffffffffffff168473ffffffffffffffffffffffffffffffffffffffff16146113b3576000611352610be4565b905060018451036113a2576000611373600086610cf890919063ffffffff16565b9050600061138b600086610cf890919063ffffffff16565b905061139b8389898585896113fc565b50506113b1565b6113b08187878787876115b0565b5b505b5050505050565b60608060405191506001825283602083015260408201905060018152826020820152604081016040529250929050565b6113f684848484611764565b50505050565b60008473ffffffffffffffffffffffffffffffffffffffff163b11156115a8578373ffffffffffffffffffffffffffffffffffffffff1663f23a6e6187878686866040518663ffffffff1660e01b815260040161145d959493929190612fe3565b6020604051808303816000875af192505050801561149957506040513d601f19601f820116820180604052508101906114969190613052565b60015b61151d573d80600081146114c9576040519150601f19603f3d011682016040523d82523d6000602084013e6114ce565b606091505b50600081510361151557846040517f57f447ce00000000000000000000000000000000000000000000000000000000815260040161150c91906124e4565b60405180910390fd5b805181602001fd5b63f23a6e6160e01b7bffffffffffffffffffffffffffffffffffffffffffffffffffffffff1916817bffffffffffffffffffffffffffffffffffffffffffffffffffffffff1916146115a657846040517f57f447ce00000000000000000000000000000000000000000000000000000000815260040161159d91906124e4565b60405180910390fd5b505b505050505050565b60008473ffffffffffffffffffffffffffffffffffffffff163b111561175c578373ffffffffffffffffffffffffffffffffffffffff1663bc197c8187878686866040518663ffffffff1660e01b815260040161161195949392919061307f565b6020604051808303816000875af192505050801561164d57506040513d601f19601f8201168201806040525081019061164a9190613052565b60015b6116d1573d806000811461167d576040519150601f19603f3d011682016040523d82523d6000602084013e611682565b606091505b5060008151036116c957846040517f57f447ce0000000000000000000000000000000000000000000000000000000081526004016116c091906124e4565b60405180910390fd5b805181602001fd5b63bc197c8160e01b7bffffffffffffffffffffffffffffffffffffffffffffffffffffffff1916817bffffffffffffffffffffffffffffffffffffffffffffffffffffffff19161461175a57846040517f57f447ce00000000000000000000000000000000000000000000000000000000815260040161175191906124e4565b60405180910390fd5b505b505050505050565b6117708484848461190f565b600073ffffffffffffffffffffffffffffffffffffffff168473ffffffffffffffffffffffffffffffffffffffff160361184a576000805b835181101561182e5760008382815181106117c6576117c5612920565b5b6020026020010151905080600360008785815181106117e8576117e7612920565b5b60200260200101518152602001908152602001600020600082825461180d9190613116565b9250508190555080836118209190613116565b9250508060010190506117a8565b5080600460008282546118419190613116565b92505081905550505b600073ffffffffffffffffffffffffffffffffffffffff168373ffffffffffffffffffffffffffffffffffffffff1603611909576000805b83518110156118f65760008382815181106118a05761189f612920565b5b6020026020010151905080600360008785815181106118c2576118c1612920565b5b6020026020010151815260200190815260200160002060008282540392505081905550808301925050806001019050611882565b5080600460008282540392505081905550505b50505050565b805182511461195957815181516040517f5b0599910000000000000000000000000000000000000000000000000000000081526004016119509291906128f7565b60405180910390fd5b6000611963610be4565b905060005b8351811015611b725760006119868286610cf890919063ffffffff16565b9050600061199d8386610cf890919063ffffffff16565b9050600073ffffffffffffffffffffffffffffffffffffffff168873ffffffffffffffffffffffffffffffffffffffff1614611aca57600080600084815260200190815260200160002060008a73ffffffffffffffffffffffffffffffffffffffff1673ffffffffffffffffffffffffffffffffffffffff16815260200190815260200160002054905081811015611a7257888183856040517f03dee4c5000000000000000000000000000000000000000000000000000000008152600401611a69949392919061314a565b60405180910390fd5b81810360008085815260200190815260200160002060008b73ffffffffffffffffffffffffffffffffffffffff1673ffffffffffffffffffffffffffffffffffffffff16815260200190815260200160002081905550505b600073ffffffffffffffffffffffffffffffffffffffff168773ffffffffffffffffffffffffffffffffffffffff1614611b65578060008084815260200190815260200160002060008973ffffffffffffffffffffffffffffffffffffffff1673ffffffffffffffffffffffffffffffffffffffff1681526020019081526020016000206000828254611b5d9190613116565b925050819055505b5050806001019050611968565b506001835103611c31576000611b92600085610cf890919063ffffffff16565b90506000611baa600085610cf890919063ffffffff16565b90508573ffffffffffffffffffffffffffffffffffffffff168773ffffffffffffffffffffffffffffffffffffffff168473ffffffffffffffffffffffffffffffffffffffff167fc3d58168c5ae7397731d063d5bbf3d657854427343f4c083240f7aacaa2d0f628585604051611c229291906128f7565b60405180910390a45050611cb0565b8373ffffffffffffffffffffffffffffffffffffffff168573ffffffffffffffffffffffffffffffffffffffff168273ffffffffffffffffffffffffffffffffffffffff167f4a39dc06d4c0dbc64b70af90fd698a233a518aa5d07e595d983b8c0526c8f7fb8686604051611ca792919061318f565b60405180910390a45b5050505050565b6000604051905090565b600080fd5b600080fd5b600073ffffffffffffffffffffffffffffffffffffffff82169050919050565b6000611cf682611ccb565b9050919050565b611d0681611ceb565b8114611d1157600080fd5b50565b600081359050611d2381611cfd565b92915050565b6000819050919050565b611d3c81611d29565b8114611d4757600080fd5b50565b600081359050611d5981611d33565b92915050565b60008060408385031215611d7657611d75611cc1565b5b6000611d8485828601611d14565b9250506020611d9585828601611d4a565b9150509250929050565b611da881611d29565b82525050565b6000602082019050611dc36000830184611d9f565b92915050565b60007fffffffff0000000000000000000000000000000000000000000000000000000082169050919050565b611dfe81611dc9565b8114611e0957600080fd5b50565b600081359050611e1b81611df5565b92915050565b600060208284031215611e3757611e36611cc1565b5b6000611e4584828501611e0c565b91505092915050565b60008115159050919050565b611e6381611e4e565b82525050565b6000602082019050611e7e6000830184611e5a565b92915050565b600060208284031215611e9a57611e99611cc1565b5b6000611ea884828501611d4a565b91505092915050565b600081519050919050565b600082825260208201905092915050565b60005b83811015611eeb578082015181840152602081019050611ed0565b60008484015250505050565b6000601f19601f8301169050919050565b6000611f1382611eb1565b611f1d8185611ebc565b9350611f2d818560208601611ecd565b611f3681611ef7565b840191505092915050565b60006020820190508181036000830152611f5b8184611f08565b905092915050565b600080fd5b7f4e487b7100000000000000000000000000000000000000000000000000000000600052604160045260246000fd5b611fa082611ef7565b810181811067ffffffffffffffff82111715611fbf57611fbe611f68565b5b80604052505050565b6000611fd2611cb7565b9050611fde8282611f97565b919050565b600067ffffffffffffffff821115611ffe57611ffd611f68565b5b602082029050602081019050919050565b600080fd5b600061202761202284611fe3565b611fc8565b9050808382526020820190506020840283018581111561204a5761204961200f565b5b835b81811015612073578061205f8882611d4a565b84526020840193505060208101905061204c565b5050509392505050565b600082601f83011261209257612091611f63565b5b81356120a2848260208601612014565b91505092915050565b600080fd5b600067ffffffffffffffff8211156120cb576120ca611f68565b5b6120d482611ef7565b9050602081019050919050565b82818337600083830152505050565b60006121036120fe846120b0565b611fc8565b90508281526020810184848401111561211f5761211e6120ab565b5b61212a8482856120e1565b509392505050565b600082601f83011261214757612146611f63565b5b81356121578482602086016120f0565b91505092915050565b600080600080600060a0868803121561217c5761217b611cc1565b5b600061218a88828901611d14565b955050602061219b88828901611d14565b945050604086013567ffffffffffffffff8111156121bc576121bb611cc6565b5b6121c88882890161207d565b935050606086013567ffffffffffffffff8111156121e9576121e8611cc6565b5b6121f58882890161207d565b925050608086013567ffffffffffffffff81111561221657612215611cc6565b5b61222288828901612132565b9150509295509295909350565b600067ffffffffffffffff82111561224a57612249611f68565b5b602082029050602081019050919050565b600061226e6122698461222f565b611fc8565b905080838252602082019050602084028301858111156122915761229061200f565b5b835b818110156122ba57806122a68882611d14565b845260208401935050602081019050612293565b5050509392505050565b600082601f8301126122d9576122d8611f63565b5b81356122e984826020860161225b565b91505092915050565b6000806040838503121561230957612308611cc1565b5b600083013567ffffffffffffffff81111561232757612326611cc6565b5b612333858286016122c4565b925050602083013567ffffffffffffffff81111561235457612353611cc6565b5b6123608582860161207d565b9150509250929050565b600081519050919050565b600082825260208201905092915050565b6000819050602082019050919050565b61239f81611d29565b82525050565b60006123b18383612396565b60208301905092915050565b6000602082019050919050565b60006123d58261236a565b6123df8185612375565b93506123ea83612386565b8060005b8381101561241b57815161240288826123a5565b975061240d836123bd565b9250506001810190506123ee565b5085935050505092915050565b6000602082019050818103600083015261244281846123ca565b905092915050565b60008060006060848603121561246357612462611cc1565b5b600061247186828701611d14565b935050602084013567ffffffffffffffff81111561249257612491611cc6565b5b61249e8682870161207d565b925050604084013567ffffffffffffffff8111156124bf576124be611cc6565b5b6124cb8682870161207d565b9150509250925092565b6124de81611ceb565b82525050565b60006020820190506124f960008301846124d5565b92915050565b61250881611e4e565b811461251357600080fd5b50565b600081359050612525816124ff565b92915050565b6000806040838503121561254257612541611cc1565b5b600061255085828601611d14565b925050602061256185828601612516565b9150509250929050565b600067ffffffffffffffff82111561258657612585611f68565b5b61258f82611ef7565b9050602081019050919050565b60006125af6125aa8461256b565b611fc8565b9050828152602081018484840111156125cb576125ca6120ab565b5b6125d68482856120e1565b509392505050565b600082601f8301126125f3576125f2611f63565b5b813561260384826020860161259c565b91505092915050565b6000806000806080858703121561262657612625611cc1565b5b600061263487828801611d14565b945050602061264587828801611d4a565b935050604061265687828801611d4a565b925050606085013567ffffffffffffffff81111561267757612676611cc6565b5b612683878288016125de565b91505092959194509250565b600080604083850312156126a6576126a5611cc1565b5b60006126b485828601611d14565b92505060206126c585828601611d14565b9150509250929050565b600080600080600060a086880312156126eb576126ea611cc1565b5b60006126f988828901611d14565b955050602061270a88828901611d14565b945050604061271b88828901611d4a565b935050606061272c88828901611d4a565b925050608086013567ffffffffffffffff81111561274d5761274c611cc6565b5b61275988828901612132565b9150509295509295909350565b60006020828403121561277c5761277b611cc1565b5b600061278a84828501611d14565b91505092915050565b6000806000606084860312156127ac576127ab611cc1565b5b60006127ba86828701611d14565b93505060206127cb86828701611d4a565b92505060406127dc86828701611d4a565b9150509250925092565b7f4e487b7100000000000000000000000000000000000000000000000000000000600052602260045260246000fd5b6000600282049050600182168061282d57607f821691505b6020821081036128405761283f6127e6565b5b50919050565b7f646174613a6170706c69636174696f6e2f6a736f6e3b6261736536342c000000815250565b600081905092915050565b600061288282611eb1565b61288c818561286c565b935061289c818560208601611ecd565b80840191505092915050565b60006128b382612846565b601d820191506128c38284612877565b915081905092915050565b60006040820190506128e360008301856124d5565b6128f060208301846124d5565b9392505050565b600060408201905061290c6000830185611d9f565b6129196020830184611d9f565b9392505050565b7f4e487b7100000000000000000000000000000000000000000000000000000000600052603260045260246000fd5b7f646174613a6170706c69636174696f6e2f6a736f6e3b757466382c0000000000815250565b7f7b00000000000000000000000000000000000000000000000000000000000000815250565b7f226e616d65223a22436172626f6e5468696e6b2054434f32222c000000000000815250565b7f226465736372697074696f6e223a22436172626f6e5468696e6b2054434f322060008201527f746f6b656e7320636f6c6c656374696f6e2e222c000000000000000000000000602082015250565b6000612a1d60348361286c565b9150612a28826129c1565b603482019050919050565b7f22696d616765223a22697066733a2f2f6261667962656964637372766d63786f60008201527f716f7871676d6969646e79726f7662346871783266356d6d3674796a7367797260208201527f6a7a3772696262776b70652f222c000000000000000000000000000000000000604082015250565b6000612ab5604e8361286c565b9150612ac082612a33565b604e82019050919050565b7f2262616e6e65725f696d616765223a22697066733a2f2f62616679626569623560008201527f7a75336b616b666632617836376537656c3465727563647769766c636472336c60208201527f3469376862786874646470367733366f6a692f222c0000000000000000000000604082015250565b6000612b4d60558361286c565b9150612b5882612acb565b605582019050919050565b7f2266656174757265645f696d616765223a22697066733a2f2f6261667962656960008201527f64637372766d63786f716f7871676d6969646e79726f7662346871783266356d60208201527f6d3674796a736779726a7a3772696262776b70652f222c000000000000000000604082015250565b6000612be560578361286c565b9150612bf082612b63565b605782019050919050565b7f2265787465726e616c5f6c696e6b223a2268747470733a2f2f616c7972612d6360008201527f6172626f6e7468696e6b2e76657263656c2e6170702f22000000000000000000602082015250565b6000612c5760378361286c565b9150612c6282612bfb565b603782019050919050565b7f7d00000000000000000000000000000000000000000000000000000000000000815250565b6000612c9e8261294f565b601b82019150612cad82612975565b600182019150612cbc8261299b565b601a82019150612ccb82612a10565b9150612cd682612aa8565b9150612ce182612b40565b9150612cec82612bd8565b9150612cf782612c4a565b9150612d0282612c6d565b600182019150819050919050565b60008190508160005260206000209050919050565b60006020601f8301049050919050565b600082821b905092915050565b600060088302612d727fffffffffffffffffffffffffffffffffffffffffffffffffffffffffffffffff82612d35565b612d7c8683612d35565b95508019841693508086168417925050509392505050565b6000819050919050565b6000612db9612db4612daf84611d29565b612d94565b611d29565b9050919050565b6000819050919050565b612dd383612d9e565b612de7612ddf82612dc0565b848454612d42565b825550505050565b600090565b612dfc612def565b612e07818484612dca565b505050565b5b81811015612e2b57612e20600082612df4565b600181019050612e0d565b5050565b601f821115612e7057612e4181612d10565b612e4a84612d25565b81016020851015612e59578190505b612e6d612e6585612d25565b830182612e0c565b50505b505050565b600082821c905092915050565b6000612e9360001984600802612e75565b1980831691505092915050565b6000612eac8383612e82565b9150826002028217905092915050565b612ec582611eb1565b67ffffffffffffffff811115612ede57612edd611f68565b5b612ee88254612815565b612ef3828285612e2f565b600060209050601f831160018114612f265760008415612f14578287015190505b612f1e8582612ea0565b865550612f86565b601f198416612f3486612d10565b60005b82811015612f5c57848901518255600182019150602085019450602081019050612f37565b86831015612f795784890151612f75601f891682612e82565b8355505b6001600288020188555050505b505050505050565b600081519050919050565b600082825260208201905092915050565b6000612fb582612f8e565b612fbf8185612f99565b9350612fcf818560208601611ecd565b612fd881611ef7565b840191505092915050565b600060a082019050612ff860008301886124d5565b61300560208301876124d5565b6130126040830186611d9f565b61301f6060830185611d9f565b81810360808301526130318184612faa565b90509695505050505050565b60008151905061304c81611df5565b92915050565b60006020828403121561306857613067611cc1565b5b60006130768482850161303d565b91505092915050565b600060a08201905061309460008301886124d5565b6130a160208301876124d5565b81810360408301526130b381866123ca565b905081810360608301526130c781856123ca565b905081810360808301526130db8184612faa565b90509695505050505050565b7f4e487b7100000000000000000000000000000000000000000000000000000000600052601160045260246000fd5b600061312182611d29565b915061312c83611d29565b9250828201905080821115613144576131436130e7565b5b92915050565b600060808201905061315f60008301876124d5565b61316c6020830186611d9f565b6131796040830185611d9f565b6131866060830184611d9f565b95945050505050565b600060408201905081810360008301526131a981856123ca565b905081810360208301526131bd81846123ca565b9050939250505056fea26469706673582212207ea9f6d1ad7761695e6b86e899768aba45260d845f463d1a3c097a788db7384b64736f6c63430008180033",
  "linkReferences": {},
  "deployedLinkReferences": {}
}